:040000006F006046E7
:1000040000000000000000002002000022020000A6
:100014000000000064040000000000000000000074
:1000240064040000640400000000000000000000FC
:1000340064040000000000006404000000000000EC
:10004400640400006404000064040000640400000C
:1000540064040000640400006404000064040000FC
:1000640064040000640400006404000064040000EC
:1000740064040000640400006404000064040000DC
:1000840064040000640400006404000064040000CC
:1000940064040000640400006404000064040000BC
:1000A40064040000640400006404000064040000AC
:1000B400640400006404000064040000640400009C
:1000C400640400006404000064040000640400008C
:1000D400640400006404000064040000640400007C
:1000E400640400006404000064040000640400006C
:1000F400640400006404000064040000640400005C
:1001040000000000640400006404000064040000B3
:10011400640400006404000064040000640400003B
:10012400640400006404000064040000640400002B
:10013400640400006404000064040000640400001B
:10014400640400006404000064040000640400000B
:1001540064040000640400006404000064040000FB
:1001640064040000640400006404000064040000EB
:1001740064040000640400006404000064040000DB
:1001840064040000640400006404000064040000CB
:1001940064040000640400006404000064040000BB
:1001A400000000000000000000000000000000004B
:0C01B4000000000000000000000000003F
:1001C000397101436EC619A0397141536AC866CAB4
:1001D00062CC5ECE19A0397101535AD056D252D496
:1001E0004ED64AD826DA22DC06DE3301614082820E
:1001F00041114AC026C222C406C68282B24D4101C4
:10020000024D924C224CB24B4101024B924A224A7F
:10021000B2494101024992442244B24041018280E4
:1002200001A0B707EFBE37E700E0938707083CC798
:1002300001A0EFF2FFFB0945412EF528EF005054D5
:10024000716513050520EF00B059EF007025EF0030
:100250007040930500320545EF00D04A9305401FDA
:100260000D45EF00304A37540000EF00503003A531
:10027000C181EF40E05B2A86AE86130544ABEF10E8
:100280001029E5B7B71702409843B706FFF0136788
:10029000170098C3D843758FD8C39843B706F7FEA5
:1002A000FD16758F98C39843B706FCFFFD16758F32
:1002B00098C3D843B70601FFFD16758FD8C398437E
:1002C000B70600ECFD16758F98C33707FF0098C777
:1002D00023A60702B746024003A70680136707015B
:1002E00023A0E680D843B706C1FFFD16D8C3D84384
:1002F000D8C3D84313670740D8C3D843758FD8C332
:10030000D843B7060001D8C39843558F98C3984384
:1003100093166700E3DD06FED843B7160240719BD3
:10032000D8C3D84313672700D8C32147DC42B18B19
:10033000E39EE7FE8280B7160240D842B70700204E
:100340001146318B938707026305C7002146630876
:10035000C70237177A001307072098C337170240E0
:10036000584311839376F7003707002013070700DF
:100370003697142398433357D70098C38280D842C6
:10038000D442416649833D8BF18E1306270015CF79
:100390003D47630FE6024147630FE602454781454B
:1003A0006313E6004146A1E2374702400327078076
:1003B000418B0DC737177A00130707203306C70292
:1003C00090C3C9DD9843058349BF81454946E1BFD4
:1003D00085453546C9BF81453D46F1B737173D00D4
:1003E00013070790E1BF3715024058559316F700E1
:1003F000585563DF060411833D8B930617003717AA
:100400007A00130707203357D70298C35455A182A7
:10041000BD8A8DE295463307D702058398C3371707
:100420000240585794433D8B050733D7E60298C3E3
:10043000984369B705456394A600E546E9BF3D4585
:100440006396A600D1463387E602C9BF8906E5BF99
:100450003D8B9306170037177A0013070720335791
:10046000D702F1B701A0970100209381A13B17812A
:100470000020130121B91755000013052594970595
:100480000020938525B81386818063FAC5008322F6
:10049000050023A0550011059105E3EAC5FE13856B
:1004A0008180938501846377B500232005001105C1
:1004B000E36DB5FEFD42739002BCAD427390428085
:1004C000B7620000938282087390023097020000A6
:1004D000938282B393E2320073905230EFF09FDA4E
:1004E00097020000938222D573901234730020305B
:1004F0009C4513F7070113F8F70001C7D84133688B
:10050000E8008E2113F7F50F39C318418146854E57
:100510003D4F930F800293028004214E3396DE00FC
:10052000B3F8C500631116039398260033131F0117
:100530001343F3FF3377E300B318180133E7E80000
:10054000639FF70550C98506E39AC6FD18C11307D6
:10055000F00F6375B70454412146854E3D4F930F0C
:10056000800293028004414EB398CE0033F7150108
:100570006392E8021317260001173313EF001343A9
:10058000F3FFB376D3003317E800D98E639DF701EC
:10059000232A15010506E319C6FD54C18280E394A0
:1005A00057FA10C94DB7E39757FE23281501DDB759
:1005B00008456D8D3335A00082800CC9828019C238
:1005C0000CC982804CC9828023A4A1808280371705
:1005D00002405C439146B18B6385D700A14663829C
:1005E000D706B7177A00938707201CC13716024039
:1005F0005C4237070020130707019183BD8BBA9730
:1006000094231C41B3D7D7005CC15442A1829D8A78
:10061000BA969422B3D6D70014C55442AD829D8AAF
:1006200036971823B3D7E7005CC5584239839376D1
:1006300037001387418036971823B3D7E7021CC9C8
:1006400082805C435843C166C983758FB7F6FF1F2C
:1006500083A6C670BD8B89071396160163480600F2
:10066000C54601466392D702C94739A88946638FB8
:10067000D702BD46638ED702C146638ED702C546F8
:1006800001466393D700C1471DEF37470240032758
:100690000780418B05C737177A0013070720B30778
:1006A000F7021CC121D61C41858381B701466DBF6D
:1006B0000546B547D1BF0146BD47F9B737173D00DD
:1006C00013070790E9BFB7150240D8559316F700F6
:1006D000D85563DF060411833D8B93061700371747
:1006E0007A00130707203357D70218C1D455A182C7
:1006F000BD8A8DE295463307D702058318C13717A7
:100700000240585714413D8B050733D7E60218C104
:10071000184171B785456394B600E546E9BFBD450C
:100720006396B600D1463387E602C9BF8906E5BFA6
:100730003D8B9306170037177A00130707203357AE
:10074000D702F1B799C5371702401C4F5D8D08CF0E
:100750008280B7170240984F1345F5FF798D88CFF7
:10076000828099C5371702405C4F5D8D48CF8280EB
:10077000B7170240D84F1345F5FF798DC8CF828057
:1007800037F7FF1F032747701E21914611833D8BCA
:10079000C2077117C18363E6E6023737014093064B
:1007A00007C0630ED50013070740630AE5003757FB
:1007B0000140930607C06304D500631AE50009678A
:1007C000D98F37370140130707C06302E5043707A5
:1007D0000040630EE50213070740630AE50237177E
:1007E0000040930607806304D502130707C0630027
:1007F000E5023737014013070740630AE500375722
:100800000140930607C06304D5006318E50093F721
:10081000F7F8BA21C207C183D98F37170040630C9C
:10082000E500130707406308E50093F7F7CFFA21C7
:10083000C207C183D98F1EA1DE215EB59E211EB5E0
:10084000B7370140138707C0630EE5009387074061
:10085000630AF500B7570140138707C06304E5003A
:100860006314F5009C251EB985475EA982801E3160
:10087000922103D82500C207C183F99BC207C18317
:100880001EB11E3156211A2DC207C1834207418372
:100890001377C7F8518F9225F59BC2063366060180
:1008A000D18F37360140130806C0C182630E05019F
:1008B00013060640630AC50037560140130806C0F8
:1008C000630405016310C502B225DD9B03D8E50072
:1008D000D18FD221ED9B93F6F6CFD18FD2253366FF
:1008E0000601D18E56A11AADFA215AB91EB18280E5
:1008F0001E3103D88500C207C18393F7F7EFC20703
:10090000C1831EB11E3156215A2DC207139606010E
:100910004207962141831377C7F8558FB621C183CB
:1009200093F7F7DFB3E60601A206D58FB73601408D
:10093000C207138806C04182C183630E05019386F6
:100940000640630AD500B7560140138806C0630409
:100950000501631FD502FD769386F67FF58FB625D8
:1009600003D8C500A206D58FD621C207C183A2062F
:1009700093F7F7BFD58FF576FD16F18EF225C207F6
:10098000C183336606011206D18E13960601418299
:1009900052A15AADFA215ABD1EB182802310050022
:1009A000231105002312050023130500231405005D
:1009B00023150500231605002317050082801E213C
:1009C00089C593E717001EA18280C207C183F99BE6
:1009D000C207C183CDBF1E2189C593E707081EA1A9
:1009E0008280C207C18393F7F7F7C207C183C5BFEF
:1009F0001E2DC207C183DD9BDD8D0EAD82805E2D75
:100A0000C207C183DD9BDD8D4EAD82801A318547E3
:100A1000B397B70093C7F7FFF98F1EB11E31B31517
:100A2000B600DD8DC205C1810EB182804EB98280D3
:100A30004EBD8280EFF2CFFB1A29F577FD17F98FB3
:100A4000FA2179712A84D98F1EA99A25DE2156258B
:100A50002EC6D98FBA25D98F7D771307379F758F0B
:100A6000D98F5EA55E29DA25C207C18393F7F7CF38
:100A7000D98F5EA96808A13EB747014093870780D8
:100A8000B2456311F404A2576547B387E702984162
:100A9000130640060A07B3D7E702B3D6C702B3F777
:100AA000C702920613974700930727031307F063C3
:100AB000637CF70093870601C207C1831EA44561CA
:100AC0006FF04FF59257C9B7B3D7C702D58FEDB7BF
:100AD00091C55E250967D98F5EA582805A25F97771
:100AE000FD17F98FD5BF93F5F51F4EA182800A211E
:100AF0006D8D3335A0008280EFF28FEF2A86371597
:100B0000014093050040130505C0553C2945712956
:100B10006FF04FF0EFF2CFED2A8685653715014073
:100B200093850580130505C0593C2945BD296FF003
:100B30006FEEEFF2EFEB8565371501409385058089
:100B4000130505C0B5342A842945852122856FF017
:100B50006FECEFF2EFE9411185452145E536D147CC
:100B60003EC6856737140140938707C07C824C00DE
:100B70008D47130504C03EC4A53A8565938505C01D
:100B8000130504C01D3C41016FF0CFE8EFF24FE6C2
:100B90000545493705458D370145AD3F0145A93F1D
:100BA0006FF04FE7EFF2CFE40145AD370545A937C8
:100BB00005458D376FF00FE6EFF2EFE12A8901442A
:100BC00093090008A14433D589403375250199372D
:100BD00005451D37014505040537E31694FE6FF002
:100BE000CFE2EFF24FDF05453537814401449309E9
:100BF00000082149054509372D3F85476317F50052
:100C0000B3D799405D8C1374F40F01458504ED351D
:100C1000E39224FF22856FF04FDFEFF26FDDDD3DC1
:100C20000545D93D0145C93D6FF0CFDEEFF24FDC00
:100C30000545CD350545C935ED3D2A8401456D3D58
:100C400022856FF02FDDEFF2AFDA41112EC62A8434
:100C5000353F1305000D8D37D13F2285B13FF93760
:100C6000B2452E85913FD937353F41016FF08FDA7C
:100C7000EFF20FD82A84193F1305000D353F7D3759
:100C800022851D3F653719371305100D3537793F1C
:100C9000893F2A8405455137313722856FF08FD738
:100CA000EFF20FD57D3585451305B006693F8145C7
:100CB0001305C006493FA545654571379945694506
:100CC0005937E1456D454137E1457145AD3F6FF01D
:100CD0006FD4EFF2EFD10111AA841305B0033EC621
:100CE0003AC836CA32CC2ECE61372A841305C003E7
:100CF00041372204498C82A01305D003953F2A84F2
:100D00001305E003B537F2452204498C82A113058F
:100D1000F003B93F2A8413050004993F6246220478
:100D2000498C02A213053004A1372A84130540041C
:100D30008137D2462204498C82A2130550040D3F0C
:100D40002A84130560042D3742472204498C02A3EC
:100D500013057004313F2A8413058004113FB24704
:100D600013178400598D8AA305616FF0AFCAEFF2A3
:100D70008FC641119387E1831387C1839386A18333
:100D80001386818313854183938561839937938487
:100D9000418303952400B7590000EF30200F2AC487
:100DA000039541832EC6EF30600E2246B246E924F9
:100DB000B757000003A607AD83A647ADB70700806D
:100DC0002A87AD8F3A85BE85EF10705BB75700005C
:100DD00003A687AD83A6C7ADEF20E04BEF30103000
:100DE000B757000083A5C7ABEF3080382A8923AC02
:100DF000A1800395A400EF305017B757000083A5DA
:100E000007ACEF30806DB757000083A547ACEF30DB
:100E1000C06C83A589ACEF30406C83A5C181EF30F5
:100E2000203583A589ACAA8423A8A1824A85EF3006
:100E3000C06AB757000083A5C7AC2A892685EF3062
:100E4000C069AA854A85EF30A03223AEA180410156
:100E50006FF0AFBBEFF2CFB9797185451545EFF073
:100E60007F8E85450545EFF0DF8F9547FC8237156E
:100E70000140E1473ECE4C088D47130505803ECC2E
:100E8000EFF00FE7B707002083A7070237470F00EF
:100E900013070724B3D7E7022C00370500402315BA
:100EA000010023080100FD177C849307703E3EC6B5
:100EB000EFF01F8D0810DD34C167938707060C1013
:100EC000370500403ED02314010223130102EFF046
:100ED0001F9A0C1037050040EFF09FA1A145370580
:100EE00000403936A14537050040113E854537059C
:100EF0000040D534854537050040EFF05FAC4561D3
:100F00006FF04FB1EFF2CFAE41112A84AE84154598
:100F10008545EFF03F83E1473EC68D473EC4054718
:100F2000631DE402371501404C0013050580608203
:100F3000EFF00FDCA68537050040EFF03FAF054628
:100F4000814537050040EFF07FAC8545370500400F
:100F5000EFF0FFA641016FF0EFABE318F4FE371599
:100F6000014091474C00130505807C82EFF04FD87B
:100F7000A68537050040EFF0BFAB0546A145D1B7C8
:100F8000B707002083A7070237177A001307072047
:100F9000B3D7E70293F7F70F2387F1801307803E5B
:100FA000B387E7022396F1808280B7F700E0D84349
:100FB0008146799BD8C303C7E1803306A70290CB53
:100FC000D4CB98431367070198C39843136717025C
:100FD00098C3D843058B75DF9843799B98C382806B
:100FE000EFF20FA12A841165011185451105EFF07B
:100FF0006FF5930700207C82371501408D473EC472
:101000004C00E147130505803EC6EFF06FCE22C8C5
:1010100037440140B70708000C08130504803ECC94
:1010200002CA231E0100EFF0FFA0854513050480CE
:10103000EFF01FAA05616FF0EF9DEFF2CF99B74473
:101040000140AE89328901449384048063452401C0
:101050004A856FF08F9B930500042685EFF03FA92A
:101060007DD9B38789008385070026850504C205DD
:10107000C181EFF05FA7D9BF09A0B307C040370710
:1010800000801347F7FFD18F4111337ED700FD83D6
:1010900006C622C4B3E7C7013703F07FAA882E88AB
:1010A0006367F304B307A040C98F6D8FFD83D98FA9
:1010B0002E8F636EF302B70710C0B697D18FE1C7CA
:1010C00013D4E64193752400B367A7001354F801C5
:1010D0004D8C85EB8947630CF40A8D476310F40A45
:1010E00097470000938707A18843CC4339A03285F6
:1010F000B6854686C286EF108035B2402244410153
:101100008280B367CE00B5C363016E0A630F6704C4
:101110003307C74151879307C00363C1E70863D80A
:101120000600930740FC014581456348F70046856A
:10113000C285EF10D024B12905228547630FF40A38
:1011400089476309F40855D8974700009387079E9D
:101150009043D443EF20A05F9747000093870799FF
:101160009043D443EF20A05E49BF634E0F049747DE
:101170000000938727978843CC4341B7B24022446D
:10118000C285410182802244B2404101F1A09747CB
:1011900000009387A7958843CC4385B79747000005
:1011A000938747948843CC4349BF8947630BC7055E
:1011B000E30FF4FC8D47E305F4F285476302F40680
:1011C000014581451DBF974700009387A79388433A
:1011D000CC4325B797470000938747959043D44366
:1011E000EF20E05697470000938747902A86AE8607
:1011F0008843CC43EF20A05509B7B7070080BD8DC9
:10120000EDBD6304F4048D47630AF402854763006F
:10121000F40297470000938767908843CC43F1BD61
:10122000974700009387878D8843CC43F9B597474C
:1012300000009387278F8843CC43C1B597470000B0
:101240009387478D8843CC434DBD974700009387D4
:10125000E78B8843CC4355B579714AD01399150073
:1012600022D426D256CA06D64ECE52CC5AC85EC614
:1012700013591900B70710442E84AA84AE8A634715
:10128000F904B707F07F63CE2701630BF900635BB6
:10129000501F974700009387E7848443C04311A8F9
:1012A0007DD526862685A286A285EF10401AAA84BF
:1012B0002E84A285B2502254268502599254F249B6
:1012C000624AD24A424BB24B45618280B707DC3F4B
:1012D0006358F91CB707203E6343F9187D5A2686E8
:1012E000A2862685A285EF10107B2A86AE862A8BE1
:1012F000AE8BEF10507A9747000093872786904374
:10130000D4432A89AE89EF1010799747000093875C
:1013100067859043D443EF1080134A86CE86EF1042
:10132000907797470000938767849043D443EF10EA
:1013300000124A86CE86EF101076974700009387FA
:1013400067839043D443EF1080104A86CE86EF1017
:10135000907497470000938767829043D443EF10BF
:10136000000F4A86CE86EF101073974700009387D0
:1013700067819043D443EF10800D5A86DE86EF10CC
:10138000907197470000938767809043D4432A8BDE
:10139000AE8B4A85CE85EF1010709737000093878B
:1013A000677F9043D443EF20803A4A86CE86EF1081
:1013B000906E973700009387677E9043D443EF2069
:1013C00000394A86CE86EF10106D9737000093875C
:1013D000677D9043D443EF2080374A86CE86EF1056
:1013E000906B973700009387677C9043D443EF203E
:1013F00000364A86CE86EF10106A2A86AE865A8557
:10140000DE85EF10C0042686A286EF10D068FD5757
:101410002A86AE86630FFA060E0A97370000938776
:10142000677BD2979043D4439737000093878778A0
:101430003E9AEF20C0312686A286EF2040312A86D0
:10144000AE8603250A0083254A00EF204030AA8497
:101450002E84E3D00AE6370400802D8C99BD97379F
:1014600000009387276D9043D443EF00507E973759
:1014700000009387A76C9043D443EF10904BE35F39
:10148000A0E405BD973700009387C7678443C04336
:101490000DB52685A285EF20802BAA842E8411BD50
:1014A000CD28B707F33F2A84AE846358F904B70701
:1014B000E63F635CF90A2A86AE86EF0050799737DB
:1014C00000009387A7679043D443014AEF20202868
:1014D00097370000938707679043D4432A89AE89E2
:1014E0002285A685EF00B0762A86AE864A85CE850F
:1014F000EF10E068AA842E84DDB3B78703406358F9
:10150000F9041739000013096964032609008326CA
:101510004900094AEF20A023032609008326490039
:101520002A8BAE8B2285A685EF10F05697370000E8
:101530009387C7609043D443EF0070712A86AE86CC
:101540005A85DE85EF10A063AA842E8449BB9737A5
:101550000000938727608843CC432286A686EF103D
:1015600000620D4AAA842E849DBB1739000013091E
:10157000E95C0326090083264900054AEF20201D67
:101580002A8BAE8B03260900832649002285A68577
:1015900065B7860585818280011106CE2EC60DCDE8
:1015A0001841AA8705C358417D5511CB8546631B59
:1015B000D70098472300070023A207000545F24003
:1015C000056182809847B24614A39847050798C7DB
:1015D000D8437D17D8C3DDB705466C00EFF0FFA5F3
:1015E000F1BF797122D426D24ECE52CC56CA06D63D
:1015F0004AD05AC82A8AAE8A3284814493090002AA
:1016000063440602B3879A00838707009DE363D68D
:10161000840263D2E402198C93F726009309000236
:1016200081C719E393090003858A01499DE6228950
:1016300029A88504C1BF058CC5B70144F1BFCE857B
:1016400052853AC6913F32477D19E34A20FF2289ED
:101650006353040001493304244163CBE402CA8488
:10166000B3872441D697838507009DED2289634186
:10167000200563530400014433059400B250225402
:1016800092540259F249624AD24A424B45618280E1
:10169000B3049740268B9305000352857D1BED3DD7
:1016A000E31B0BFE269965BF5285FD3585044DBFB2
:1016B000CE855285D5357D195DBF5D71A6C252DCE0
:1016C00086C6A2C4CAC04EDE56DABA843E8A95E106
:1016D000930700030147D28626862C08FC84113725
:1016E000B640264496440649F259625AD25A61617C
:1016F00082802A893684C68A91CAA9470144631721
:10170000F60063D50500B305B0400544A307010208
:101710009307F102A546130568FC33F7C50263D3AE
:10172000E6002A9713070703A38FE7FE9389F7FFC5
:1017300033D7C50263F7C50401CCB9C413772A00B7
:1017400021C79305D0024A8542C6B9353248FD14F7
:1017500093774A0099CF93071006930500034A85B3
:10176000631CF802153D930580074A853535090449
:10177000F9145687D2862686CE854A859D352295D0
:1017800085B7BA85CE8751BF1307D002A38FE9FE74
:1017900001449389E7FF6DBF013593058005F1B7DB
:1017A0001D71CAC8CEC6D6C2DAC03A8986CEA2CCCE
:1017B000A6CAD2C45EDE62DC66DA6AD86ED633E7C9
:1017C000C500BE89AA8A428B8347010629E385CFDB
:1017D0008D679387D7027C84230501000147DA8651
:1017E0004E862C005685F53BF6406644D644464965
:1017F000B649264A964A064BF25B625CD25C425D71
:10180000B25D25618280930700037C84C1BF368A64
:10181000AE84328463000902A9470149639CF60043
:10182000635A0600B304B040B33790003304C0409D
:101830001D8C0549A30F0100130DF101935DFA41C1
:10184000A54C138C68FC5286EE862685A285EF0097
:10185000700763D3AC00629513050503A30FADFEBB
:101860005286EE862685A285930BFDFFD9216366FD
:10187000B40163988D0263F64403630C0900638628
:10188000090293772B0095C39305D002568529331F
:10189000FD190147DA864E86DE85568599334A95CD
:1018A000A1B7AA842E845E8D79BF9307D002A38F3F
:1018B000FBFE0149930BEDFFE9BF5D71A6C2CAC0F3
:1018C000AA842E892E85B28586C63ACE42CCA2C481
:1018D0004EDE52DCB289368A56DA5AD8BE8A5ED6D5
:1018E00062D466D2468C6AD0EF2060612A8BAE8BC0
:1018F00001468146CE854A85EF10900E72476248B8
:101900007D81BA872AC00547E288D286DA855E865D
:10191000268579352A8D9305E0022685EFF0DFC70D
:10192000050D8147854C0144294763CD57075A85EA
:10193000DE85EF2080682A86AE864A85CE85EF1048
:1019400010612A89AE896685A285EF2000672A8604
:10195000AE864A85CE85EF101014EF20405A13D67C
:10196000F541318DB347B600B305C5403335B500F9
:101970003386C74002C0E288D687D286098E0948DE
:1019800026850547313DB64026446A95964406496A
:10199000F259625AD25A425BB25B225C925C025D9F
:1019A00061618280B3068702850733349703B30CE5
:1019B000970336949DBF5D715AD8375B0000A2C46F
:1019C000A6C2CAC04EDE52DC56DA5ED662D486C6E5
:1019D00066D2AA892E893284014A8144930B50022F
:1019E000930AB002294C130B0BBF830509008DE548
:1019F0006386090081454E85EFF01FBAB640264444
:101A0000268506499644F259625AD25A425BB25B25
:101A1000225C925C61618280638875014E85EFF083
:101A2000BFB785040509D1B783071900930C1900C6
:101A3000639A7701930550024E85EFF0FFB5850458
:101A40006689CDB7D5D76387570563C8FA001307F2
:101A500030026384E704814705A01307D002638A3C
:101A6000E70013070003E398E7FE930C290089477A
:101A700021A0930C2900854703870C0063035705B9
:101A800063C1EA0293063002630BD70266890145FF
:101A9000A54535A8930C29007DBF930C29009147DB
:101AA000E1BF9306D0026309D70093060003E31F4A
:101AB000D7FC93E7270031A0850C8547C1BF93E78A
:101AC0004700850CE1B73305850305093695030703
:101AD0000900930607FD13F6F60FE3F6C5FE13069D
:101AE000E0029946631EC7000509814625460307A3
:101AF0000900130707FD9375F70F6375B602368A61
:101B0000030709001306A0066309C70A6341E6023A
:101B10001306C0046303C70A130680066308C708D8
:101B200001461DA8B38686030509BA96C9B71306F0
:101B300040076304C7081306A0076300C70893059E
:101B4000C0060146631AB700830519000D46639469
:101B5000E50005091146050903070900930500067C
:101B60001308100663C4E5001308100493057006FB
:101B700063C2E506930550066359B71693057004D2
:101B800063CFE502130650046351C7169306300471
:101B9000E31AD7E81840930C4400A30E0100230E6B
:101BA000E100BE8601472A866C0871A083051900F2
:101BB0000146E393E5FA090945B7050995B7930688
:101BC0003006E309D7FC63CEE6069306800563037F
:101BD000D70289BD930630076306D70463CDE602BA
:101BE0009306F006630BD70C9306000793E74700B4
:101BF000E31AD7E21147631BE60A1D04137784FF3B
:101C00000C43504313048700C28802C03E8801473A
:101C1000AA87C146B9A0930650076303D706930667
:101C2000800775B71840930C4400DA8511C3BA8554
:101C30005287BE862A864E85EFF0BF9AAA946684A4
:101C4000D5B311476314E6021D04137784FF0C43D8
:101C5000504313048700C28802C03E880547AA8704
:101C6000A9464E85EFF0DFB3AA946DBB0C40D28835
:101C700011042A87854629464E85EFF01FA4EDB74B
:101C80001147631FE6001D04137784FF0C43504384
:101C900013048700C28802C03E880147AA87C9B7DB
:101CA0000C40D28811042A878146F1B70C40D288B3
:101CB00011042A8781464146C1B711476310E602E5
:101CC0001D04137784FF0C43504313048700C2881C
:101CD00002C03E880147AA87A14661B70C40D2885E
:101CE00011042A878146214641BF1D04137684FFD3
:101CF000130486000C4250423307D540C2887D173A
:101D00003E884E85B687A946EFF03FBBB1BF39711B
:101D10002ED232D4AA855010014506CE36D63AD8F6
:101D20003EDA42DC46DE32C6EFF0FFC8F240216107
:101D30008280B687B2882A832E88639B061463F854
:101D4000C50A4167636BE61AB70700016360F634A2
:101D500093568601E14717370000130727F6369799
:101D60001823BA97130700021D8F19CB3398E5008B
:101D7000B357F500B318E60033E807013313E50065
:101D800013D608013355C80293960801C1829357B0
:101D900003013377C802B385A60242073368F70010
:101DA000637AB80046989307F5FF6364180163658A
:101DB000B8303E853308B8403357C8024203135346
:101DC00003013378C802B386E6024208336868002C
:101DD000637BD80046989307F7FF6365180179176E
:101DE0006363D8003E874205598D8145828001E6B4
:101DF0000547B358C702416763E8E80EB70700011B
:101E000063EAF82893D68801E147173700001307E3
:101E1000E7EA36971423BE9693070002958FFDE7F5
:101E2000939E08013387154113DF080193DE0E01ED
:101E30008545935703013355E7033377E703B3062B
:101E4000D5034207D98F63FAD700C6971307F5FF6A
:101E500063E4170163E5D7263A85958F33D7E70307
:101E6000420313530301B3F7E703B30ED703C207CB
:101E7000B3E7670063FBD701C6979306F7FF63E5F7
:101E80001701791763E3D70136874205598D8280A0
:101E900063E1D504C16763E1F604B707000163E3BA
:101EA000F61E13D78601614897370000938707E134
:101EB000BA979823130E00024297330EEE40631A2E
:101EC0000E0C63EDB61C3335C50013451500814576
:101ED00082808145014582809307F00F63F3D71C10
:101EE00013D786002148C9B71307F00FC686E37ED3
:101EF00017F193D68800A14709BF1307F00FB286E8
:101F0000E37BC7E493568600A147B1B5B398F800C8
:101F100033D6D50013DF0801335EE6033397F500AF
:101F2000B356D500558F939E080193DE0E013313EF
:101F3000F50093550701B376E603B387CE03C206D7
:101F4000CD8E63FBF600C6961306FEFF63E41617FC
:101F500063F2F616791EC6969D8E33D6E603931766
:101F60000701C183B3F6E6033385CE02139706015A
:101F70005D8F637BA70046979307F6FF636817138F
:101F80006376A7127916469793150E01098FD18DA6
:101F90004DB5B357E600B396C601DD8E33D3E500E9
:101FA00013DF0601B357E303939E060193DE0E0190
:101FB0003398C5013357E50033680701935808018A
:101FC0003316C6013373E303B385FE024203B368DD
:101FD000130163FBB800B6981387F7FF63EAD80CC8
:101FE00063F8B80CF917B698B388B84033D7E8034C
:101FF000420813580801B3F8E8033383EE02C2081D
:10200000B3E5080163FB6500B6951308F7FF63EDC0
:10201000D50863FB65087917B695C207416FD98F5C
:102020001307FFFFB3F6E70093D80701718F4182D2
:10203000B38EE602B3856540B386C60213D80E019F
:102040003387E802BA96C2963386C80263F3E60085
:102050007A9693D80601469663E2C5026385C50069
:102060003E858145828041677D17F98EC206B3FEA9
:10207000EE003315C501F696E374D5FE1385F7FF20
:102080008145828013D70601414839BD9356060128
:10209000C147D1B193D60801C14785BB81450545EC
:1020A00082803687014809B5428785BF3E86E9BDF3
:1020B000BA871DBF328E4DB579154698E5B97915A9
:1020C000C69761BBB68732882A832E872E8E63918E
:1020D000061463F0C50A41676376E61A1307F00F2A
:1020E000B2866375C70093568600A1471737000074
:1020F0001307C7BC3697182393080002BA97B38812
:10210000F840638C0800B3951501B357F5003318F8
:10211000160133EEB7003313150113560801B357F8
:10212000CE0213150801418193560301337ECE027E
:10213000B307F502420E3367DE006378F70042977B
:10214000636507016373F70042971D8FB356C7029B
:1021500093170301C1833377C7023305D5024207C2
:10216000D98F63EBA7083385A74033551501814507
:10217000828001E605473358C7024167636BE80E6A
:10218000B70700016364F82A93568801E1471737BF
:1021900000001307A7B23697182393080002BA97D6
:1021A000B388F840639A081E131E0801B3850541E1
:1021B00013560801135E0E0113570301B3D6C5026F
:1021C000B3F5C502B386C603C2054D8F6377D7004A
:1021D000429763640701636AD726158F3355C70298
:1021E0004203135303013377C7023305C503420784
:1021F000B367670063F8A700C29763E5070163F35D
:10220000A700C2973385A7403355150181458280C9
:102210002A88E3EFD5F4C16763E5F604B707000148
:1022200063E2F62013D38601E148973700009387D5
:10223000E7A89A9703CE070013030002469E3303D4
:10224000C3416319030463E4B6006369C50033083E
:10225000C540958D333705013387E5404285BA8502
:1022600082809307F00F63FBD71C13D38600A1482D
:102270006DBF1307F00FC286E37B07F1935688000A
:10228000A14731B7B70700016366F61A9356860176
:10229000E147A9BDB357C601B3966600DD8EB3D83A
:1022A000C50113D70601B3DEE802139F0601B35739
:1022B000C501135F0F01B3956500DD8D13D80501CE
:1022C0003316660033156500B3F8E802B307DF0381
:1022D000C20833E80801637BF80036989388FEFF54
:1022E0006363D8166371F816F91E36983308F84000
:1022F000B357E802C205C1813378E802330FFF0209
:10230000131708014D8F637BE70136979385F7FF1D
:102310006369D7126377E713F9173697C20EC16264
:10232000B3EEFE001388F2FFB3F80E0193550601D9
:1023300093DE0E0133780601B38F08033307E741BC
:1023400033880E0393D70F01B388B802C298C6979B
:10235000B38EBE0263F30701969E41687D1893D544
:102360000701B3F70701C207B3FF0F01F695FE9708
:102370006362B70A630EB708B307F5403335F5005B
:10238000B305B740898D339EC50133D567003365EA
:10239000AE00B3D5650082803318180133D7F5003D
:1023A00013560801B356C702131E0801B357F500B0
:1023B000135E0E01B3951501DD8D93DE0501331318
:1023C00015013377C702B307DE0293160701B3E6A0
:1023D000D60163F8F600C29663E5060163F3F600E2
:1023E000C2969D8E33D7C60293970501C183B3F67B
:1023F000C6023307EE0293950601DD8D63F8E50012
:10240000C29563E5050163F3E500C295998D6DB34F
:10241000E374F5F63386C740B3B7C700B6979D8D12
:10242000B28799BF13D30601C14801B5935608017D
:10243000C147B1BB93560601C1474DB936838148A8
:10244000EDB3AE87E1BDC68E55B5429779B3370877
:10245000100001117D183377B80026CA3378D800F0
:1024600093D4450113D34601131E37004EC61357AC
:10247000D5010E089357D60193F4F47F1373F37FBD
:1024800006CE22CC4AC893D9F50193DEF601336714
:10249000C701131F350033E80701931F3600338E41
:1024A00064406380D9196356C0136304031CB706E4
:1024B00080009307F07F3368D800638FF43693076A
:1024C000800363C0C735FD4763CDC74713050002CE
:1024D0003305C541B3D7CF01B316A8003399AF0078
:1024E000DD8E33392001B357C80133E926011D8F32
:1024F00033092F41B3372F013306F7409317860076
:1025000063D40724370780007D173374E600630C1B
:10251000042C2285EF202053130785FF9307000228
:10252000998FB357F9003316E400D18F3319E900BE
:102530006341972A33059740130615007D47634D85
:10254000C73813070002118FB356C9003319E900C9
:102550003397E700558F333920013369270133D68C
:10256000C70081449377790081CF1377F9009147B1
:102570006308F70013074900333927014A963A895F
:102580009317860063D6071C138514009307F07F0A
:10259000CE856304F520B70780FFFD17F18F939870
:1025A000D70113593900A607B3E82801B183137581
:1025B000F57F9396C7005205F2406244B182FE0552
:1025C000C98ECD8ED2444249B2494685B685056151
:1025D0008280631E0E0A138314001373E37F631754
:1025E0000322B367E701B368F801639D041A6387A8
:1025F0000740638608443309FF41B3070741333678
:102600002F013386C7409317860063D6074C338962
:10261000EF41B307E84033B62F013386C740F68950
:1026200091B76350C00F6300030CB7068000930797
:10263000F07F3368D800638AF43A9307800363CB52
:10264000C713FD4763DFC73513090EFE930700026A
:10265000B3562801630AFE00130900043309C94177
:1026600033192801B3EF2F013339F0013369D90051
:1026700031A2B367F801638A071C9307FEFF638CDE
:1026800007389306F07F6309DE1A3E8E0DBDB30551
:10269000934063910422B367E7016387073293870E
:1026A000F5FF638107449306F07F638CD520BE85D8
:1026B0009307800363CCB72AFD4763CFB73C9307EA
:1026C00000028D8F3319F700B356BF00B317FF0018
:1026D0003369D900B337F0003357B7003369F900D5
:1026E0003308E84041ACB367F801638007349307CF
:1026F000FEFF638A07209306F07F6308DE2E3E8E7E
:102700002DBF631E0E149386140093F7E67F63912A
:102710000734B367E7016395042C6380073EB36712
:10272000F801638E07303309FF01B3070701333F18
:10273000E9013386E7019317860063D70700B707DF
:1027400080FFFD177D8E854493777900E39F07E036
:102750009317D60193583900B3E8F8009357360021
:102760001307F07F638DE404B207B18313F5F47FA0
:10277000CE8581B53369F801333920017A99B337B1
:10278000E9013386E70093178600E3DF07FA850443
:102790009307F07F6396F418CE851305F07F814789
:1027A000814801BDC1EB6384083A93163600931744
:1027B000D8018D82B3E8D700F68993573800B3E784
:1027C000F800F9DB81451305F07FB7070800814861
:1027D000CDB3370680FF7D167D8E93777900998C77
:1027E000E39507D8B5B74A85EF20E02513078501A3
:1027F000FD47E3D5E7D2130685FFB317C9000149AA
:1028000005BB3369F80133392001DDB13309FF41DC
:102810003306074133342F01330486409317840075
:1028200063CD0724B3688900E39308CE81478149CB
:1028300081441DBFE39808F80E059317D7010D8159
:10284000B3E8A700935737009DBF0E059317D70134
:102850000D81B3E8A700F2849357370011B7330511
:10286000934063820412B70680009307F07F558F70
:10287000630DF32E9307800363CBA720FD4763C34B
:10288000A72A93070002898F3319F700B356AF00C8
:10289000B317FF003369D900B337F0003357A700EF
:1028A0003369F9003A987E99B337F9013386070105
:1028B0009A84D1BDB70680009307F07F558FE31946
:1028C000F3DE931736008D839318D801B3E8170110
:1028D000F68993573800E5B5130715FE93060002F5
:1028E00033D7E700630AD600930600043386C64058
:1028F0003396C7003369C900333920013369E900D1
:102900000146814491B53309FF01B307070133360E
:10291000E9013E96931786008544E3D707E2894490
:10292000B70780FFFD17F18F1357190013791900AE
:10293000336927019398F70133E9280113D617006B
:1029400015B113090EFE93070002B3562801630A5E
:10295000FE00130900043309C94133192801B3EFFC
:102960002F013339F0013369D90059B63369E701D2
:102970003339200133892F41B3B72F013306F84093
:102980009A84F689A5BEB367E701638207189307A7
:10299000F5FF6384071C9306F07F6304D5123E8520
:1029A000D1BD93070002B387C741B316F80033992E
:1029B000FF0033D6CF01D18E33392001B357C80180
:1029C00033E926013E975DBB931736008D8393183C
:1029D000D801B3E81701AE8493573800F68949B39C
:1029E000EDC33369F801E31F09DC0E059317D70126
:1029F0000D81B368F50093573700D1B36381080E9A
:102A0000931636009317D8018D82B3E8D700F68964
:102A10009357380091BB3309FF41B3070741333F58
:102A20002F013386E7418544D1BC0E059317D701AA
:102A30000D81B368F500F2849357370015B30E0586
:102A40009317D7010D81B3E8A7009357370029BB2F
:102A50009307F07FE382F6D43309FF013336E901AF
:102A6000B3070701B2979398F7011359190033E997
:102A7000280113D61700B684C1B93389EF41330753
:102A8000E84033B62F013304C740F68949B43369AF
:102A9000E7013339200101BD938705FE930600024B
:102AA000B357F700638AD50093060004B385B64098
:102AB0003317B700336FEF003339E0013369F900A2
:102AC00055BD931736008D839318D801B3E81701CD
:102AD00093573800EDB1B368C900E39708C6814742
:102AE000814959B13389EF41B307E84033B62F012B
:102AF0003386C740F689854411B493163600931780
:102B0000D8018D82B3E8D70093573800B1B9931636
:102B100036009317D8018D82B3E8D700AA84935763
:102B200038003DB9930705FE93060002B357F7003E
:102B3000630AD500930600043385A6403317A70027
:102B4000336FEF003339E0013369F900A9BB8145E8
:102B50001305F07FB7070800A9BC3309FF01B307CD
:102B600007013336F9013E9675B393163600931775
:102B7000D8018D82B3E8D7009357380089B13971F5
:102B800093D7450122DC4AD856D22A891394C5002E
:102B900006DE26DA4ED652D45AD05ECE13F5F77F33
:102BA000318093DAF501630B05109307F07F630B17
:102BB000F514135AD9010E0433648A00370A8000D1
:102BC000336A4401131B3900930415C00144814B3F
:102BD00013D846011399C6001378F87FB2881359A9
:102BE000C90093D9F601630E08089307F07F6300CC
:102BF000F8041357D6010E0933692701130818C0CA
:102C0000B70780003367F90093183600B384044196
:102C10008145BD4733C83A0163E4871A972700000E
:102C20009387C7FD0A043E9410403E9602863367A0
:102C3000C900938414806312071013642400814830
:102C40008945C1BF1306F07F81470147B207F250A3
:102C500062545206B1837E08D18FB3E70701D25484
:102C60004259B259225A925A025BF24B3A85BE85BA
:102C70002161828001481306F07FB70708000147F1
:102C8000F1B73367C9004DC7630809304A8532C4BC
:102C9000EF10705B2246130755FFF547930685FF3B
:102CA000998F3319D900B357F60033E72701B318CA
:102CB000D60026959304353F8145A1BF336A240190
:102CC00063030A0636C632C46306042A2285EF105F
:102CD00090572246B246AA84130755FF754A138BB4
:102CE00084FF330AEA4033146401335A4901336ADA
:102CF0008A00331B69011305D0C0B3049540014419
:102D0000814BF9B5336A240163180A002144014B51
:102D10009304F07F894B6DBD228A4A8B3144930422
:102D2000F07F8D4B75B51144014B8144854B4DB5FA
:102D30001364140081488545E9BD136434004A8753
:102D40008D45C1BD630A052E8547898F9306800393
:102D500063DDF632014681470147CDBDCE86894706
:102D6000638DF53A8D47E387F5F085473688E38331
:102D7000F5FE1385F43FE357A0FC93F778006396C4
:102D8000072893D638009317770063D80700B70752
:102D900000FFFD177D8F138504409307E07FE3C399
:102DA000A7EA1316D70193179700B1833367D600AC
:102DB0001376F57F61BDD6865287DA88DE8545B702
:102DC00063614723630DEA20DA86FD145284014BC8
:102DD0009317870013D388013363F300935E0301D5
:102DE000B357D403131F0301135F0F0193D50601DB
:102DF000139E88003374D4033307FF024204C18D4D
:102E000063FBE5009A951386F7FF63EE652663FC86
:102E1000E526F9179A95998D33D7D503C206C18255
:102E2000B3F5D5033306EF02C205D58D63FBC500AC
:102E30009A959306F7FF63E6652463F4C524791732
:102E40009A95C20741645D8F9307F4FF3375F700CD
:102E500093580701935F0E01B377FE00B302F502AA
:102E6000B386C540B383F80293D502013386AF021F
:102E70001E962E963385F803637376002295C168FB
:102E8000FD1893550601337616014206B3F8120178
:102E9000AA95469663E6B6126382B6123306CB4015
:102EA0008D8E333BCB00338B66411385F43F630C2F
:102EB0006317B358DB0393550601337BDB03B3067B
:102EC0001F03420B33EB6501637BDB001A9B938589
:102ED000F8FF636D6B20637BDB20F9181A9B330BC3
:102EE000DB40B356DB0342064182337BDB03330F07
:102EF000DF02420B33666601637BE6011A96938517
:102F0000F6FF6367661E6375E61FF9161A96C20818
:102F1000B3E8D8009395080193D20801C181B38E1C
:102F2000F5023306E641B385BF0293D60E01B3879F
:102F3000F202BE95AE96B38F5F0263F4F600C167EE
:102F4000BE9FC165FD1593D70601ED8EC206B3FE87
:102F5000BE00BE9FF696637FF6091A969387F8FF28
:102F60006369661A6368F619630FF61BBE8893E8F7
:102F7000180011B54A85EF10102D13075501F145C2
:102F8000930405022246B246E3DAE5D4130485FF32
:102F9000331A8900014B85B3328532C4EF10B02A51
:102FA00013075501F146AA87224613050502E3D609
:102FB000E6CEE1173317F6008148E5B9E370CBEEB2
:102FC000729B3335CB011A95AA961305F7FF6378E8
:102FD000D30263E6B6106382D5102A87C1B5E365D4
:102FE0001BDF93551B009316FA0113541A00CD8E64
:102FF0007E0BF9BBE31DF6F7E38F06D6B9BFE31EE0
:10300000D3FCE378CBFD2A8751BD93F7F8009146B6
:10301000E389D7D693B7C8FF9386480093C71700B4
:103020008D823E978DB381468547E34CA0FEFD58C7
:10303000E31C05D0930410C085471385E441B31603
:10304000A70033D6F8003395A800D18E3335A00001
:10305000C98E13F676003357F70001CE93F7F600CA
:1030600011466388C70093874600B3B6D7003697EA
:10307000BE869317870063D807040546814701473A
:10308000F1B636877DBBB28779B3FD46E3D7F6FA52
:103090000556098E930600023356C7006388D70091
:1030A0009387E443B317F700B3E8F800B336100191
:1030B000D18E13F67600814701CE93F7F6001146C4
:1030C0000147E392C7FA931797001316D701B1830C
:1030D00013D73600518F014695BEE370CBF0729B3B
:1030E0003335CB011A957917AA964DBBAE88C5BB6F
:1030F000AE8631BD93171E0033BEC70172931A9678
:10310000F9183E8EE315F6E7E307DEC693E81800EC
:103110009DB1BE88E30AF6FF99BD36881306F07F9D
:103120008147014725B6E367DEFCBE88E310DEFE7B
:1031300099B113D74501B7071000FD1713D8460101
:103140001377F77F9308F07F33F3B7002A8EF58F5C
:10315000FD81B28E1378F87FFD8263081703630048
:1031600018030DEBB368A300631408005D8E29CA31
:10317000638508046388D502054595ED8280B3E830
:10318000C700E38008FE795582803365A30065FDA2
:10319000630CE802631408005D8E79DEE39ED5FCC3
:1031A000E34CE8FC63480701E3E867FC6303F302D0
:1031B000637FF30081E57D558280F5DE05458280E1
:1031C0000145E39B08FA82805D8E69DA6DBF014597
:1031D0008280E3E3CEFB0145E372DEFBE5F1E1BF74
:1031E00013D74501B7071000FD1713D84601137711
:1031F000F77F9308F07F33FEB700AA8EF58FFD812D
:10320000328F1378F87FFD82630E1703630D180168
:1032100029E3B368AE00631F08005D8E01EE014331
:10322000638C080421A8B3E8C70009436396080427
:103230006DD305A0638408046385D50205438DCD55
:103240007D531DA8B368AE00094363970802630A63
:10325000E802631408005D8E75D2E391D5FEE34F5A
:10326000E8FC63490701E3EBC7FD630FFE00014380
:103270006374FE00F1D505431A858280EDFE7D530F
:10328000E5BF5D8E79DACDBFE36ADFFB0143E3F58D
:10329000EEFFF5F175B739714AD813D945014ED60D
:1032A00052D456D29399C50006DE22DC26DA5AD0D3
:1032B0005ECE1379F97F2A8A93D9C90093DAF50192
:1032C000630D090E9307F07F6306F9181354D501B7
:1032D0008E09B36934013704800033E48900931404
:1032E0003500130919C08149814B13D74601139A40
:1032F000C6001377F77FB285135ACA0013DBF601B5
:10330000630B07109307F07F6303F7049357D6010D
:103310000E0A33EA4701130717C0B7078000B367E7
:10332000FA00931536003A99814833C76A01BD46C1
:103330003A851308190063E83617172600001306AC
:10334000E68F8A09B29983A60900B2968286B3678E
:10335000CA001309F97F6399071293E9290081458F
:103360008948E1B701479307F07F3704080081449B
:103370003204D20731807E075D8C598CA285F250D1
:10338000625426854259D254B259225A925A025B4B
:10339000F24B216182805A853E84AE84C68B894778
:1033A000638DFB0E8D47E38FFBFA85472A87639E6B
:1033B000FB3881470144814465BF33E4A90061C003
:1033C00036C632C4638C092A4E85EF10C067224688
:1033D000B246AA87130755FF7544938487FF198C5B
:1033E000B399990033548A0033643401B3149A00BA
:1033F00013D746011309D0C0139AC6001377F77F7D
:103400003309F9408149814BB285135ACA0013DB55
:10341000F601E31907EEB367CA00B1C7630F0A22CA
:10342000528532C4EF10206222462A87930655FF48
:10343000F547930587FF958F331ABA00B357F60007
:10344000B3E74701B315B6003309E9401309D9C002
:103450008148E1BD33E4A90001ECA149814413098D
:10346000F07F894B59B593E919008145854875BDB1
:103470004E84AA84B1491309F07F8D4BBDB59149A3
:1034800081440149854B95B593E93900D2878D4830
:1034900069BD89475685E397FBF02A879307F07F3C
:1034A00001448144F1B5C16E1386FEFF93D6040139
:1034B00013DE0501F18CF18D338695023383B6025C
:1034C0009358060133059E021A95AA98B382C60343
:1034D00063F36800F692C16F1383FFFF33F5670053
:1034E00093D30701B3F76800C207337366003E93B6
:1034F0003306950293D80801B387A602135F06012D
:10350000B3849302BE94FA94B38E760263F3F4000C
:10351000FE9E416A9307FAFF935F0401B376F400BD
:10352000B3F9F4007D8EC1803384D502C209338F94
:10353000D401B299CE98B307DE02935E0401B3853D
:10354000BF02AE97BE9E330EFE0363F3BE00529ED3
:10355000C1679385F7FF33F6BE006D8C4206229655
:1035600093DE0E01B305D502769E3385AF0213D4E8
:103570000501B386D302AA96A296B38FF30363F331
:10358000A600BE9F41657D15B3F7A600C2076D8DED
:10359000AA97B3855800B3B93501FA97B295338429
:1035A000370133B6C500B30EC4013385CE003334C2
:1035B0003401B3B7E701C18F33BECE0113D4060186
:1035C0003336C5003E943366CE0093949500329412
:1035D0007E94B3E46400260493567501B3349000DE
:1035E000DD8193179500CD8C558CDD8C931774007D
:1035F00063DB070093D7140085889316F401DD8CF4
:10360000D58C058042899307F93F6359F00893F6FA
:10361000740081CE93F6F40011466388C600938649
:103620004400B3B496002694B6849316740063D80D
:103630000600B70700FFFD177D8C9307094093062E
:10364000E07F63CFF60E93D634009314D4012604A2
:10365000D58C318093F7F77F21BB328532C4EF10D0
:10366000803E93065501F147130705022246E3D138
:10367000D7DC6115B317A6008145F9B3EF10A03C64
:1036800013075501F145930705022246B246E3D5DB
:10369000E5D461153314AA00814499BB85469D8EFB
:1036A000B1E71309E941B3972401B3D4D400331926
:1036B0002401B337F000B3649900DD8C93F77400F4
:1036C000B356D40081CF93F7F40011466388C70046
:1036D00093874400B3B49700A696BE849397860060
:1036E00063D8070485470144814459B11306800318
:1036F000E341D6CC7D46E356D6FA0556B307F640ED
:10370000930500023356F4006387B6001309E943BA
:10371000B3172401DD8CB3349000D18C93F6740080
:10372000014499CA93F7F40011468146E392C7FA1F
:10373000139496003180F6068D80D58C81470DB9A3
:103740009307F07F0144814425B142896DBD37075D
:1037500010007D1701113373B70093D84601758FA0
:10376000935ED60122CC26CA0E0393D4450193570B
:10377000D5010E0706CE4AC84EC693F8F87F130E41
:10378000F07F33E7EE0093F4F47F13D4F50133E3D5
:103790006700131F3500FD82931E36006380C81931
:1037A00093C61600B38514416305D4126351B01853
:1037B000638B081AB70780005D8F6381C459930734
:1037C000800363C4B734FD4763C5B748930700025D
:1037D0008D8FB3D9BE003318F700B39EFE00336857
:1037E00038013357B700B339D00133683801330398
:1037F000E340B3090F41B3373F013306F34093175A
:10380000860063D30724370980007D1933792601A8
:10381000630F092C4A85EF100023130785FF9307D8
:103820000002998FB3D7F9003316E900D18FB3990D
:10383000E9006344972A058F13061700FD4663C508
:10384000C63A13070002118FB3D6C9003398E900B6
:103850003397E700558F33380001B369070133D63A
:10386000C700814493F7790081CF93F6F90091471F
:103870006388F6009386490033B836014296B689CC
:103880009317860063D6071C138714009307F07FF5
:1038900005886306F720B70780FFFD17F18F13989F
:1038A000D70193D93900A60733683801B18313775C
:1038B000F77F9396C7005207B1827E04D98EC18EDE
:1038C000F2406244D2444249B2494285B68505611C
:1038D00082806356B00A638A0812B70780005D8F42
:1038E0006387C42D9307800363C7B718FD4763D26E
:1038F000B73C138805FE93070002B3590701638A9A
:10390000F50093070004B385B7403317B700B3EE53
:10391000EE003338D0013368380195A2B367D70180
:103920009385148099E393C61600630AD404D1E109
:103930009387140093F7E77F6399071EB367E3014A
:103940003368D701639204166382073C631608420A
:10395000131835009316D3011358380033E80601C5
:103960009357330019A2B367D7016385071A93876A
:10397000F5FF638B073A638CC523BE8589B56399D0
:10398000051C9386140093F7E67FC1EFB367E3014C
:1039900063900436638D0744B367D7016394074689
:1039A0000E051318D3010D813368A8009357330017
:1039B0006DA8B385984063970420B367E301638DD6
:1039C00007309387F5FF638907401305F07F638312
:1039D000A520BE859307800363C2B72AFD4763C84D
:1039E000B73C930700028D8F3318F3003356BF00A6
:1039F000B317FF003368C800B339F0003353B30086
:103A00003368380133076740B5ACB367D7016383C8
:103A100007109387F5FF638F071E6380C52FBE8550
:103A2000D1B59307F07F638BF606FA9E33B6EE01AD
:103A3000B307E300B2971398F70193DE1E00B36952
:103A4000D80113D61700B68493F77900E39F07E0F7
:103A50009317D60113D839003368F800A685935719
:103A600036001307F07F6380E506B207B18313F7D2
:103A7000F57F05883DBD3367D7013338E000B309D2
:103A8000E801B3B7E9013386670093178600E3DDE9
:103A900007FA85049307F07F639CF41805881307E1
:103AA000F07F8147014831B5639107106301083CFD
:103AB000131836009317D701135838003368F800ED
:103AC000368493573700B367F800E9DB01441307E6
:103AD000F07FB70708000148E9BB370680FF7D1675
:103AE0007D8E93F77900998CE39107D895B74E8531
:103AF000EF00707513078501FD47E3D2E7D2130687
:103B000085FFB397C90081492DB33368D701333896
:103B10000001C5B1131835009317D30113583800AD
:103B20003368F800935733002DBFB309DF413309E1
:103B3000E34033363F013309C9409317890063CA14
:103B4000072033E82901E31508CC8147014431BF40
:103B5000B385984063810414B70680009307F07F13
:103B60003363D3006381F8209307800363CCB722CB
:103B7000FD4763C9B72C930700028D8F3318F300FC
:103B8000B356BF00B317FF003368D800B339F00055
:103B90003353B300336838011A97B309D801B3B768
:103BA000D9013386E700C684CDB5E31108F21318B6
:103BB00035009317D301135838003368F800935732
:103BC000330011B7370580009307F07F3363A300FC
:103BD000E392F8E00E061318D7010D823368C8008F
:103BE000935737003684C5B505179306000233D7BF
:103BF000E700630AD600930600043386C640339676
:103C0000C700B3E9C90033383001B369E8000146A1
:103C100081441DBDB309DF01B307E30033BFE901F0
:103C20003386E701931786008544E3DF07E0894484
:103C3000B70780FFFD17F18F13D7190013F819008C
:103C4000336807019399F701B3E9090113D6170007
:103C500011B9138805FE93070002B3590701638A5F
:103C6000F50093070004B385B7403317B700B3EEF0
:103C7000EE003338D00133683801A5BE3363E30169
:103C800033386000B3890E41B3B73E013306F740C5
:103C9000C6843684ADB6B367E3016387071893879C
:103CA000F5FF638C071C9306F07F638ED50ABE85F3
:103CB00065BD930700028D8FB3D9BE003318F7009E
:103CC000B39EFE00336838013357B700B339D001D3
:103CD000336838013A9365B3131836009317D70148
:103CE0001358380033E8070136849357370095BBE3
:103CF000BDCB3367D701E31B07DC0E051318D301D7
:103D00000D813368A8009357330075BBE30F08E2B9
:103D1000131836009317D701135838003368F8008A
:103D200036849357370091B3B309DF41B307E340BB
:103D3000333F3F013386E7418544D1B41318350042
:103D40009316D3011358380033E806019357330014
:103D50009DBBB389EE413306674033B93E01330959
:103D60002641368475B40E061318D7010D823368C8
:103D7000C8009357370081BBB309DF41B307E34065
:103D800033363F013386C7409317860063D7070A4F
:103D9000B389EE41B3076740B3BE3E013386D741D6
:103DA0003684C9B43363E30133386000FDB313884C
:103DB00005FE93070002B3590301638AF5009307D8
:103DC0000004B385B7403313B300336F6F0033384B
:103DD000E001336838017DB5B389EE41B307674030
:103DE000B3BE3E013386D7413684854409BC1318DF
:103DF00036009317D701135838003368F8009357EB
:103E00003700A5B1B309DF01B307E30033BFE90110
:103E10003386E70193178600E3D807C2B70780FF10
:103E2000FD177D8E85440DB10E061318D7010D8246
:103E30003368C800935737002DB133E8C900E30653
:103E400008D019B1138805FE93070002B359030186
:103E5000638AF50093070004B385B7403313B300BA
:103E6000336F6F003338E001336838013DB30144EC
:103E70001307F07FB70708002DBCB309DF01B307B4
:103E8000E300B3BED9013386D70169BB411106C631
:103E900022C426C20DCD9357F541B3C4A7009D8C13
:103EA0002A842685EF00303A9306E041898EA9479F
:103EB0007D8093F6F67F63CDA7022D47098FB3D798
:103EC000E4005505B207B394A400B18329A00144CE
:103ED000814681478144B207D206B1837E04D58FE3
:103EE000C18FB24022442685BE8592444101828022
:103EF0005515B397A400B207B1838144E9BF3707D2
:103F0000100093D745019306F7FF93F7F77F130847
:103F1000E03FED8E13D6F5016353F8029305D043CD
:103F200063D2F5028545918D3305B04013D6F54136
:103F3000B7050080B337A000918D9D8D828001452B
:103F40008145828013082043B3E5E6006354F802FC
:103F50001387D7BA9387D7BC63450704B315E50029
:103F6000014565D23305A040B337A000B305B0408A
:103F70009D8D8280930630439D8E7D47634CD70094
:103F80001387D7BE3397E5003355D500598DB3D588
:103F9000D500C1BF130530411D8D33D5A500814526
:103FA000C9B7FD46135715009D8E3357D700B395FB
:103FB000F500D98D3315F5006DB7011106CE22CC71
:103FC00026CA4AC84EC6B367B5009DCFAE84AA893B
:103FD00013D9F50163CE05042684ADC42685EF0010
:103FE00090269306E043898E9307304363CAD7082F
:103FF0009397C4002D464E8793F6F67FB18363599D
:10400000A600130655FFB9A801498146814701471B
:10401000B207F2406244D206B1837E09D58FB3E77E
:104020002701D2444249B2493A85BE850561828062
:104030003305A040B336A000B304B040958CAA89E4
:104040002684C9FC4E85EF0010202A869306E043A3
:1040500013050502898E9307A00293F6F67F63C7C6
:10406000A70C55061307B002098FB397C40033D7C6
:10407000E9005D8F9317C700B1833397C90049BF2B
:104080009307604363DBD7022147098F930507FE3F
:1040900063C2050CB3D5B40001471306850193072D
:1040A0008503634C06083396C9008149B3E9C9000A
:1040B00033363001B3E9C5003A84A1474E8663C95F
:1040C000A704B70780FFFD17937576003377F400D8
:1040D00085C59375F6001148638005039305460076
:1040E00033B6C5003297131687006351060893064E
:1040F000F0437D8F898E2E861355360093179700D7
:104100001316D7013367A600B18393F6F67F09B77C
:1041100093078002930585FF898FB3D7F900331782
:10412000B40033E4E7003396B90061BF5516B39786
:10413000C900B207B1830147E1BD7D4613D819001C
:104140001D8E3358C8003396F4003366C800B39907
:10415000F900A9BF7D46198E93971400B3D5E900E5
:10416000B397C700DD8D33D7E40005BF2E8669B74E
:104170004111370780007D1713D8750126C293546B
:1041800075013373A70093F4F40FB376B7004AC0F8
:104190001378F80F1359F50106C622C4FD819A87DA
:1041A00026854A86131E3300939E3600B388044149
:1041B000630AB90E6350100D630408149307F00FDF
:1041C000638BF414B7070004B3EEFE00ED4763C140
:1041D000172993070002B3871741B397FE00B3D89E
:1041E0001E01B337F000B3E7F800B307FE401397A2
:1041F0005700635E0718370400047D147D8C228508
:10420000EF0070046D15B317A4006348951A058D6F
:104210001304150013070002018F3397E7003337AB
:10422000E000B3D78700D98F814413F7770019C70F
:1042300013F7F70091466303D700910713975700D0
:10424000635B071485041307F00F4A866383E41643
:104250009A07A58313F5F40FB2402244A6079314DE
:10426000750113D59700458D7E0692440249518D04
:10427000410182806399080A138714001377E70FBE
:104280006317071463900422630D0E1EE3860EFC71
:10429000B307DE411397570063500722B387CE411F
:1042A0002E8961B7635C100B630E08089307F00F4B
:1042B0006383F406B7070004B3EEFE00ED4763C95D
:1042C000171F93070002B3871741B397FE00B3D8B7
:1042D0001E01B337F000B3E7F800F29713975700C9
:1042E0006357070A85041307F00F6384E40CB706CD
:1042F000007E13D71700FD16858B758FD98F35B7C4
:10430000638D0E08FD18B307DE41E38208EE9307C4
:10431000F00FE39DF4EA630D030801461305F00F67
:10432000B707400015BF33079840EDE863020E144D
:104330007D17630807189307F00F6319F80E2E898D
:104340003683D1BF638B0E04FD18B307DE01E3870C
:1043500008F89307F00FE393F4F675BF6395080828
:10436000850413F7E40F6313071263170510630F37
:104370000E14E3830EEEB307DE011397570081445A
:1043800063570700370700FC7D17F98F854413F743
:104390007700E31F07E813D337009307F00FE38C90
:1043A000F4F693179300A58313F5F40F4A866DB5C1
:1043B0004A861305F00F814745B5370700FC7D1786
:1043C000F98F13F77700898CE31407E6E9B7330414
:1043D000DE419317540063C3070CE31204E2014665
:1043E0000145814795BD33079840ADC49307F00F51
:1043F000E308F8F4B7070004336EFE00ED4763CC22
:10440000E70C93070002998FB317FE003357EE00B5
:10441000B337F000D98FF697C284C9B59307F00F70
:10442000E30FF8F0B7070004336EFE00ED4763C3F7
:10443000E70893060002998EB316DE00B357EE002C
:104440003337D000D98FB387FE40C2842E8945B35D
:10445000854761BB630E0E067D17B307DE01C2847C
:10446000E30E07E69307F00FE31AF8F8368365B515
:104470003683C2842E8915B7E3040EECE38D0EE873
:1044800069BD638D0E022E86B687F9B39307F00FD0
:10449000E381F4F2B307DE018583D5BD3384CE41D9
:1044A0002E89B1BBE31C0EFCE3890EE62E8949BDC3
:1044B000854725B5854741BFE39B07EC014681470A
:1044C00061BBB387CE41C2842E8915B3B68769B369
:1044D0003683C284D9B585473DBF797122D4135440
:1044E00075014ECE52CC9319950006D626D24AD0ED
:1044F00056CA5AC81374F40F93D99900135AF50188
:1045000069C49307F00F6308F40E939739003707D7
:104510000004B3E9E700130414F88144014B13D7F6
:104520007501939A95001377F70F93DA9A0013D9D0
:10453000F50145CF9307F00F630CF7028E0A1307BE
:1045400017F8B7070004B3EAFA003A940146334576
:104550002A01BD47AA869305140063E09710170748
:1045600000001307A7718A04BA949C40BA97828707
:104570001304F40F63960A0C93E424000946C1BFA8
:1045800001451307F00FB7074000B2502254A607A9
:104590005E07A5837E05D98F92540259F249624A7B
:1045A000D24A424B5D8D45618280CA86D689328B64
:1045B0008947630FFB088D47E304FBFC854736857D
:1045C0006310FB1A01478147C9B7639D090413D7DC
:1045D0007501939A95001377F70F91440144054BA9
:1045E00093DA9A0013D9F50131F7639D0A0093E439
:1045F00014000546A9BF63920902A1441304F00FF9
:10460000094B31BF568581219307B5FF098CB39AB9
:10461000FA001304A4F801461DBFB1441304F00FBF
:104620000D4BF5BD4E852EC639299307B5FF1304F2
:10463000A0F8B399F900098C8144014BB245C5B586
:1046400093E434000D4621B78947D286E315FBF683
:1046500036851307F00F81470DBF41639306F3FFC3
:1046600013D6090193D80A01B3F7D900B3FADA00D7
:1046700033885703B389F80213570801B30A560366
:10468000D6994E9733061603637357011A96C1677E
:10469000FD17B376F7003378F800C206C2969399F7
:1046A000660093570701B3393001E982B2979A0740
:1046B000B3E6D900B3E9D7009397490063D907005F
:1046C00013D7190093F71900B369F7002E84130765
:1046D000F4076350E00493F7790099C793F7F90062
:1046E00091466383D70091099397490063D90700E6
:1046F000B70700F8FD17B3F9F9001307040893078B
:10470000E00F63CBE70493976900A5831377F70F56
:10471000ADBD8547B386E74011C76D460147814768
:10472000E345D6E61307E4093397E9003337E000A1
:10473000B3D7D900D98F13F7770019C713F7F7004C
:1047400091466303D700910713975700634C070006
:104750009A07A583014715BD1307F00F814735B5AB
:104760002E84B5B7054781470DB5411106C622C451
:1047700026C20DCD9357F54133C4A7001D8CAA84E2
:104780002285D1249307E0093387A7409307600966
:10479000FD8063CCE702A1469377F70F63D5A600AF
:1047A00061153314A4002604258021A0814481478B
:1047B0000144260413559400B2402244DE07FE044F
:1047C0005D8D458D9244410182809307900963DDA0
:1047D000E7009307B5019546B317F400898E33546B
:1047E000D400B337F0005D8C954763D6A7009307DC
:1047F000B5FF3314F400B70600FCFD169377740080
:104800003376D40085C39377F4009145638CB70069
:1048100011069317560063D707009307F009758EAA
:104820003387A7401314660025809377F70F51B79D
:10483000135775011377F70F41119307170022C41F
:1048400026C21314950006C693F7E70F25809354EC
:10485000F50185C793573400130707387604B2076C
:104860005207B1831395F401D98FC98FB2402285C5
:1048700022449244BE854101828005EB39C42285E1
:10488000D922A94763C6A7042D47098F930755016D
:104890003357E4003314F4009317C700130790381C
:1048A000098FB1831377F77F5DBF01CC13573400B5
:1048B000B7070800D98FB2077604B1831307F07FDA
:1048C00079BF1307F07F814759BF0147814741BF37
:1048D000130755FF3317E40001447DBF93D645010C
:1048E0009397C50093F6F67FB183138616008E0763
:1048F0001357D5011376E67FFD815D8F9318350040
:1049000035CE138806C89307E00F63DD07018147A2
:10491000139597009306F00FDE062581FE05558D51
:104920004D8D82806355000B931765000E07B337DA
:10493000F000D98F93D8D801B3E7170113F77700A8
:104940006301071013F7F70091466303D70091073F
:10495000370700047D8F75C7130718001306F00F83
:104960009376F70FE305C7FA9A07A5831395970087
:10497000DE062581FE05558D4D8D8280B3671701BA
:1049800099EE85CF95479A07A5831395970093F6DF
:10499000F60FDE062581FE05558D4D8D8280A5DB47
:1049A000B7074000139597009306F00FDE06814588
:1049B0002581FE05558D4D8D828081471395970089
:1049C0008146DE062581FE05558D4D8D8280A557D9
:1049D0006348F804F94737068000B38707417D45EF
:1049E000598E6351F50479573307074113050002C7
:1049F0003357E6006388A700938626CAB316D6000D
:104A0000B3E8D800B3371001D98F13F77700014806
:104A100015FB139757008546E34807F48146A5B771
:104A200081468DB7938626C83397D8003337E00088
:104A3000B316D600B3D8F800B367D700B3E7F800D1
:104A4000E9B7C28689B7C167637CF5029307F00FA7
:104A50001307000263EBA700970700009387072660
:104A6000AA9788233305A7408280218197070000F9
:104A70009387C724AA97882361473305A74082807C
:104A8000B7070001636DF500618197070000938708
:104A9000E722AA97882321473305A74082804181D6
:104AA0009707000093878721AA97882341473305FA
:104AB000A740828025660D0A00000000000020410A
:104AC000000000380000FA440AD7233CA4707D3F60
:104AD00000000000FA21094000000000008066404C
:104AE000182D4454FB21F93F182D4454FB21094053
:104AF000182D4454FB2109C0000000000000008074
:104B0000182D4454FB21F9BFD221337F7CD90240B8
:104B1000D221337F7CD902C0182D4454FB21E93FB8
:104B2000182D4454FB21E9BF075C143326A6A13C91
:104B30009C7500883CE4377E000000000000F03FD8
:104B40000000000000000040000000000000F83FEE
:104B5000000000000000F0BF11DA22E33AAD903F00
:104B6000EB0D76244B7BA93F513DD0A0660DB13FA4
:104B70006E204CC5CD45B73FFF8300922449C23F0C
:104B80000D5555555555D53F2F6C6A2C44B4A2BFD1
:104B90009AFDDE522DDEAD3F6D9A74AFF2B0B33F99
:104BA000711623FEC671BC3FC4EB98999999C93F11
:104BB0004FBB610567ACDD3F182D4454FB21E93F35
:104BC0009BF681D20B73EF3F182D4454FB21F93F24
:104BD000E2652F227F2B7A3C075C143326A6813CAA
:104BE000BDCBF07A8807703C075C143326A6913C55
:104BF000286E756C6C290000C8E1FFFF4CE0FFFFD8
:104C00005CE1FFFF64E1FFFF5CE1FFFF7CE0FFFF91
:104C10005CE1FFFF64E1FFFF4CE0FFFF4CE0FFFFC2
:104C20007CE0FFFF64E1FFFFBEE1FFFFBEE1FFFFAD
:104C3000BEE1FFFF7CE0FFFF6EE8FFFF60E7FFFFE4
:104C400060E7FFFF5EE7FFFF66E7FFFF66E7FFFF46
:104C50002CE7FFFF5EE7FFFF66E7FFFF2CE7FFFFA4
:104C600066E7FFFF5EE7FFFF5AE8FFFF5AE8FFFF36
:104C70005AE8FFFF2CE7FFFFE2F9FFFF34F9FFFFDF
:104C800034F9FFFF32F9FFFF38F9FFFF38F9FFFF72
:104C900008F9FFFF32F9FFFF38F9FFFF08F9FFFFBE
:104CA00038F9FFFF32F9FFFFD0F9FFFFD0F9FFFF1E
:104CB000D0F9FFFF08F9FFFF00010202030303031D
:104CC000040404040404040405050505050505059C
:104CD000050505050505050506060606060606067C
:104CE0000606060606060606060606060606060664
:104CF000060606060606060607070707070707074C
:104D00000707070707070707070707070707070733
:104D10000707070707070707070707070707070723
:104D20000707070707070707070707070707070713
:104D300007070707070707070808080808080808FB
:104D400008080808080808080808080808080808E3
:104D500008080808080808080808080808080808D3
:104D600008080808080808080808080808080808C3
:104D700008080808080808080808080808080808B3
:104D800008080808080808080808080808080808A3
:104D90000808080808080808080808080808080893
:104DA0000808080808080808080808080808080883
:084DB0000808080808080808BB
:104DB80000000000000000000102030406070809C3
:104DC80000000000010203040102030406070809A9
:084DD8000044950802040608DE
:00000001FF
