:040000006F008065A8
:1000040000000000000000002002000022020000A6
:100014000000000056060000000000000000000080
:100024005606000056060000000000000000000014
:100034005606000000000000560600000000000004
:10004400560600005606000056060000560600003C
:10005400560600005606000056060000560600002C
:10006400560600005606000056060000560600001C
:10007400560600005606000056060000560600000C
:1000840056060000560600005606000056060000FC
:1000940056060000560600005606000056060000EC
:1000A40056060000560600005606000056060000DC
:1000B400560600009802000056060000560600008E
:1000C40056060000560600005606000056060000BC
:1000D40056060000560600005606000056060000AC
:1000E400560600005606000056060000560600009C
:1000F400560600005606000056060000560600008C
:1001040000000000560600005606000056060000D7
:10011400560600005606000056060000560600006B
:10012400560600005606000056060000560600005B
:10013400560600005606000056060000560600004B
:10014400560600005606000056060000560600003B
:10015400560600005606000056060000560600002B
:10016400560600005606000056060000560600001B
:10017400560600005606000056060000560600000B
:1001840056060000560600005606000056060000FB
:1001940056060000560600005606000056060000EB
:1001A400000000000000000000000000000000004B
:0C01B4000000000000000000000000003F
:1001C000397101436EC619A0397141536AC866CAB4
:1001D00062CC5ECE19A0397101535AD056D252D496
:1001E0004ED64AD826DA22DC06DE3301614082820E
:1001F00041114AC026C222C406C68282B24D4101C4
:10020000024D924C224CB24B4101024B924A224A7F
:10021000B2494101024992442244B24041018280E4
:1002200001A0B707EFBE37E700E0938707083CC798
:1002300001A0EFF2FFFB09455923CD2CEF10803CC4
:10024000716513050520EF10E041EF00106AEF1013
:10025000200E01469305800C0145EF10401D054618
:100260009305800C0545EF10801C37140140EF10FA
:1002700080328945130504802D23B707002023848D
:10028000A70AA14513050480292BB7070020A384E2
:10029000A70AEF007072F5BF011126CCB704004029
:1002A00085451385044022CE4ACA4EC852C656C45C
:1002B0005AC25EC0EF0090366306051A13870181AB
:1002C0001E231386218116228507C2078506C18356
:1002D00016A21EA3A9461384218163FDF60A854553
:1002E0001385044023100700EF00D034EF00D06CDA
:1002F00083A74184370500209304050213050502F6
:10030000DCC0EF00D0798844EF30106142054185B0
:10031000239CA180EF30202A2A8A03950182AE8A8D
:10032000EF306029B747000003A6074283A6474283
:10033000EF2080622A86AE862A8BAE8B5285D685C8
:10034000EF107008EF30A02013190501135909416F
:100350005A8623942183DE865285D685EF20502B42
:10036000EF30E01E931509012395A182C18101465A
:100370006353090005460145EF10600B8397A18286
:10038000014693950701C18163D3070005460545E2
:10039000EF10E0091A209307200363F5E70C0545E9
:1003A00023100400EF00F034EF30E0203749000064
:1003B000032689428326C94237440000EF10B073F8
:1003C0000326044383264443EF10F072EF30506756
:1003D00023A6A1820545EF00D031EF30C01D0326D2
:1003E00089428326C942EF101071032604438326F5
:1003F0004443EF105070EF30B06403A9018323A68B
:10040000A1822A84CA85EF302022B747000083A545
:100410008741EF30E06ECA8523AEA180AA8922858C
:10042000EF301017370400201309C40423A2A1825F
:100430001305C40423223901EF0070668327890065
:10044000370500202326F40483A74182130485077F
:10045000130585075CC0EF0090640844EF30D04B73
:100460002390A1827244E2445249C249324AA24ACC
:10047000124B824B056173002030B717024098433E
:10048000B706FFF01367170098C3D843758FD8C31A
:100490009843B706F7FEFD16758F98C39843B706C5
:1004A000FCFFFD16758F98C3D843B70601FFFD16F4
:1004B000758FD8C39843B70600ECFD16758F98C3A7
:1004C0003707FF0098C723A60702B746024003A7D5
:1004D00006801367070123A0E680D843B706C1FF53
:1004E000FD16D8C3D843D8C3D84313670740D8C331
:1004F000D843758FD8C3D843B7060001D8C39843F3
:10050000558F98C3984393166700E3DD06FED843E2
:10051000B7160240719BD8C3D84313672700D8C3CE
:100520002147DC42B18BE39EE7FE8280B716024092
:10053000D8421146318B938741806305C70021461D
:100540006308C70237177A001307072098C33717C5
:100550000240584311839376F700370700201307B2
:1005600007003697142398433357D70098C38280E7
:10057000D842D442416649833D8BF18E1306270051
:1005800015CF3D47630FE6024147630FE60245473B
:1005900081456313E6004146A1E237470240032745
:1005A0000780418B0DC737177A00130707203306E2
:1005B000C70290C3C9DD9843058349BF81454946B9
:1005C000E1BF85453546C9BF81453D46F1B737177F
:1005D0003D0013070790E1BF3715024058559316A9
:1005E000F700585563DF060411833D8B930617000F
:1005F00037177A00130707203357D70298C354558B
:10060000A182BD8A8DE295463307D702058398C340
:1006100037170240585794433D8B050733D7E602FE
:1006200098C3984369B705456394A600E546E9BFBA
:100630003D456396A600D1463387E602C9BF8906C9
:10064000E5BF3D8B9306170037177A001307072085
:100650003357D702F1B701A09701002093810125FC
:10066000178100201301019A174500001305850C1E
:1006700097050020938505991386018163FAC500CB
:100680008322050023A0550011059105E3EAC5FE6C
:1006900013850181938581866377B500232005004A
:1006A0001105E36DB5FEFD42739002BCAD4273903F
:1006B0004280B762000093828208739002309702F2
:1006C00000009382629493E2320073905230EFF014
:1006D000DFDA97020000938202B67390123473003F
:1006E00020309C4513F7070113F8F70001C7D841E4
:1006F0003368E8008E2113F7F50F39C3184181469E
:10070000854E3D4F930F800293028004214E339615
:10071000DE00B3F8C5006311160393982600331367
:100720001F011343F3FF3377E300B318180133E7D6
:10073000E800639FF70550C98506E39AC6FD18C116
:100740001307F00F6375B70454412146854E3D4FA2
:10075000930F800293028004414EB398CE0033F78A
:1007600015016392E8021317260001173313EF00F7
:100770001343F3FFB376D3003317E800D98E639D9C
:10078000F701232A15010506E319C6FD54C182802D
:10079000E39457FA10C94DB7E39757FE2328150184
:1007A000DDB708456D8D3335A00082800CC982808D
:1007B0004CC9828019C20CC982804CC9828023AA8C
:1007C000A180828003A74181894710216311F7022C
:1007D00014318D4763EDD7003C219A0637E700E0DE
:1007E0009607D58F93F7F70F32972300F7405441C0
:1007F0000547935756003317C70089CA93870704E4
:100800008A07B7E600E0B69798C382809387070609
:10081000B7E600E08A07B69798C30F100000828001
:10082000371702405C439146B18B6385D700A146E0
:100830006382D706B7177A00938707201CC1371643
:1008400002405C4237070020130707019183BD8BEC
:10085000BA9794231C41B3D7D7005CC15442A182FC
:100860009D8ABA969422B3D6D70014C55442AD825D
:100870009D8A36971823B3D7E7005CC55842398361
:10088000937637001387818036971823B3D7E70212
:100890001CC982805C435843C166C983758FB7F613
:1008A000FF1F83A6C670BD8B890713961601634888
:1008B0000600C54601466392D702C94739A8894652
:1008C000638FD702BD46638ED702C146638ED702BF
:1008D000C54601466393D700C1471DEF3747024025
:1008E00003270780418B05C737177A0013070720B6
:1008F000B307F7021CC121D61C41858381B701468D
:100900006DBF0546B547D1BF0146BD47F9B737179B
:100910003D0013070790E9BFB7150240D85593165D
:10092000F700D85563DF060411833D8B930617004B
:1009300037177A00130707203357D70218C1D45549
:10094000A182BD8A8DE295463307D702058318C17F
:1009500037170240585714413D8B050733D7E6023D
:1009600018C1184171B785456394B600E546E9BFE3
:10097000BD456396B600D1463387E602C9BF8906F6
:10098000E5BF3D8B9306170037177A001307072042
:100990003357D702F1B799C5371702401C4F5D8D09
:1009A00008CF8280B7170240984F1345F5FF798D25
:1009B00088CF828099C5371702405C4F5D8D48CF44
:1009C0008280B7170240D84F1345F5FF798DC8CF05
:1009D000828037F7FF1F032747701E21914611833E
:1009E0003D8BC2077117C18363E6E60237370140CA
:1009F000930607C0630ED50013070740630AE5009E
:100A000037570140930607C06304D500631AE50019
:100A10000967D98F37370140130707C06302E50420
:100A200037070040630EE50213070740630AE5023B
:100A300037170040930607806304D502130707C0E9
:100A40006300E5023737014013070740630AE500FA
:100A500037570140930607C06304D5006318E500CB
:100A600093F7F7F8BA21C207C183D98F371700402F
:100A7000630CE500130707406308E50093F7F7CF21
:100A8000FA21C207C183D98F1EA1DE215EB59E2146
:100A90001EB5B7370140138707C0630EE500938783
:100AA0000740630AF500B7570140138707C0630486
:100AB000E5006314F5009C251EB985475EA9828078
:100AC0001E31922103D82500C207C183F99BC207BA
:100AD000C1831EB11E3156211A2DC207C1834207A0
:100AE00041831377C7F8518F9225F59BC206336671
:100AF0000601D18F37360140130806C0C182630E4C
:100B0000050113060640630AC50037560140130865
:100B100006C0630405016310C502B225DD9B03D83E
:100B2000E500D18FD221ED9B93F6F6CFD18FD22560
:100B300033660601D18E56A11AADFA215AB91EB1FB
:100B400082801E3165771307F7CFC207C183BD9B33
:100B5000C207C1831EB11E31562103D88500C207CA
:100B600013960601162DC18393F7F7FD758F962115
:100B70004182A206558FB62142074183B3E60601A2
:100B80009206D58FB7360140C207138806C0C183CD
:100B9000630E050193860640630AD500B7560140EF
:100BA000138806C063040501631ED502B62593F7BA
:100BB000F7F703D8C5009206D58FD621C207C183A7
:100BC000920693F7F7FBD58FFD769386F63FF18E6D
:100BD000F225C207C183336606010A06D18E139639
:100BE0000601418252A11AADFA211ABD1EB18280BE
:100BF0001E3103D88500C207C18393F7F7EFC20700
:100C0000C1831EB11E3156215A2DC207139606010B
:100C10004207962141831377C7F8558FB621C183C8
:100C200093F7F7DFB3E60601A206D58FB73601408A
:100C3000C207138806C04182C183630E05019386F3
:100C40000640630AD500B7560140138806C0630406
:100C50000501631FD502FD769386F67FF58FB625D5
:100C600003D8C500A206D58FD621C207C183A2062C
:100C700093F7F7BFD58FF576FD16F18EF225C207F3
:100C8000C183336606011206D18E13960601418296
:100C900052A15AADFA215ABD1EB182801A31FD7798
:100CA000FD17F98F1EB10358050256215E2D657799
:100CB0001396060196211307F7CF7D8FF977A206C9
:100CC000FD17558FB3F70701B62103D885004207FA
:100CD0004182B3E60601B206D58FB7360140C2079E
:100CE000138806C04183C183630E050193860640C5
:100CF000630AD500B7560140138806C06304050196
:100D0000631BD500F176FD16F18ED2251A06D18E21
:100D100013960601418252A15AADFA212310E5042F
:100D20001EB1828023100500231105002312050047
:100D300023130500231405002315050023160500C1
:100D40002317050082801E2189C593E717001EA185
:100D50008280C207C183F99BC207C183CDBF5E25D4
:100D600001C6DD8D4EA5828093C5F5FFFD8DDDBFEB
:100D70001E25C207C183E19BC207C1831EA58280D5
:100D80001E2189C593E707081EA18280C207C1837F
:100D900093F7F7F7C207C183C5BF1E2DC207C183F2
:100DA000DD9BDD8D0EAD82801A2DFD779387F77F59
:100DB000F98FA205CD8FC207C1831EAD82805E2D43
:100DC000C207C183DD9BDD8D4EAD82805A2DFD773C
:100DD0009387F77FF98FA205CD8FC207C1835EADE0
:100DE00082801A318547B397B70093C7F7FFF98F11
:100DF0001EB11E31B315B600DD8DC205C1810EB125
:100E000082804EB182804EB982800EBD82804EBDFE
:100E100082802310B50482804A3182801E294A25AF
:100E2000ED8F4205418189C76D8D3335A0008280E9
:100E30000145828093C5F5FFC205C1810EA982805C
:100E4000EFF20FBB1A29F577FD17F98FFA217971A7
:100E50002A84D98F1EA99A25DE2156252EC6D98F20
:100E6000BA25D98F7D771307379F758FD98F5EA5E8
:100E70005E29DA25C207C18393F7F7CFD98F5EA920
:100E80006808793AB747014093870780B2456311F4
:100E9000F404A2576547B387E7029841130640065A
:100EA0000A07B3D7E702B3D6C702B3F7C702920661
:100EB00013974700930727031307F063637CF7003A
:100EC00093870601C207C1831EA445616FF08FB4EA
:100ED0009257C9B7B3D7C702D58FEDB791C55E2575
:100EE0000967D98F5EA582805A25F977FD17F98F9A
:100EF000D5BFEFF2EFAF11ED37550140313F13147D
:100F000005014184814537550140E53D22856FF05B
:100F10006FB085470144E31BF5FEB73401401385EC
:100F20000440DD3D131405014184814513850440CF
:100F3000E9BFEFF2EFAB2A86371501409305004079
:100F4000130505C0EFF01F872945EF00406E6FF0D5
:100F50006FACEFF2EFA92A868565371501409385BE
:100F60000580130505C0EFF0FF842945EF00206CD4
:100F70006FF04FAAEFF2CFA7856537150140938533
:100F80000580130505C0EFF0DF812A842945EF00B5
:100F9000006A22856FF00FA8EFF28FA541118545F9
:100FA0002145D53AD1473EC685673714014093871E
:100FB00007C07C824C008D47130504C03EC4EFF08F
:100FC0004FF28565938505C0130504C0EFF00FFE51
:100FD00041016FF02FA4EFF2AFA105459D3F0545FC
:100FE000893F0145BD370145A9376FF0AFA2EFF248
:100FF0002FA00145B93F05452D3F0545993F6FF0AD
:101000006FA1EFF24F9D2A89014493090008A14482
:1010100033D58940337525012D3F0545193F0145DD
:101020000504013FE31694FE6FF02F9EEFF2AF9A96
:1010300005450537814401449309000821490545C8
:10104000CD3D0D3F85476317F500B3D799405D8CC3
:101050001374F40F01458504E93DE39224FF2285D2
:101060006FF0AF9AEFF2CF98ED350545D9350145D0
:10107000C9356FF02F9AEFF2AF970545D93D054579
:101080004D3DCD3D2A8401456D3522856FF08F9809
:10109000EFF20F9641112EC62A84353F1305000D3D
:1010A0008D37D13F2285B13FF937B2452E85913F2B
:1010B000D937353F41016FF0EF95EFF26F932A84F6
:1010C000193F1305000D353F7D3722851D3F6537DC
:1010D00019371305100D3537793F893F2A840545A7
:1010E0005137313722856FF0EF92EFF26F906D3507
:1010F00085451305B006693F81451305C006493F84
:10110000A54565457137994569455937E1456D45AF
:101110004137E1457145AD3F6FF0CF8FEFF24F8D15
:101120000111AA841305B0033EC63AC836CA32CCB0
:101130002ECE61372A841305C00341372204498C1F
:1011400082A01305D003953F2A841305E003B53729
:10115000F2452204498C82A11305F003B93F2A8489
:1011600013050004993F62462204498C02A213052C
:101170003004A1372A84130540048137D246220463
:10118000498C82A2130550040D3F2A841305600484
:101190002D3742472204498C02A313057004313FC6
:1011A0002A8413058004113FB24713178400598D18
:1011B0008AA305616FF00F86EFF2EF8141119387EB
:1011C000618613874186938621861386018613855F
:1011D000C1859385E18599379384C1850395240062
:1011E000B7490000EF20203D2AC40395C1852EC6D3
:1011F000EF20603C2246B246D921B747000003A643
:10120000074583A64745B70700802A87AD8F3A85F3
:10121000BE85EF10400EB747000003A6874583A6A2
:10122000C745EF106073EF30A001B747000083A5FA
:101230008743EF20603F2A8923A0A1840395A4005F
:10124000EF20B073B747000083A5C743EF20500BD2
:10125000B747000083A50744EF20900A83A54944BF
:10126000EF20100A83A54184EF20003C83A5494468
:10127000AA8423ACA1844A85EF209008B7470000D8
:1012800083A587442A892685EF209007AA854A8569
:10129000EF20803923A2A18441016FE01FF7EFE224
:1012A0009FF3832985014C412A84232E350108416F
:1012B00013090000EF20D02D032A040108CCAA84D2
:1012C000930500005285EF20C06C11C50C50268597
:1012D000EF2080352A894C44232024032685EF20E3
:1012E0003002CA85AA8A5285EF209001AA855685C8
:1012F000EF2080332A89CE852685EF2070294C483F
:10130000EF201000AA854A85EF200032445008C41F
:10131000A685EF20C06D6353A00004C404540844A4
:10132000A685EF2020756353050004C46FE0FFED30
:10133000EFE21FEC797185451545EFF0CFE5854566
:101340000545EFF02FE7371401409547FC828D44A7
:10135000E1474C08130504803ECE26CCEFF06FB871
:10136000A947FC824C08C147130504803ECE26CC19
:10137000EFF02FB713050480A945EFF06FC3B7074F
:10138000002083A7C70A37470F0013070724B3D7E6
:10139000E7022C0037050040231501002308010057
:1013A000FD177C849307703E3EC6EFF08FE2081075
:1013B000EFF05F97C167938707060C103705004071
:1013C0003ED02314010223130102EFF06FEF0C1043
:1013D00037050040EFF0EFF60C1037050040EFF056
:1013E0003F810C1037050040EFF05F8BA1453705BA
:1013F0000040EFF09F9AA14537050040EFF0DF9ADB
:10140000A14537050040EFF09F9BA14537050040FF
:10141000EFF0DF9B854537050040EFF07F9685456F
:1014200037050040EFF03F9245616FE0BFDEEFE22D
:101430003FDC0111AA842E841545854532C6EFF0A4
:101440008FD5324655EAADE0B71401408947FC829A
:101450000D49C1474C08138504803ECE4ACCEFF0BD
:101460004FA80146894513850480EFF0AFB4854746
:10147000FC824C08E147138504803ECE4ACCEFF055
:101480004FA6A28537050040EFF0FF97054681453E
:1014900037050040EFF0FF94854537050040EFF039
:1014A0009F8A05616FE01FD78547E397F4FEB71465
:1014B0000140A147FC820D49C1474C0813850480B7
:1014C0003ECE4ACCEFF0EFA10146A1451385048042
:1014D000EFF04FAE9147FC824C08E1471385048042
:1014E0003ECE4ACCEFF0EF9FA28537050040EFF0EB
:1014F0001F920546A14569BF8547E31FF6F8A9E499
:10150000B7140140C1470D494C08138504803ECEF5
:10151000F0824ACCEFF0EF9C0146854513850480AC
:10152000EFF04FA98947FC824C08E14713850480FE
:101530003ECE4ACCEFF0EF9AA28537050040EFF09F
:10154000DF8C05469145A9B7E398C4F4B714014070
:101550009147FC820D49C1474C08138504803ECE5B
:101560004ACCEFF00F980146914513850480EFF0C7
:101570006FA4A147FC824C08E147138504803ECE4E
:101580004ACCEFF00F96A28537050040EFF07F8838
:101590000546B145F5BDEFE2BFC5011185450945D9
:1015A000EFF04FC13704004013050440EFF04FFC4B
:1015B0009307F0083ECA4C089307703E1305044099
:1015C0003ECC230E0100EFF0CFC01305044085454B
:1015D000EFF05F860546854513050440EFF02FF8D0
:1015E0009307D0127C86680085473EC82307010018
:1015F000EFF04F9D854513050440EFF0CFF40561F2
:101600006FE05FC1B707002083A7C70A37177A00CA
:1016100013070720B3D7E70293F7F70F238BF18265
:101620001307803EB387E702239AF1828280B7F7DF
:1016300000E0D8438146799BD8C303C76183330652
:10164000A70290CBD4CB98431367070198C3984364
:101650001367170298C3D843058B75DF9843799BAE
:1016600098C38280EFE2DFB82A84116501118545B5
:101670001105EFF04FB2930700207C82371501402F
:101680008D473EC44C00E147130505803EC6EFF090
:101690004F8522C837440140B70708000C081305DE
:1016A00004803ECC02CA231E0100EFF06FF985458D
:1016B00013050480EFF09F8205616FE0BFB509A0BC
:1016C000B307C040370700801347F7FFD18F4111A0
:1016D000337ED700FD8306C622C4B3E7C7013703B4
:1016E000F07FAA882E886367F304B307A040C98FF0
:1016F0006D8FFD83D98F2E8F636EF302B70710C0F5
:10170000B697D18FF9C313D4E64193752400B3671C
:10171000A7001354F8014D8C9DE78947630BF40A29
:101720008D47631FF408973700009387A7D4884339
:10173000CC4331A03285B6854686C2866921B24047
:10174000224441018280B367CE00B5C363016E0AB3
:10175000630F67043307C74151879307C00363C111
:10176000E70863D80600930740FC014581456348BC
:10177000F7004685C285EF0010389921052285477C
:10178000630FF40A89476309F40855D897370000B6
:101790009387C7D19043D443EF10806797370000F9
:1017A0009387C7CC9043D443EF10806649BF634E04
:1017B0000F04973700009387E7CA8843CC4341B7AB
:1017C000B2402244C285410182802244B24041019C
:1017D000F1A097370000938767C98843CC4385B74A
:1017E00097370000938707C88843CC4349BF894790
:1017F000630BC705E30FF4FC8D47E306F4F285475E
:101800006302F406014581451DBF973700009387A9
:1018100067C78843CC4325B797370000938707C92C
:101820009043D443EF10C05E97370000938707C4FE
:101830002A86AE868843CC43EF10805D09B7B70790
:101840000080BD8DEDBD6304F4048D47630AF4028E
:1018500085476300F40297370000938727C48843C5
:10186000CC43F1BD97370000938747C18843CC43F1
:10187000F9B5973700009387E7C28843CC43C1B5D9
:1018800097370000938707C18843CC434DBD9737F6
:1018900000009387A7BF8843CC4355B579714AD0E0
:1018A0001399150022D426D256CA06D64ECE52CC53
:1018B0005AC85EC613591900B70710442E84AA846B
:1018C000AE8A6346F904B707F07F63CE2701630B46
:1018D000F9006353501F973700009387A7B88443DC
:1018E000C04309A87DD526862685A286A285E12C3F
:1018F000AA842E84A285B25022542685025992547D
:10190000F249624AD24A424BB24B45618280B707E4
:10191000DC3F6351F91CB707203E634DF9167D5A31
:101920002686A2862685A285EF1000032A86AE862B
:101930002A8BAE8BEF10400297370000938707BACF
:101940009043D4432A89AE89EF10000197370000F5
:10195000938747B99043D443BD244A86CE86EF008F
:10196000B07F97370000938767B89043D443A12C8A
:101970004A86CE86EF00507E97370000938787B760
:101980009043D44389244A86CE86EF00F07C973773
:1019900000009387A7B69043D44335244A86CE8669
:1019A000EF00907B973700009387C7B59043D443EF
:1019B000192C5A86DE86EF00307A9737000093871D
:1019C000E7B49043D4432A8BAE8B4A85CE85EF0093
:1019D000B078973700009387E7B39043D443EF1074
:1019E00020434A86CE86EF003077973700009387F2
:1019F000E7B29043D443EF10A0414A86CE86EF0071
:101A0000B075973700009387E7B19043D443EF1048
:101A100020404A86CE86EF003074973700009387C7
:101A2000E7B09043D443EF10A03E4A86CE86EF0045
:101A3000B0722A86AE865A85DE8571222686A286F7
:101A4000EF009071FD572A86AE86630EFA060E0AE5
:101A500097370000938707B0D2979043D4439737C6
:101A60000000938727AD3E9AEF10803A2686A28623
:101A7000EF10003A2A86AE8603250A0083254A0025
:101A8000EF100039AA842E84E3D60AE637040080DA
:101A90002D8C8DB5973700009387C7A19043D44311
:101AA0001D2297370000938767A19043D443EF002E
:101AB000D05FE356A0E63DBD973700009387879C33
:101AC0008443C04305BD2685A285EF106034AA84F7
:101AD0002E840DB5F520B707F33F2A84AE846356F4
:101AE000F904B707E63F6359F90A2A86AE86E1286A
:101AF000973700009387879C9043D443014AEF10A7
:101B00002031973700009387E79B9043D4432A897D
:101B1000AE892285A68545282A86AE864A85CE8549
:101B2000EF00607DAA842E84E5BBB787034063572E
:101B3000F90417390000130969990326090083265F
:101B40004900094AEF10C02C0326090083264900EA
:101B50002A8BAE8B2285A685EF0010609737000098
:101B60009387C7959043D443B9282A86AE865A8571
:101B7000DE85EF004078AA842E845DB3973700009D
:101B8000938747958843CC432286A686EF00A076AC
:101B90000D4AAA842E8469B31739000013090992EB
:101BA0000326090083264900054AEF1060262A8B88
:101BB000AE8B03260900832649002285A6856DB7D2
:101BC0008605858182803708100001117D183377E2
:101BD000B80026CA3378D80093D4450113D3460100
:101BE000131E37004EC61357D5010E089357D60162
:101BF00093F4F47F1373F37F06CE22CC4AC893D9B3
:101C0000F50193DEF6013367C701131F350033E892
:101C10000701931F3600338E64406380D9196356E1
:101C2000C0136304031CB70680009307F07F33687A
:101C3000D800638FF4369307800363C0C735FD4730
:101C400063CDC747130500023305C541B3D7CF01A4
:101C5000B316A8003399AF00DD8E33392001B35796
:101C6000C80133E926011D8F33092F41B3372F01F6
:101C70003306F7409317860063D4072437078000A4
:101C80007D173374E600630C042C2285EF20E0718D
:101C9000130785FF93070002998FB357F900331696
:101CA000E400D18F3319E9006341972A3305974047
:101CB000130615007D47634DC73813070002118FC7
:101CC000B356C9003319E9003397E700558F33390C
:101CD00020013369270133D6C70081449377790007
:101CE00081CF1377F90091476308F7001307490084
:101CF000333927014A963A899317860063D6071C21
:101D0000138514009307F07FCE856304F520B70791
:101D100080FFFD17F18F9398D70113593900A6075B
:101D2000B3E82801B1831375F57F9396C700520578
:101D3000F2406244B182FE05C98ECD8ED244424942
:101D4000B2494685B68505618280631E0E0A1383FB
:101D500014001373E37F63170322B367E701B368CB
:101D6000F801639D041A63870740638608443309BA
:101D7000FF41B307074133362F013386C74093171E
:101D8000860063D6074C3389EF41B307E84033B68A
:101D90002F013386C740F68991B76350C00F6300A7
:101DA000030CB70680009307F07F3368D800638A7E
:101DB000F43A9307800363CBC713FD4763DFC7354E
:101DC00013090EFE93070002B3562801630AFE00B2
:101DD000130900043309C94133192801B3EF2F0156
:101DE0003339F0013369D90031A2B367F801638A4E
:101DF000071C9307FEFF638C07389306F07F630987
:101E0000DE1A3E8E0DBDB305934063910422B36785
:101E1000E701638707329387F5FF638107449306E1
:101E2000F07F638CD520BE859307800363CCB72AEF
:101E3000FD4763CFB73C930700028D8F3319F7003E
:101E4000B356BF00B317FF003369D900B337F000B2
:101E50003357B7003369F9003308E84041ACB36742
:101E6000F801638007349307FEFF638A0720930617
:101E7000F07F6308DE2E3E8E2DBF631E0E14938608
:101E8000140093F7E67F63910734B367E701639526
:101E9000042C6380073EB367F801638E0730330973
:101EA000FF01B3070701333FE9013386E7019317C9
:101EB000860063D70700B70780FFFD177D8E854436
:101EC00093777900E39F07E09317D6019358390081
:101ED000B3E8F800935736001307F07F638DE404EE
:101EE000B207B18313F5F47FCE8581B53369F8016C
:101EF000333920017A99B337E9013386E700931724
:101F00008600E3DF07FA85049307F07F6396F418F1
:101F1000CE851305F07F8147814801BDC1EB638405
:101F2000083A931636009317D8018D82B3E8D7008C
:101F3000F68993573800B3E7F800F9DB81451305BC
:101F4000F07FB70708008148CDB3370680FF7D16C4
:101F50007D8E93777900998CE39507D8B5B74A853C
:101F6000EF20A04413078501FD47E3D5E7D2130610
:101F700085FFB317C900014905BB3369F80133393F
:101F80002001DDB13309FF413306074133342F010E
:101F9000330486409317840063CD0724B368890017
:101FA000E39308CE8147814981441DBFE39808F837
:101FB0000E059317D7010D81B3E8A700935737009B
:101FC0009DBF0E059317D7010D81B3E8A700F284DA
:101FD0009357370011B73305934063820412B70655
:101FE00080009307F07F558F630DF32E93078003D6
:101FF00063CBA720FD4763C3A72A93070002898FFD
:102000003319F700B356AF00B317FF003369D90097
:10201000B337F0003357A7003369F9003A987E9937
:10202000B337F901338607019A84D1BDB706800022
:102030009307F07F558FE319F3DE931736008D83F6
:102040009318D801B3E81701F68993573800E5B51E
:10205000130715FE9306000233D7E700630AD60084
:10206000930600043386C6403396C7003369C9001F
:10207000333920013369E9000146814491B53309C0
:10208000FF01B30707013336E9013E969317860037
:102090008544E3D707E28944B70780FFFD17F18F36
:1020A0001357190013791900336927019398F70121
:1020B00033E9280113D6170015B113090EFE930753
:1020C0000002B3562801630AFE0013090004330915
:1020D000C94133192801B3EF2F013339F0013369B6
:1020E000D90059B63369E7013339200133892F41CB
:1020F000B3B72F013306F8409A84F689A5BEB367BB
:10210000E701638207189307F5FF6384071C9306B2
:10211000F07F6304D5123E85D1BD93070002B387DB
:10212000C741B316F8003399FF0033D6CF01D18EE3
:1021300033392001B357C80133E926013E975DBB0F
:10214000931736008D839318D801B3E81701AE8436
:1021500093573800F68949B3EDC33369F801E31F9B
:1021600009DC0E059317D7010D81B368F50093576D
:102170003700D1B36381080E931636009317D80148
:102180008D82B3E8D700F6899357380091BB3309A5
:10219000FF41B3070741333F2F013386E7418544B1
:1021A000D1BC0E059317D7010D81B368F500F284F9
:1021B0009357370015B30E059317D7010D81B3E878
:1021C000A7009357370029BB9307F07FE382F6D42B
:1021D0003309FF013336E901B3070701B29793983A
:1021E000F7011359190033E9280113D61700B684F3
:1021F000C1B93389EF413307E84033B62F013304C7
:10220000C740F68949B43369E7013339200101BD7C
:10221000938705FE93060002B357F700638AD50043
:1022200093060004B385B6403317B700336FEF0051
:102230003339E0013369F90055BD931736008D83BA
:102240009318D801B3E8170193573800EDB1B3687C
:10225000C900E39708C68147814959B13389EF41E5
:10226000B307E84033B62F013386C740F68985446B
:1022700011B4931636009317D8018D82B3E8D700B6
:1022800093573800B1B9931636009317D8018D8251
:10229000B3E8D700AA84935738003DB9930705FEE9
:1022A00093060002B357F700630AD50093060004B3
:1022B0003385A6403317A700336FEF003339E001B1
:1022C0003369F900A9BB81451305F07FB707080002
:1022D000A9BC3309FF01B30707013336F9013E9664
:1022E00075B3931636009317D8018D82B3E8D700E3
:1022F0009357380089B1397193D7450122DC4AD808
:1023000056D22A891394C50006DE26DA4ED652D458
:102310005AD05ECE13F5F77F318093DAF501630B67
:1023200005109307F07F630BF514135AD9010E04BF
:1023300033648A00370A8000336A4401131B390072
:10234000930415C00144814B13D846011399C6006C
:102350001378F87FB2881359C90093D9F601630E38
:1023600008089307F07F6300F8041357D6010E099D
:1023700033692701130818C0B70780003367F900D5
:1023800093183600B38404418145BD4733C83A01F0
:1023900063E4871A972700009387C71D0A043E94B9
:1023A00010403E9602863367C900938414806312FE
:1023B00007101364240081488945C1BF1306F07FCC
:1023C00081470147B207F25062545206B1837E083A
:1023D000D18FB3E70701D2544259B259225A925AC7
:1023E000025BF24B3A85BE8521618280014813066B
:1023F000F07FB70708000147F1B73367C9004DC741
:10240000630809304A8532C4EF10307A2246130738
:1024100055FFF547930685FF998F3319D900B357B8
:10242000F60033E72701B318D60026959304353F0D
:102430008145A1BF336A240163030A0636C632C44C
:102440006306042A2285EF1050762246B246AA84FB
:10245000130755FF754A138B84FF330AEA40331480
:102460006401335A4901336A8A00331B6901130539
:10247000D0C0B30495400144814BF9B5336A2401BF
:1024800063180A002144014B9304F07F894B6DBD12
:10249000228A4A8B31449304F07F8D4B75B51144E9
:1024A000014B8144854B4DB513641400814885452B
:1024B000E9BD136434004A878D45C1BD630A052E0A
:1024C0008547898F9306800363DDF6320146814795
:1024D0000147CDBDCE868947638DF53A8D47E387A9
:1024E000F5F085473688E383F5FE1385F43FE3571F
:1024F000A0FC93F778006396072893D638009317CB
:10250000770063D80700B70700FFFD177D8F13859D
:1025100004409307E07FE3C3A7EA1316D70193179C
:102520009700B1833367D6001376F57F61BDD686F9
:102530005287DA88DE8545B763614723630DEA2059
:10254000DA86FD145284014B9317870013D3880158
:102550003363F300935E0301B357D403131F0301E6
:10256000135F0F0193D50601139E88003374D403C3
:102570003307FF024204C18D63FBE5009A95138681
:10258000F7FF63EE652663FCE526F9179A95998DAA
:1025900033D7D503C206C182B3F5D5033306EF02A4
:1025A000C205D58D63FBC5009A959306F7FF63E6D8
:1025B000652463F4C52479179A95C20741645D8F39
:1025C0009307F4FF3375F70093580701935F0E01EB
:1025D000B377FE00B302F502B386C540B383F802B9
:1025E00093D502013386AF021E962E963385F803EB
:1025F000637376002295C168FD1893550601337602
:1026000016014206B3F81201AA95469663E6B61281
:102610006382B6123306CB408D8E333BCB00338BB7
:1026200066411385F43F630C6317B358DB0393557E
:102630000601337BDB03B3061F03420B33EB65015B
:10264000637BDB001A9B9385F8FF636D6B20637BD4
:10265000DB20F9181A9B330BDB40B356DB03420631
:102660004182337BDB03330FDF02420B33666601AB
:10267000637BE6011A969385F6FF6367661E6375B2
:10268000E61FF9161A96C208B3E8D8009395080118
:1026900093D20801C181B38EF5023306E641B385BA
:1026A000BF0293D60E01B387F202BE95AE96B38FEA
:1026B0005F0263F4F600C167BE9FC165FD1593D745
:1026C0000601ED8EC206B3FEBE00BE9FF696637F86
:1026D000F6091A969387F8FF6369661A6368F61914
:1026E000630FF61BBE8893E8180011B54A85EF10FA
:1026F000D04B13075501F145930405022246B2461B
:10270000E3DAE5D4130485FF331A8900014B85B35E
:10271000328532C4EF10704913075501F146AA877C
:10272000224613050502E3D6E6CEE1173317F6007D
:102730008148E5B9E370CBEE729B3335CB011A9536
:10274000AA961305F7FF6378D30263E6B610638297
:10275000D5102A87C1B5E3651BDF93551B0093167F
:10276000FA0113541A00CD8E7E0BF9BBE31DF6F768
:10277000E38F06D6B9BFE31ED3FCE378CBFD2A87EF
:1027800051BD93F7F8009146E389D7D693B7C8FFB8
:102790009386480093C717008D823E978DB381467C
:1027A0008547E34CA0FEFD58E31C05D0930410C000
:1027B00085471385E441B316A70033D6F800339557
:1027C000A800D18E3335A000C98E13F6760033579A
:1027D000F70001CE93F7F60011466388C700938790
:1027E0004600B3B6D7003697BE869317870063D8E6
:1027F0000704054681470147F1B636877DBBB2879E
:1028000079B3FD46E3D7F6FA0556098E9306000222
:102810003356C7006388D7009387E443B317F700A4
:10282000B3E8F800B3361001D18E13F67600814775
:1028300001CE93F7F60011460147E392C7FA9317CA
:1028400097001316D701B18313D73600518F014675
:1028500095BEE370CBF0729B3335CB011A95791797
:10286000AA964DBBAE88C5BBAE8631BD93171E0080
:1028700033BEC70172931A96F9183E8EE315F6E738
:10288000E307DEC693E818009DB1BE88E30AF6FFB1
:1028900099BD36881306F07F8147014725B6E36767
:1028A000DEFCBE88E310DEFE99B113D74501B70701
:1028B0001000FD1713D846011377F77F9308F07FB8
:1028C00033F3B7002A8EF58FFD81B28E1378F87F2F
:1028D000FD8263081703630018030DEBB368A300C0
:1028E000631408005D8E29CA638508046388D502D5
:1028F000054595ED8280B3E8C700E38008FE795571
:1029000082803365A30065FD630CE8026314080050
:102910005D8E79DEE39ED5FCE34CE8FC634807015D
:10292000E3E867FC6303F302637FF30081E57D5511
:102930008280F5DE054582800145E39B08FA8280AE
:102940005D8E69DA6DBF01458280E3E3CEFB014510
:10295000E372DEFBE5F1E1BF39714AD813D94501D5
:102960004ED652D456D29399C50006DE22DC26DA22
:102970005AD05ECE1379F97F2A8A93D9C90093DAA7
:10298000F501630D090E9307F07F6306F9181354E0
:10299000D5018E09B36934013704800033E489001E
:1029A00093143500130919C08149814B13D746018F
:1029B000139AC6001377F77FB285135ACA0013DB48
:1029C000F601630B07109307F07F6303F704935737
:1029D000D6010E0A33EA4701130717C0B707800074
:1029E000B367FA00931536003A99814833C76A01F4
:1029F000BD463A851308190063E83617172600000C
:102A0000130646BB8A09B29983A60900B29682864C
:102A1000B367CA001309F97F6399071293E9290084
:102A200081458948E1B701479307F07F37040800E3
:102A300081443204D20731807E075D8C598CA28597
:102A4000F250625426854259D254B259225A925AAF
:102A5000025BF24B216182805A853E84AE84C68B34
:102A60008947638DFB0E8D47E38FFBFA85472A87E5
:102A7000639EFB3881470144814465BF33E4A9006C
:102A800061C036C632C4638C092A4E85EF10F0113E
:102A90002246B246AA87130755FF7544938487FFE1
:102AA000198CB399990033548A0033643401B314F8
:102AB0009A0013D746011309D0C0139AC6001377A2
:102AC000F77F3309F9408149814BB285135ACA0017
:102AD00013DBF601E31907EEB367CA00B1C7630F52
:102AE0000A22528532C4EF10500C22462A879306E0
:102AF00055FFF547930587FF958F331ABA00B357F3
:102B0000F600B3E74701B315B6003309E9401309EE
:102B1000D9C08148E1BD33E4A90001ECA149814459
:102B20001309F07F894B59B593E919008145854810
:102B300075BD4E84AA84B1491309F07F8D4BBDB594
:102B4000914981440149854B95B593E93900D28774
:102B50008D4869BD89475685E397FBF02A8793071F
:102B6000F07F01448144F1B5C16E1386FEFF93D618
:102B7000040113DE0501F18CF18D33869502338358
:102B8000B6029358060133059E021A95AA98B3829D
:102B9000C60363F36800F692C16F1383FFFF33F53A
:102BA000670093D30701B3F76800C2073373660069
:102BB0003E933306950293D80801B387A602135FAC
:102BC0000601B3849302BE94FA94B38E760263F343
:102BD000F400FE9E416A9307FAFF935F0401B37607
:102BE000F400B3F9F4007D8EC1803384D502C209AC
:102BF000338FD401B299CE98B307DE02935E0401FD
:102C0000B385BF02AE97BE9E330EFE0363F3BE00D4
:102C1000529EC1679385F7FF33F6BE006D8C420666
:102C2000229693DE0E01B305D502769E3385AF0260
:102C300013D40501B386D302AA96A296B38FF303E9
:102C400063F3A600BE9F41657D15B3F7A600C207DA
:102C50006D8DAA97B3855800B3B93501FA97B2952F
:102C60003384370133B6C500B30EC4013385CE00BB
:102C700033343401B3B7E701C18F33BECE0113D46F
:102C800006013336C5003E943366CE00939495001A
:102C900032947E94B3E46400260493567501B334F1
:102CA0009000DD8193179500CD8C558CDD8C9317AA
:102CB000740063DB070093D7140085889316F40132
:102CC000DD8CD58C058042899307F93F6359F00864
:102CD00093F6740081CE93F6F40011466388C60023
:102CE00093864400B3B496002694B6849316740079
:102CF00063D80600B70700FFFD177D8C93070940D6
:102D00009306E07F63CFF60E93D634009314D4017C
:102D10002604D58C318093F7F77F21BB328532C4EE
:102D2000EF10A06893065501F147130705022246EC
:102D3000E3D1D7DC6115B317A6008145F9B3EF10D5
:102D4000C06613075501F145930705022246B246B6
:102D5000E3D5E5D461153314AA00814499BB8546B7
:102D60009D8EB1E71309E941B3972401B3D4D40090
:102D700033192401B337F000B3649900DD8C93F765
:102D80007400B356D40081CF93F7F40011466388E2
:102D9000C70093874400B3B49700A696BE84939768
:102DA000860063D8070485470144814459B113065E
:102DB0008003E341D6CC7D46E356D6FA0556B307E9
:102DC000F640930500023356F4006387B6001309FA
:102DD000E943B3172401DD8CB3349000D18C93F612
:102DE0007400014499CA93F7F40011468146E392B6
:102DF000C7FA139496003180F6068D80D58C8147F2
:102E00000DB99307F07F0144814425B142896DBD1E
:102E1000370710007D1701113373B70093D84601AF
:102E2000758F935ED60122CC26CA0E0393D445013A
:102E30009357D5010E0706CE4AC84EC693F8F87FC1
:102E4000130EF07F33E7EE0093F4F47F13D4F50113
:102E500033E36700131F3500FD82931E3600638045
:102E6000C81993C61600B38514416305D412635183
:102E7000B018638B081AB70780005D8F6381C4594F
:102E80009307800363C4B734FD4763C5B74893070E
:102E900000028D8FB3D9BE003318F700B39EFE0039
:102EA000336838013357B700B339D001336838017C
:102EB0003303E340B3090F41B3373F013306F34017
:102EC0009317860063D30724370980007D1933796F
:102ED0002601630F092C4A85EF10204D130785FF4B
:102EE00093070002998FB3D7F9003316E900D18F09
:102EF000B399E9006344972A058F13061700FD462E
:102F000063C5C63A13070002118FB3D6C9003398C0
:102F1000E9003397E700558F33380001B3690701A3
:102F200033D6C700814493F7790081CF93F6F90037
:102F300091476388F6009386490033B8360142967C
:102F4000B6899317860063D6071C1387140093076E
:102F5000F07F05886306F720B70780FFFD17F18F24
:102F60001398D70193D93900A60733683801B18384
:102F70001377F77F9396C7005207B1827E04D98EEC
:102F8000C18EF2406244D2444249B2494285B6857C
:102F9000056182806356B00A638A0812B707800011
:102FA0005D8F6387C42D9307800363C7B718FD4700
:102FB00063D2B73C138805FE93070002B35907019B
:102FC000638AF50093070004B385B7403317B70051
:102FD000B3EEEE003338D0013368380195A2B36701
:102FE000D7019385148099E393C61600630AD4042D
:102FF000D1E19387140093F7E77F6399071EB367C6
:10300000E3013368D701639204166382073C6316B9
:103010000842131835009316D3011358380033E8CB
:1030200006019357330019A2B367D7016385071AC6
:103030009387F5FF638B073A638CC523BE8589B5FB
:103040006399051C9386140093F7E67FC1EFB3677D
:10305000E30163900436638D0744B367D70163943B
:1030600007460E051318D3010D813368A800935746
:1030700033006DA8B385984063970420B367E301DC
:10308000638D07309387F5FF638907401305F07F51
:103090006383A520BE859307800363C2B72AFD47DB
:1030A00063C8B73C930700028D8F3318F300335683
:1030B000BF00B317FF003368C800B339F0003353C3
:1030C000B3003368380133076740B5ACB367D70145
:1030D000638307109387F5FF638F071E6380C52FF7
:1030E000BE85D1B59307F07F638BF606FA9E33B6A3
:1030F000EE01B307E300B2971398F70193DE1E00C9
:10310000B369D80113D61700B68493F77900E39F0B
:1031100007E09317D60113D839003368F800A68565
:10312000935736001307F07F6380E506B207B1833B
:1031300013F7F57F05883DBD3367D7013338E000CD
:10314000B309E801B3B7E901338667009317860036
:10315000E3DD07FA85049307F07F639CF418058884
:103160001307F07F8147014831B563910710630170
:10317000083C131836009317D701135838003368EA
:10318000F800368493573700B367F800E9DB014451
:103190001307F07FB70708000148E9BB370680FF37
:1031A0007D167D8E93F77900998CE39107D895B7BA
:1031B0004E85EF10801F13078501FD47E3D2E7D24C
:1031C000130685FFB397C90081492DB33368D70132
:1031D00033380001C5B1131835009317D3011358C4
:1031E00038003368F800935733002DBFB309DF412F
:1031F0003309E34033363F013309C940931789004F
:1032000063CA072033E82901E31508CC814701444C
:1032100031BFB385984063810414B70680009307DB
:10322000F07F3363D3006381F8209307800363CC7E
:10323000B722FD4763C9B72C930700028D8F33185F
:10324000F300B356BF00B317FF003368D800B3399B
:10325000F0003353B300336838011A97B309D8012B
:10326000B3B7D9013386E700C684CDB5E31108F2C0
:10327000131835009317D301135838003368F8003A
:103280009357330011B7370580009307F07F3363FE
:10329000A300E392F8E00E061318D7010D823368FD
:1032A000C800935737003684C5B50517930600024A
:1032B00033D7E700630AD600930600043386C6407E
:1032C0003396C700B3E9C90033383001B369E80069
:1032D000014681441DBDB309DF01B307E30033BFDD
:1032E000E9013386E701931786008544E3DF07E0B1
:1032F0008944B70780FFFD17F18F13D7190013F822
:103300001900336807019399F701B3E9090113D64E
:10331000170011B9138805FE93070002B35907017E
:10332000638AF50093070004B385B7403317B700ED
:10333000B3EEEE003338D00133683801A5BE3363F5
:10334000E30133386000B3890E41B3B73E01330661
:10335000F740C6843684ADB6B367E30163870718C8
:103360009387F5FF638C071C9306F07F638ED50A65
:10337000BE8565BD930700028D8FB3D9BE0033189B
:10338000F700B39EFE00336838013357B700B339F6
:10339000D001336838013A9365B313183600931798
:1033A000D7011358380033E80701368493573700A4
:1033B00095BBBDCB3367D701E31B07DC0E051318A4
:1033C000D3010D813368A8009357330075BBE30F19
:1033D00008E2131836009317D701135838003368E2
:1033E000F80036849357370091B3B309DF41B30730
:1033F000E340333F3F013386E7418544D1B413189E
:1034000035009316D3011358380033E8060193575B
:1034100033009DBBB389EE413306674033B93E01AB
:1034200033092641368475B40E061318D7010D8270
:103430003368C8009357370081BBB309DF41B30736
:10344000E34033363F013386C7409317860063D786
:10345000070AB389EE41B3076740B3BE3E01338626
:10346000D7413684C9B43363E30133386000FDB318
:10347000138805FE93070002B3590301638AF50020
:1034800093070004B385B7403313B300336F6F0065
:103490003338E001336838017DB5B389EE41B307B5
:1034A0006740B3BE3E013386D7413684854409BCAC
:1034B000131836009317D701135838003368F800F3
:1034C00093573700A5B1B309DF01B307E30033BF5A
:1034D000E9013386E70193178600E3D807C2B707EF
:1034E00080FFFD177D8E85440DB10E061318D701A0
:1034F0000D823368C800935737002DB133E8C900F7
:10350000E30608D019B1138805FE93070002B359EA
:103510000301638AF50093070004B385B7403313B2
:10352000B300336F6F003338E001336838013DB3C7
:1035300001441307F07FB70708002DBCB309DF0172
:10354000B307E300B3BED9013386D70169BB93D774
:103550004501B70610001387F6FF93F7F77F1306B0
:10356000E03F6D8FFD81635CF6001306D041635A26
:10357000F600370500801345F5FF2E958280014542
:103580008280130630431D8E7D48558F635DC800D1
:1035900093063041B387F640B357F7003305F04048
:1035A000E5F13E8582809387D7BEB317F700335588
:1035B000C500C98FE5B7411106C622C426C20DCD8C
:1035C0009357F541B3C4A7009D8C2A842685EF004C
:1035D000D05D9306E041898EA9477D8093F6F67F02
:1035E00063CDA7022D47098FB3D7E4005505B20775
:1035F000B394A400B18329A001448146814781444A
:10360000B207D206B1837E04D58FC18FB240224467
:103610002685BE859244410182805515B397A4004A
:10362000B207B1838144E9BF4111370780007D179C
:1036300013D8750126C2935475013373A70093F410
:10364000F40FB376B7004AC01378F80F1359F50199
:1036500006C622C4FD819A8726854A86131E33003A
:10366000939E3600B3880441630AB90E6350100D6F
:10367000630408149307F00F638BF414B707000476
:10368000B3EEFE00ED4763C1172993070002B3872D
:103690001741B397FE00B3D81E01B337F000B3E76C
:1036A000F800B307FE4013975700635E071837040E
:1036B00000047D147D8C2285EF00304F6D15B3170B
:1036C000A4006348951A058D130415001307000222
:1036D000018F3397E7003337E000B3D78700D98FE6
:1036E000814413F7770019C713F7F7009146630376
:1036F000D700910713975700635B071485041307DE
:10370000F00F4A866383E4169A07A58313F5F40F36
:10371000B2402244A6079314750113D59700458D36
:103720007E0692440249518D410182806399080AC4
:10373000138714001377E70F6317071463900422AD
:10374000630D0E1EE3860EFCB307DE411397570090
:1037500063500722B387CE412E8961B7635C100B9B
:10376000630E08089307F00F6383F406B70700049D
:10377000B3EEFE00ED4763C9171F93070002B3873E
:103780001741B397FE00B3D81E01B337F000B3E77B
:10379000F800F297139757006357070A8504130739
:1037A000F00F6384E40CB706007E13D71700FD16F4
:1037B000858B758FD98F35B7638D0E08FD18B307CC
:1037C000DE41E38208EE9307F00FE39DF4EA630D18
:1037D000030801461305F00FB707400015BF330774
:1037E0009840EDE863020E147D17630807189307ED
:1037F000F00F6319F80E2E893683D1BF638B0E0448
:10380000FD18B307DE01E38708F89307F00FE39391
:10381000F4F675BF63950808850413F7E40F631386
:10382000071263170510630F0E14E3830EEEB30740
:10383000DE0113975700814463570700370700FCE8
:103840007D17F98F854413F77700E31F07E813D33B
:1038500037009307F00FE38CF4F693179300A583DA
:1038600013F5F40F4A866DB54A861305F00F8147AC
:1038700045B5370700FC7D17F98F13F77700898C62
:10388000E31407E6E9B73304DE419317540063C33A
:10389000070CE31204E201460145814795BD330759
:1038A0009840ADC49307F00FE308F8F4B70700049D
:1038B000336EFE00ED4763CCE70C93070002998F4F
:1038C000B317FE003357EE00B337F000D98FF697E9
:1038D000C284C9B59307F00FE30FF8F0B7070004EF
:1038E000336EFE00ED4763C3E70893060002998E2E
:1038F000B316DE00B357EE003337D000D98FB3874D
:10390000FE40C2842E8945B3854761BB630E0E0617
:103910007D17B307DE01C284E30E07E69307F00FBD
:10392000E31AF8F8368365B53683C2842E8915B755
:10393000E3040EECE38D0EE869BD638D0E022E8666
:10394000B687F9B39307F00FE381F4F2B307DE0112
:103950008583D5BD3384CE412E89B1BBE31C0EFCDB
:10396000E3890EE62E8949BD854725B5854741BFC8
:10397000E39B07EC0146814761BBB387CE41C2841C
:103980002E8915B3B68769B33683C284D9B5854706
:103990003DBF93567501B7078000FD1713D675011B
:1039A00093F6F60F1308F00FB3F8A7001357F501BD
:1039B000ED8F1376F60FFD81638406031305F00F78
:1039C0006304A60205456383C6008280E39FF8FE78
:1039D0000145E30CB7FE0545EDFA33351001828051
:1039E0000545E38D08FC82800545E9DF828093561A
:1039F0007501B7078000FD1713D6750193F6F60F12
:103A00001308F00FB3F8A7001357F501ED8F1376E5
:103A1000F60FFD8163810603630C06018DE211E25E
:103A2000B1C3638E08026305B70405451DE78280B4
:103A3000F5D779558280E39E08FE6309D60211E22C
:103A4000EDD7E314B7FEE342D6FE63C7C600E3EE4C
:103A500017FD0145E3FDF8FC01E77D558280F5DDAA
:103A6000054582800145E39208FC8280F9DBD1B7ED
:103A70008146E1BF93567501B7078000FD1713D645
:103A8000750193F6F60F1308F00FB3F8A70013575C
:103A9000F501ED8F1376F60FFD8163870603630949
:103AA000060185EA11EA89EB0145639B08008280E3
:103AB0000945F5FFE5DA31A8638C08026300B70415
:103AC000054575D77D5582800945639808026304D2
:103AD000D60211E2F5D7E315B7FEE343D6FE63C77E
:103AE000C600E3EF17FD0145E3F3F8FC19E3D9BF86
:103AF000F1D905458280E5D3828082808146C5B7B1
:103B0000797122D4135475014ECE52CC931995007D
:103B100006D626D24AD056CA5AC81374F40F93D97F
:103B20009900135AF50169C49307F00F6308F40E66
:103B30009397390037070004B3E9E700130414F83A
:103B40008144014B13D77501939A95001377F70FB2
:103B500093DA9A0013D9F50145CF9307F00F630C60
:103B6000F7028E0A130717F8B7070004B3EAFA0042
:103B70003A94014633452A01BD47AA8693051400AD
:103B800063E09710171700001307C7A68A04BA94BA
:103B90009C40BA9782871304F40F63960A0C93E44F
:103BA00024000946C1BF01451307F00FB7074000C5
:103BB000B2502254A6075E07A5837E05D98F925482
:103BC0000259F249624AD24A424B5D8D4561828078
:103BD000CA86D689328B8947630FFB088D47E30479
:103BE000FBFC854736856310FB1A01478147C9B73F
:103BF000639D090413D77501939A95001377F70F06
:103C000091440144054B93DA9A0013D9F50131F739
:103C1000639D0A0093E414000546A9BF639209025C
:103C2000A1441304F00F094B31BF5685BD2F9307F4
:103C3000B5FF098CB39AFA001304A4F801461DBF1E
:103C4000B1441304F00F0D4BF5BD4E852EC6B12FB8
:103C50009307B5FF1304A0F8B399F900098C8144C8
:103C6000014BB245C5B593E434000D4621B78947F1
:103C7000D286E315FBF636851307F00F81470DBF9B
:103C800041639306F3FF13D6090193D80A01B3F7F2
:103C9000D900B3FADA0033885703B389F80213570F
:103CA0000801B30A5603D6994E9733061603637379
:103CB00057011A96C167FD17B376F7003378F800FD
:103CC000C206C2969399660093570701B339300133
:103CD000E982B2979A07B3E6D900B3E9D700939780
:103CE000490063D9070013D7190093F71900B36986
:103CF000F7002E841307F4076350E00493F779006C
:103D000099C793F7F90091466383D7009109939778
:103D1000490063D90700B70700F8FD17B3F9F900A8
:103D2000130704089307E00F63CBE7049397690038
:103D3000A5831377F70FADBD8547B386E74011C75D
:103D40006D4601478147E345D6E61307E4093397FB
:103D5000E9003337E000B3D7D900D98F13F77700E4
:103D600019C713F7F70091466303D700910713971C
:103D70005700634C07009A07A583014715BD130739
:103D8000F00F814735B52E84B5B7054781470DB58E
:103D90003707800041117D179356750113D87501BF
:103DA000B377A70093F6F60F935EF5013376B7006D
:103DB00026C24AC01378F80F06C622C41303F00FB8
:103DC0003E8E3689F684139F3700FD811315360029
:103DD000B38806416302681093C51500638CBE105A
:103DE0006354100D631008106304051EFD18B3071B
:103DF000AF40638608029307F00F6388F616ED471D
:103E000063C7172913070002330717413317E5006B
:103E1000B35715013337E000D98FB307FF4013972D
:103E200057006351071A370400047D147D8C2285E6
:103E3000AD2B6D15B317A400634E251B330525412B
:103E40001304150013070002018F3397E70033377F
:103E5000E000B3D78700D98F014913F7770019C75E
:103E600013F7F70091466303D700910713975700A4
:103E7000635E0714930619001307F00F93FE1400F6
:103E80006386E6169A07A58393F6F60FA607B24057
:103E9000224413D59700DE069397FE01558D924478
:103EA00002495D8D410182806392080A13871600E2
:103EB0001377E70F631B07146394062263020F2036
:103EC00071D5B307AF401397570063550722B30767
:103ED000E5410149AE8451B7E30005F0638ABE0AAB
:103EE000E35410FD9307F00F6381F608B707000451
:103EF0005D8D31B7635E1009630108089307F00F09
:103F00006385F606B70700045D8DED4763C0171F94
:103F100013070002330717413317E500B3571501A4
:103F20003337E000D98FFA9713975700635C07087F
:103F300005091307F00F630BE90AB706007E13D7D4
:103F40001700FD16858B758FD98F01BF3307D840B9
:103F500063950610630D0F147D176303071A93070B
:103F6000F00F6314F810AE84328E630F0E06814E8C
:103F70009306F00FB707400011BF39C9FD18B3070A
:103F8000AF00E38308FA9307F00FE390F6F8F1BF70
:103F900063990808138916001377E90F631607124F
:103FA000639B061063030F16E30205EEB307AF0031
:103FB00013975700014963570700370700FC7D1727
:103FC000F98F054913F77700E31C07E813DE370084
:103FD0009307F00FE30BF9F893179E00A5839376F0
:103FE000F90F93FE14005DB593FE14009306F00FD5
:103FF000814769BD370700FC7D17F98F13F77700FC
:104000003309A940E31E07E4D1B73304AF40931747
:10401000540063C3070CE31C04E0814E81468147D2
:10402000B5B53307D840B5C69307F00FE30EF8F2E5
:10403000B7070004336FFF00ED4763CDE70C93072C
:104040000002998FB317FF003357EF00B337F0002A
:104050005D8FB307A7004289C1BD9307F00FE3044A
:10406000F8F0B7070004336FFF00ED4763C2E708BD
:1040700093070002998FB317FF003357EF00B33750
:10408000F000D98FB307F5404289AE8449BB85471C
:1040900069B3630E0F067D17B307AF004289E305CE
:1040A00007E89307F00FE319F8F8328E7DBD328EE2
:1040B0004289AE8431BFE3090FEAE30805EA45BD52
:1040C0000DCDAE8EB287D9B39307F00FE300F9F2AE
:1040D000B307AF008583FDB53304E541AE8481BBF2
:1040E000E31D0FFCE30505E8AE84BDBD854725BD96
:1040F000854749BF0149E39707EC814E814779B372
:10410000B307E5414289AE8419BBB28741B3328E11
:1041100042897DBD054735BF3706800013577501BD
:104120009307F6FF1377F70F9305E007B3F6A700A1
:104130009357F50163FCE5009305D00963FAE500A8
:10414000370500801345F5FF3E958280014582804A
:1041500093055009D18E63CDE5001306600933073E
:10416000E64033D7E6003305E040F5F33A85828038
:104170001307A7F63397E600FDB7411106C622C420
:1041800026C20DCD9357F54133C4A7001D8CAA84D8
:104190002285212C9307E0093387A7409307600904
:1041A000FD8063CCE702A1469377F70F63D5A600A5
:1041B00061153314A4002604258021A08144814781
:1041C0000144260413559400B2402244DE07FE0445
:1041D0005D8D458D9244410182809307900963DD96
:1041E000E7009307B5019546B317F400898E335461
:1041F000D400B337F0005D8C954763D6A7009307D2
:10420000B5FF3314F400B70600FCFD169377740075
:104210003376D40085C39377F4009145638CB7005F
:1042200011069317560063D707009307F009758EA0
:104230003387A7401314660025809377F70F51B793
:1042400093D645019397C50093F6F67FB183138605
:1042500016008E071357D5011376E67FFD815D8F1B
:104260009318350035CE138806C89307E00F63DD39
:1042700007018147139597009306F00FDE0625810D
:10428000FE05558D4D8D82806355000B931765009B
:104290000E07B337F000D98F93D8D801B3E71701D1
:1042A00013F777006301071013F7F70091466303D4
:1042B000D7009107370700047D8F75C713071800D3
:1042C0001306F00F9376F70FE305C7FA9A07A58355
:1042D00013959700DE062581FE05558D4D8D828054
:1042E000B367170199EE85CF95479A07A583139574
:1042F000970093F6F60FDE062581FE05558D4D8D50
:104300008280A5DBB7074000139597009306F00F56
:10431000DE0681452581FE05558D4D8D82808147C4
:10432000139597008146DE062581FE05558D4D8D3E
:104330008280A5576348F804F94737068000B387A1
:1043400007417D45598E6351F5047957330707417D
:10435000130500023357E6006388A700938626CA38
:10436000B316D600B3E8D800B3371001D98F13F7CE
:104370007700014815FB139757008546E34807F47B
:104380008146A5B781468DB7938626C83397D80056
:104390003337E000B316D600B3D8F800B367D700C0
:1043A000B3E7F800E9B7C28689B7C167637CF50255
:1043B0009307F00F1307000263EBA70097070000B5
:1043C00093874727AA9788233305A74082802181B6
:1043D0009707000093870726AA978823614733052C
:1043E000A7408280B7070001636DF50061819707E0
:1043F000000093872724AA97882321473305A740E5
:1044000082804181970700009387C722AA9788235B
:1044100041473305A74082800000003F00000000B4
:10442000000000000000E03F0000000000004640E7
:1044300004392861A68D2240000020410000003888
:104440000000FA440AD7233CA4707D3F000000001E
:1044500000000000FA2109400000000000806640D2
:10446000182D4454FB21F93F182D4454FB210940D9
:10447000182D4454FB2109C00000000000000080FA
:10448000182D4454FB21F9BFD221337F7CD902403F
:10449000D221337F7CD902C0182D4454FB21E93F3F
:1044A000182D4454FB21E9BF075C143326A6A13C18
:1044B0009C7500883CE4377E000000000000F03F5F
:1044C0000000000000000040000000000000F83F75
:1044D000000000000000F0BF11DA22E33AAD903F87
:1044E000EB0D76244B7BA93F513DD0A0660DB13F2B
:1044F0006E204CC5CD45B73FFF8300922449C23F93
:104500000D5555555555D53F2F6C6A2C44B4A2BF57
:104510009AFDDE522DDEAD3F6D9A74AFF2B0B33F1F
:10452000711623FEC671BC3FC4EB98999999C93F97
:104530004FBB610567ACDD3F182D4454FB21E93FBB
:104540009BF681D20B73EF3F182D4454FB21F93FAA
:10455000E2652F227F2B7A3C075C143326A6813C30
:10456000BDCBF07A8807703C075C143326A6913CDB
:10457000C8DFFFFF4CDEFFFF5CDFFFFF64DFFFFFF4
:104580005CDFFFFF7CDEFFFF5CDFFFFF64DFFFFF20
:104590004CDEFFFF4CDEFFFF7CDEFFFF64DFFFFF32
:1045A000BEDFFFFFBEDFFFFFBEDFFFFF7CDEFFFFE2
:1045B000B8E5FFFFAAE4FFFFAAE4FFFFA8E4FFFFBE
:1045C000B0E4FFFFB0E4FFFF76E4FFFFA8E4FFFFE5
:1045D000B0E4FFFF76E4FFFFB0E4FFFFA8E4FFFFD5
:1045E000A4E5FFFFA4E5FFFFA4E5FFFF76E4FFFFDE
:1045F00090F6FFFFE2F5FFFFE2F5FFFFE0F5FFFFBA
:10460000E6F5FFFFE6F5FFFFB6F5FFFFE0F5FFFF7C
:10461000E6F5FFFFB6F5FFFFE6F5FFFFE0F5FFFF6C
:104620007EF6FFFF7EF6FFFF7EF6FFFFB6F5FFFF8B
:104630000001020203030303040404040404040449
:10464000050505050505050505050505050505051A
:1046500006060606060606060606060606060606FA
:1046600006060606060606060606060606060606EA
:1046700007070707070707070707070707070707CA
:1046800007070707070707070707070707070707BA
:1046900007070707070707070707070707070707AA
:1046A000070707070707070707070707070707079A
:1046B000080808080808080808080808080808087A
:1046C000080808080808080808080808080808086A
:1046D000080808080808080808080808080808085A
:1046E000080808080808080808080808080808084A
:1046F000080808080808080808080808080808083A
:104700000808080808080808080808080808080829
:104710000808080808080808080808080808080819
:104720000808080808080808080808080808080809
:104730000000000000000000010203040607080951
:104740000000000001020304010203040607080937
:104750000000000000000000000000000000000059
:104760000000000000000000000000000000000049
:10477000000000000000A0400000A0C000000000F9
:104780000000000000000000000000000000000029
:104790000000000000000000000000000000000019
:1047A0000000A0400000A0C00000000000000000C9
:1047B00000000000000000000000000000000000F9
:1047C0000000000000000000000000000000A04009
:1047D0000000A0C000000000030300000044950892
:0847E0000204060800000000BD
:00000001FF
