:040000006F00C06B62
:1000040000000000000000008002000082020000E6
:1000140000000000BA06000000000000000000001C
:10002400BA060000BA06000000000000000000004C
:10003400BA06000000000000BA060000000000003C
:10004400BA060000BA060000BA060000BA060000AC
:10005400BA060000BA060000BA060000BA0600009C
:10006400BA060000BA060000BA060000BA0600008C
:10007400BA060000BA060000BA060000BA0600007C
:10008400BA060000BA060000BA060000BA0600006C
:10009400BA060000BA060000BA060000BA0600005C
:1000A400BA060000BA060000BA060000BA0600004C
:1000B400BA060000BA0600003A400000BA06000082
:1000C400BA060000BA060000BA060000BA0600002C
:1000D400BA060000A81A0000A8300000083A000080
:1000E400BA060000BA060000BA060000BA0600000C
:1000F400BA060000BA060000BA060000BA060000FC
:1001040000000000BA060000BA060000BA060000AB
:10011400BA060000BA060000BA060000BA060000DB
:10012400BA060000BA060000BA060000BA060000CB
:10013400BA060000BA060000BA060000BA060000BB
:10014400BA060000BA060000BA060000BA060000AB
:10015400BA060000BA060000BA060000BA0600009B
:10016400BA060000BA060000BA060000BA0600008B
:10017400BA060000BA060000BA060000BA0600007B
:10018400BA060000BA060000BA060000BA0600006B
:10019400BA060000BA060000BA060000BA0600005B
:1001A400000000000000000000000000000000004B
:0C01B4000000000000000000000000003F
:1001C000397101436EC619A0397141536AC866CAB4
:1001D00062CC5ECE19A0397101535AD056D252D496
:1001E0004ED64AD826DA22DC06DE3301614082820E
:1001F00041114AC026C222C406C68282B24D4101C4
:10020000024D924C224CB24B4101024B924A224A7F
:10021000B2494101024992442244B24041018280E4
:100220002A8309CA83830500230073007D16050312
:1002300085056DFA82802A8311C62300B3007D16DE
:10024000050365FE82801021942105058505631351
:10025000D60075FA3305D640828015C22A838546BA
:100260006367B500FD561307F6FF3A93BA9583838B
:100270000500230073007D163693B6956DFA8280D3
:1002800001A0B707EFBE37E700E0938707083CC738
:1002900001A0EFF2FFF2411109459D2D7164112675
:1002A000EF40C07913050420EF40B002EF30705CDE
:1002B000EF30300EEF302078EF205052EF30E00D6D
:1002C00013050420EF1020743965130545C8EF604D
:1002D000E044EF305040EF20207EEF30300A0545FB
:1002E000EF302009EF10C05A39651305C5CAEF6019
:1002F000E0423965130585CDEF604042396513054D
:10030000C5D1EF60A0413965130585D5EF60004187
:100310003965130505DAEF606040B70B002083876D
:100320008B23038791808386E1A20386F1A2B96AB9
:10033000396593858AC6130585DF396BEF60C03B4D
:1003400001448149B96C130B4BC7396DB96DEF305E
:10035000B000137A250063090A04EF303061638F1F
:1003600009000545EF30E0000386E1A28385F1A294
:100370001305CDE28149EF602038D1BF0145EF2060
:10038000507FEF20607383878B2303879180838660
:10039000E1A20386F1A293858AC61385CDE6EF60BC
:1003A000A0350144854965B7058921CD638D0904D0
:1003B0009337140093858AC611E0DA858386E1A21B
:1003C0000386F1A21385CCEA3EC6EF60E032B24765
:1003D0003E842285EF20F01F2AC6EF30E077937726
:1003E000250032478DCBEF3070580545EF207078EF
:1003F0000386E1A28385F1A21305CDE2EF60C02F51
:1004000035A8E39809FCEF30E015EF3000051DE555
:10041000EF10E07D41A8937715008DC7133A1400C3
:1004200093858AC611E0DA858386E1A20386F1A26C
:100430001385CCEA5284EF60202C4E8AEF304002C4
:10044000D28931B78547631FF700EF303052054539
:10045000EF20307239650386E1A28385F1A213058E
:1004600005EE69BF15E7EF3070500545EF2070705D
:1004700093858AC601C4B965938545C78386E1A281
:100480000386F1A2B9671385C7F0EF60E0267DB758
:10049000EF30D04D0545EF20D06DB9671385C7F318
:1004A000EF60C027014A59BFB71702409843B7060B
:1004B000FFF041111367170098C3D84337060200B5
:1004C000758FD8C39843B706F7FEFD16758F98C38E
:1004D0009843B706FCFFFD16758F98C3D843B7063F
:1004E00001FFFD16758FD8C39843B70600ECFD16C3
:1004F000758F98C33707FF0098C723A6070202C469
:1005000002C69843C166558F98C3B7160240056767
:100510009C42F18F3EC6A24785073EC4B24781E7A1
:10052000A247E397E7FEB71702409C433707020054
:10053000F98FB5C785473EC632478547631FF70425
:10054000B7170240D843B706C1FFFD16D8C3D8433A
:10055000D8C3D84313670740D8C3D843758FD8C3CF
:10056000D843B7062900558FD8C39843B706000172
:10057000558F98C3B70600029843758F75DFD8432F
:10058000B7160240719BD8C3D84313672700D8C35E
:100590002147DC42B18BE39EE7FE4101828002C627
:1005A00061BF371702405C43A14637060020B18B7C
:1005B000638AD702B7177A00938707202328F62289
:1005C000B7170240D843B70700209387070011836D
:1005D0003D8BBA97982383270623B3D7E7002328B8
:1005E000F62282805C4354434167C983BD8BF98EF8
:1005F0001387270085CFBD47630CF702C147630C03
:10060000F702C547630CF7028145A9E2B7470240EC
:1006100083A70780C18B95C7B7177A0093870720F8
:100620003307F702C9E92328E62259BF4947E9BF42
:1006300085453547D9BF81453D47C1BF81454147C4
:10064000E9B7B7173D0093870790D9BF3715024028
:100650005C55C166F58F5455A1CB9182BD8AB71701
:100660007A00850693870720B3D7D7025455A18215
:10067000BD8A89EE9546B387D7028583B7160240B7
:10068000D456BD8A8506B3D7D70259BF05456394B2
:10069000A600E546CDB73D456396A600D146B38793
:1006A000F602E9BF8906E5BFBD8AB7177A0085065D
:1006B00093870720C9BF0583BDB701A0970100201C
:1006C00093814137178100201301C19317F5000072
:1006D00013050515970500209385C592138601A281
:1006E00063FAC5008322050023A05500110591057A
:1006F000E3EAC5FE138501A297250020938545A551
:100700006377B500232005001105E36DB5FEFD42BA
:10071000739002BCAD4273904280996293828208CA
:1007200073900230970200009382028E93E23200AF
:1007300073905230EFF05FD7970200009382A2B51A
:1007400073901234730020309C4513F7070113F89F
:10075000F70001C7D8413368E8008E2113F7F50F81
:1007600031C318418146054E930E80023D4F930FD1
:10077000800421433316DE00B3F8C500631016036E
:10078000639AD70750C913962600B318CF0093C8B1
:10079000F8FF33F7E8003316C800518F8506E39B56
:1007A00066FC18C11307F00F6375B7045441014686
:1007B000054E930E8002130F800421431307860019
:1007C0003317EE00B3F8E500631117036398D703FE
:1007D00058C9931826003D47331717011347F7FFF1
:1007E000F98EB3181801B3E6D8000506E31866FCC5
:1007F00054C18280E399F7F910C971B7E39BE7FD13
:1008000018C9C1BF1C4533F5F5003335A0008280FF
:100810000CC982804CC9828019C20CC982804CC923
:100820008280B70830009356050113170501337312
:100830001501BD8A418363530502B7070140DC4FB0
:1008400063151305C1060D46B316D60093C6F6FF11
:10085000F58FC5E9370701405CCF8280370801403A
:100860000326480063121307B70600F1FD16B3779D
:10087000D60003264800F18E2322D800BDCD558135
:1008800012053315A700C98F8DA837061000698E91
:1008900005C20D46B316D60093C6F6FFF58FDDD917
:1008A00055811375F53F12053315A700C98F5DB744
:1008B00055811375F53F12053317A7009346F7FFCF
:1008C000F58FC9D9D98F79B7B7071000E98F99CBC0
:1008D0008D47B397D70093C7F7FFF18FB706000F87
:1008E000D58F69BF558112053315A7009347F5FFD2
:1008F000F18F3707000FD98FD9F5370701405CC357
:10090000828055811375F53F12053317A7005DBF2F
:1009100023A0A1A2828003A701A289471421631109
:10092000F70218318D4763EDE7003C211A0796075F
:10093000D98F37E700E093F7F70F36972300F7409A
:10094000054793D756003317D700544189CA938778
:1009500007048A07B7E600E0B69798C382809387BA
:100960000706B7E600E08A07B69798C30F100000A5
:100970008280371702405C43A146B18B6383D70660
:10098000B7177A00938707201CC1371602405C42D4
:1009900037070020130707019183BD8BBA97942373
:1009A0001C41B3D7D7005CC15442A1829D8ABA963C
:1009B0009422B3D6D70014C55442AD829D8A36978F
:1009C0001823B706002093864623B3D7E7005CC5FB
:1009D000584239830D8B36971823B3D7E7021CC9C9
:1009E00082805C435843C166C983758FB7F6FF1F89
:1009F00003A6C6709166BD8BF18E890795E6C54644
:100A000001466393D700C94731EF374702400327B8
:100A10000780418B39C337177A0013070720B38744
:100A2000E7023DD285838DB78946638DD700BD46E9
:100A3000638CD700C146638CD700C546638CD70052
:100A40000146D9B7C947EDBF0546B54775BF014651
:100A5000BD475DBF0146C14745BF37173D0013077E
:100A6000079075BFB7150240D855C166758FD4552C
:100A700021CB9182BD8A37177A008506130707209C
:100A80003357D702D455A182BD8A89EE95463307E4
:100A9000D7020583B7160240D456BD8A8506335760
:100AA000D702B5BF85456394B600E546CDB7BD45D1
:100AB0006396B600D1463387E602E9BF8906E5BFF3
:100AC000BD8A37177A00850613070720C9BF99C565
:100AD000371702401C4FC98F1CCF8280B7170240C6
:100AE000984F1345F5FF798D88CF828099C53717C8
:100AF00002405C4FC98F5CCF8280B7170240D84F4D
:100B00001345F5FF798DC8CF82801E319206558E30
:100B1000C207C183F99BC207C1831EB11E2D1A31C2
:100B2000C207C183420793F7C7F04183D18FC20741
:100B3000759BC183D98D93E515001EAD0EB18280E2
:100B40001E3105681308F8CFC207C183BD9BC207D9
:100B5000C1831EB11E2D1A31B206220642074183FF
:100B6000B3F70701D18E92051377F7FDD58FD98D95
:100B7000C207C205C183C18193E505011EAD0EB157
:100B8000828037F7FF1F032747701E21B7360140C9
:100B900011833D8BC2077117114303D84500922181
:100BA000C183938806C06363E306630615039386D7
:100BB0000640630AD50037570140930607C0630417
:100BC000D5006317E5040967D98F93F7F7F8C207D3
:100BD000BA21C18301A8BA2193F7F7F85D8F4207C4
:100BE00041838967D98FFA2193F7F7CFC207C18371
:100BF000D98F1EA123160503B737014012B51387FD
:100C000007C06315E5069C251EB989A8E30F15FBEF
:100C100037070040E30BE5FA13070740E307E5FA5F
:100C20003717004093060780E301D5FA930607C003
:100C3000E30DD5F8B736014093860640E307D5F8B3
:100C4000B7560140938806C0E30115F9E30FD5F6C6
:100C50006319E5001EA12316050312B585475EA999
:100C6000828013070740E307E5FEB5BF938707407F
:100C7000E30BF5F8B7570140138707C0E305E5F824
:100C8000E31EF5FC49B71E31922103D82500C207A7
:100C9000C183F99BC207C1831EB11E3156211A2D93
:100CA000C207C183420741831377C7F8518F92254A
:100CB000F59BC20633660601D18F37360140130813
:100CC00006C0C182630E050113060640630AC50013
:100CD00037560140130806C0630405016310C502BE
:100CE000B225DD9B03D8E500D18FD221ED9B93F691
:100CF000F6CFD18FD22533660601D18E56A11AAD1B
:100D0000FA215AB91EB182801E31E5769386F6CF5C
:100D1000C207C183BD9BC207C1831EB11E315221D0
:100D20001A2D03D88500C207758F9621C18393F7CA
:100D3000F7FDA206558FB62142064207B3E606012B
:100D40009206D58FB7360140C207138806C041828C
:100D50004183C183630E050193860640630AD50073
:100D6000B7560140138806C063040501631ED5020F
:100D7000B62593F7F7F703D8C5009206D58FD6218D
:100D8000C207C183920693F7F7FBD58FFD76938652
:100D9000F63FF18EF225C207C183336606010A06CB
:100DA000D18E13960601418252A11AADFA211ABDC5
:100DB0001EB182801E31962103D88500C207C183EF
:100DC00093F7F7EFC207C1831EB11E3152215A2D8E
:100DD000C207C183420741831377C7F8558FB621F5
:100DE00093F7F7DF4206B3E60601A206D58FB736C2
:100DF0000140C207138806C04182C183630E05010A
:100E000093860640630AD500B7560140138806C092
:100E100063040501631FD502FD769386F67FF58F87
:100E2000B62503D8C500A206D58FD621C207C18337
:100E3000A20693F7F7BFD58FF576FD16F18EF22552
:100E4000C207C183336606011206D18E13960601CE
:100E5000418252A15AADFA215ABD1EB182801E3183
:100E60007D777D17F98F1EB11E3152215A2DE576FF
:100E70009386F6CF758F962103D885004206A20689
:100E8000558FF976FD16F58FB62142074182B3E6FC
:100E90000601B206D58FB7360140C207138806C0D7
:100EA0004183C183630E050193860640630AD50022
:100EB000B7560140138806C063040501631BD500C3
:100EC000F176FD16F18ED2251A06D18E1396060103
:100ED000418252A15AADFA212310E5041EB182804D
:100EE000FD575EA123100500231305002311050003
:100EF000230405008280231005002311050023121E
:100F000005002313050023140500231505002316EF
:100F10000500231705008280854723100500231153
:100F200005005EA1231305002314050082801E2105
:100F300089C593E717001EA18280C207C183F99B70
:100F4000C207C183CDBF5E2501C6CD8F5EA582805D
:100F500093C5F5FFED8FDDBF035885001A2D1E31B7
:100F6000420813580801C2074207C1839206418311
:100F7000137888FF93F7D7FD558E3368B800137741
:100F8000C7CFD18F2314050113671710C207C18380
:100F90001AAD1EB182801E2189C593E707081EA1E4
:100FA0008280C207C18393F7F7F7C207C183C5BF29
:100FB0001E2DC207C183DD9BCD8F1EAD82801E2DED
:100FC0007D771307F77FF98FA205CD8FC207C18305
:100FD0001EAD82805E2DC207C183DD9BCD8F5EADCD
:100FE00082805E2D7D771307F77FF98FA205CD8F65
:100FF000C207C1835EAD82801A318547B397B700BF
:1010000093C7F7FFF98F1EB11E313316B600D18F8B
:10101000C207C1831EB182804EB182804EB98280E8
:101020000EBD82804EBD82802310B50482801E2DAD
:10103000C207C183CD9BC207C1831EAD1E2DCD8FBC
:101040001EAD82801E2D7D771307F73FF98F1EADF1
:101050001E2DA205CD8FC207C1831EAD82805E2DDD
:10106000C207C183CD9BC207C1835EAD5E2DCD8F0C
:101070005EAD82805E2D7D771307F73FF98F5EAD01
:101080005E2DA205CD8FC207C1835EAD8280EFF2D7
:101090002F969A21BE21D2219625AA842E8401EB77
:1010A000BE85A5346E20268559376FF0AF969145E1
:1010B0006318B700BE8569346E2026856137F5B7A1
:1010C00021486E20631607051A319206A2074207CF
:1010D00041831377F7EF420741831AB15A2D035822
:1010E0000502420741834208135808011377C7F0ED
:1010F000518F1378F8DF558FB3E707014207C20716
:101100004183C18393E707105AAD1EB1893F71BF78
:101110001A317D787D18337707011AB15A2DB2063E
:10112000035805022206558E8568F9769388F8CF14
:10113000FD163378D80033771701B207518FB3E724
:1011400007014207C20741838566C183D58F5AAD27
:101150001EB10D3799BF1E294A25ED8F42054181E9
:1011600089C76D8D3335A00082800145828093C58B
:10117000F5FFC205C1810EA98280EFF26F871629A3
:10118000F577FD17FD8EFE21DA250111D58F1EA9F9
:101190005625FD779387379FFD8EDE212A84AE8406
:1011A000D58F9625D58FB625D58F5EA55E29C2072A
:1011B000C18393F7F7CFD98F5EA96800EFF06FFB7B
:1011C000B747014093870780631EF402E2476547F3
:1011D000B387E7029840930640060A07B3D7E702B1
:1011E00033D7D702B3F7D7021207920793872703A3
:1011F000B3D7D702BD8BD98FC207C1831EA40561A7
:101200006FF04F81D247E1B75E2589C50967D98F55
:101210005EA5828079777D17F98FDDBF13F7F50F13
:1012200085471583B395B7006319F7009307C50089
:10123000984301CE4D8F98C382808946930745011C
:10124000E318D7FE93070501E5B793C5F5FFF98DC0
:101250008CC3828093F5F51F4EA182804A211375BD
:10126000F51F82800A216D8D3335A000828093F6B0
:10127000F50F054695822A87B317B6006391C6021B
:10128000562533F5F6001E23C207C18301C9A1818B
:1012900005473317B700F98F3335F00082800946D0
:1012A0006394C6001629F1BF5629E1BFA181854785
:1012B000B397B70093C7F7FFC207C1831EA182800F
:1012C00013060002A5459306C0021C4103870700D0
:1012D0006307C7006305B7006303D70082808507F3
:1012E0001CC1E5B7EFE2DFF041112AC66800C93F33
:1012F000B247038507004101133515006FE09FF1E8
:10130000EFE27FED2A840145EF10201C2A8A054573
:10131000EF10A01BAA890945EF10201B83A5818A25
:10132000AA845285EF80602C83A5818A08C04E85EF
:10133000EF80A02B83A5818A48C02685EF80E02A14
:1013400008C46FE09FECEFE23FE841112A844800B7
:10135000453F1C2C124B224AB249B5C30840DA85DE
:10136000EF80A028AA844840D285EF800028AA8A6E
:101370000844CE85EF8060272A89A6852685EF70F0
:101380001079AA84D6855685EF707078AA8526854F
:10139000EF70007AAA84CA854A85EF705077AA85D3
:1013A0002685EF70E07883AAC18AAA840149D68590
:1013B000EF70706C634805007D59D68421A083A42A
:1013C000C18A7D5983474403A1CF484CDA85EF8019
:1013D000C021AA8A0850D285EF8020212A8A48504D
:1013E000CE85EF808020AA89D6855685EF70307231
:1013F0002A84D2855285EF709071AA852285EF707C
:1014000020732A84CE854E85EF707070AA85228560
:10141000EF700072A685EF701066635305000549F2
:101420004A8541016FE0DFDDEFE29FDC41112A8454
:10143000AE84793508408307050089E701454101FD
:101440006FE05FDD6C00EF90E068B247184088C045
:10145000E306F7FE1CC00545DDB7EFE2FFD62E849C
:10146000AA8483A5018B0841EF70706A83A5418B24
:10147000EF70902203AB440083A5018B2A8A5A8522
:10148000EF70F06883A5418BEF7010218C442A899E
:101490005A85EF70E06983A5018BEF70506783A5D3
:1014A000418BEF70701FAA844A85EF30A06EAA8925
:1014B0002685EF30206E83A5818BAA8A4E85EF703A
:1014C000106583A5C18BAA895685EF705064AA85E3
:1014D0004E85EF70E065AA895285EF30A06BAA8532
:1014E0004E85EF70D06208C05285EF302072AA8519
:1014F0004E85EF70D06148C04A85EF302071AA89CF
:101500002685EF30A07083A5818B2A894E85EF70E8
:10151000106083A5018CEF70A06183A5C18BAA84A4
:101520004A85EF70D05EAA852685EF70606008C49A
:101530006FE01FCDEFE23FCA2A84AE89084183A540
:10154000818AEF70E05E23A0A90083A5818A2A89A1
:101550004840EF70E05D23A2A90083A5818AAA8498
:101560000844EF70E05C03AA418C2A8423A4A900FC
:10157000D2854A85EF70D0466344050483A9818CE7
:101580004A85CE85EF70304F634CA002D285268508
:10159000EF70104563460502CE852685EF70B04D8D
:1015A0006340A002D2852285EF709043634A050014
:1015B000CE852285EF70304C132515006FE0FFC4F7
:1015C0000145EDBFEFE2DFBF0111AE89AA85B68408
:1015D00032842A8AEF70B0532A89CE854E85EF7007
:1015E0001053AA854A85EF70A054EF30A06983A5F7
:1015F000018C2AC62285EF70507F130680032AC80B
:1016000081452685EFE03FC3B245814A2E85EF70C4
:101610001050C2452A842E85EF70704FAA8522850E
:10162000EF70005183A5418DEF70307C83A5818DD3
:10163000EF70B07B83A5C18DEF70100683A5018E7E
:101640002A84EF7050436346051283A5418E22859C
:10165000814AEF70F038634EA01003A9C18C228537
:10166000CA85EF705041634A050003A9018D2285A8
:10167000CA85EF70F0366353A0004A84A2852285A4
:10168000EF70F048AA8503A5018DEF7010769305E1
:1016900000002A89EF70303E634C050083AA018D5B
:1016A0004A85D685EF70D0336356A000568919A0BD
:1016B000130900004A85EF30E05C2A89D2854E8507
:1016C000EF30205C03ACC18B83AC818B03AD418BCD
:1016D00083AD018B2ACE814A4A85A285EF30605ABC
:1016E000B2452ACA4245EF30C0592ACC5245EF30A4
:1016F000E051AA8B5245EF30E049E285EF7030416E
:10170000E685EF70E0422A8BE2855E85EF7030401F
:10171000DA85EF3000572A8B7245EA85EF70303F4B
:10172000EE85EF70607788C06245DA85EF70F06B08
:1017300083A5418BEF70B03D83A5018BEF70C07521
:1017400083A5418BC8C05245EF70703C83A5018BC7
:10175000EF70807488C49385C4002685E13B88AC13
:1017600063990A0037050080F10433452501854A55
:10177000ADB7568505616FE07FA899E60145828087
:10178000014521616FE01FA9EFE29FA63971368400
:1017900034000D3D75D528007D36E34305FEF14745
:1017A000B305F5023146228593870504B3852700EA
:1017B000938585FCEFE0DFA60545E1B7EFE2DFA00A
:1017C000797111E93965130545F7EF403075014529
:1017D00045616FE0FFA24C102A84A93B65D5EF005C
:1017E0005052925A0145D685EF00503DEF00D0513E
:1017F00079FD225B0545DA85EF00503CEF00D050C3
:1018000079F5B25B0945DE85EF00503BEF00D04F24
:101810005DFD0844EF80803D2A8C48402E8AEF8091
:10182000E03CAA8908402E89EF80403CAA845E856E
:101830002E84EF80A03B2AC85A852ECAEF80003B39
:101840002AC456852EC6EF80603A2AC039652EC25A
:101850006288D2884E87CA872686A286130585F9B4
:10186000EF4090690545ADB7EFE29F9841115400F4
:10187000293719E92A843965130545FDEF40106AB7
:10188000228541016FE01F9948000D3F2A84CDBF9A
:10189000EFE21F964111EF00901483A5818A014564
:1018A000EF00902683A5818A0545EF00F02583A5EA
:1018B000818A0945EF00502583A5818E0D45EF00F3
:1018C000B024396513054500EF405065B96793872B
:1018D00047083EC003A8018283A8418203A78182F2
:1018E00003A6018383A7C18283A6418339651305BB
:1018F0000504EF40706041016FE0DF91EFE25F8F20
:10190000EF00304083A5818E0D45EF00302BEF00B6
:10191000B03F01C939651305C508EF40F05D6FE0C0
:101920007F8F39651305050ACDBFEFE27F8CEF008D
:10193000503D83A5C18E0D45EF005028EF00D03CEF
:1019400001C939651305C508EF40105B6FE09F8C36
:1019500039651305050BCDBFEFE2FF871304F5FFD3
:101960001374F40F8D4763E987042E8983A5418C96
:10197000AA844A85EF70D0066340050483A5818C54
:101980004A85EF70500F6349A002EF009037CA8577
:101990002285EF00B022EF0030371DCD2285EF0009
:1019A000D032EF80A0242A863965AE861305050F54
:1019B000A685EF40705431A803A7818303A6018454
:1019C00083A7C18383A6418439651305450CEF4085
:1019D000B05201456FE07F832285EF00102FEF802A
:1019E000E020AA8922852E89EF00302EEF00A07911
:1019F0002A8739654E86CA86A6851305C510EF402D
:101A0000B04F0545C1BFEFE2AFFE2A841165797181
:101A10008545110502CA02CC02CE02D002D202D400
:101A200002D602C602C8EFF08F8A93070020FC821C
:101A3000B71401408D473ECC4C08E1471385048024
:101A40003ECEEFE07FD093070040FC824C089147E8
:101A5000138504803ECEEFE03FCF22D037440140D3
:101A6000B7070C000C10130504803ED402D22316D5
:101A70000102EFF08FF005469305505213050480E4
:101A8000EFF0CFF9930750137C86680085473EC876
:101A900023070100EFE03FE8854513050480EFF0E0
:101AA000AFF645616FE00FF7411122C637440140A0
:101AB000930550521305048026C4EFF04FFB6303D7
:101AC000051213050480EFF06FF962056185B547D3
:101AD0006305F500A947631DF50C83C751A2F1C743
:101AE00083C651A21387C1B036972300070083C66F
:101AF00051A211479384C1B06396E60A03C7C1B0EF
:101B00009306300562076187630AD70083C7C1B0B7
:101B100013073007E207E1876396E7089C30130755
:101B20004005E207E1876389E7009C30130740071F
:101B3000E207E1876398E706BC201307F004E20799
:101B4000E1876389E700BC201307F006E207E1871D
:101B5000639AE704BC3013070005E207E187638955
:101B6000E700BC3013070007E207E187639CE70248
:101B7000EF00B01883C751A281479386C1AC338769
:101B8000F40018233386F60085076207618718A2E0
:101B900003C751A293F7F70FE373F7FE05472382BC
:101BA000E1A221A083C741A2F1D7A38201A21DA077
:101BB00003C751A29307E003E3E9E7FE03C751A27D
:101BC0009307170093F7F70FA382F1A29387C1B091
:101BD000BA9788A3374501409305505213050580F5
:101BE000EFF0CFEC3244A244410173002030EFE229
:101BF000AFDD83C741A23571638F071013048008DE
:101C0000733004800F100000130600049385C1ACEC
:101C10001385C1A8EF8040129387C1A8A38F070244
:101C2000238201A273200480C800BEC2EFF04FE9F6
:101C30001648BD6501478146A5481303C0022D45DE
:101C400093859535094E3304E80083070400137625
:101C5000F70F93FEF7FD63980E0891C2A2C2930797
:101C60000609180839653386E7009385C1A813056E
:101C7000C514230806FAEF403028B9659385451648
:101C80008808EFE04FDC59E9C800EFF06FE39644B5
:101C90008387040085C72946AC102685EF90A014E1
:101CA000A6572A84638CF400AC10C800BEC2EFF0C3
:101CB000AFF709C51645EFF0EFE221E139651305ED
:101CC0008516EF40B02581A893F7F70FB386B700CC
:101CD00094228D8A6393C60181179408BA969CA2B8
:101CE000050785468DB7E38A17F7E38867F6E31D96
:101CF000A7FC91C2A2C22D469DB79307F4FF0D47E2
:101D00006376F70039651305051865BFA655137589
:101D1000F40FEFF07FC40D616FE08FCEB96593854E
:101D2000C5198808EFE02FD215ED2285EFF08FDB83
:101D300015C9B9654146938585C5A810EFE04FCE1A
:101D4000EF00207CA810EF000075EF00E07B19C5C4
:101D5000396513058512EF40301A75BF39651305D3
:101D6000C513D5BFB9659385451A8808EFE0AFCD97
:101D700009C9B9659385C51A8808EFE0CFCC631B04
:101D8000050E2285EFF00FD66306050EE808EFF08A
:101D90002FD7AC10E808EFF04FEC0145EF00E072F0
:101DA000EF70D064AA8401452E84EF00C0732ADE50
:101DB0000545EF008071EF707063AA8905452E8993
:101DC000EF0060722A8A0945EF002070EF70106200
:101DD0002A8B0945AE8AEF000071AA8B0D45EF00F2
:101DE000C06EEF70B060AA8C0D452E8CEF00A06F16
:101DF00072572AD039654E88CA882686A28666CC54
:101E000062CE5EC85AC456C652C01305051BEF40C9
:101E1000B00E1655EF70905DAA8906552E89EF70A9
:101E2000F05CAA8476452E84EF70505C2A86396572
:101E30004E88CA882687A287AE861305C51EEF4046
:101E4000B00B4655EF70905AAA8936552E89EF701F
:101E5000F059AA8426552E84EF7050592A86396588
:101E6000AE864E88CA882687A28713050521EF40D3
:101E7000B00855B5B965938505248808EFE0AFBC77
:101E800063100512AC00C800EFF00FDA09E5396500
:101E9000130545243DB5EC00C800EFF0EFD865D937
:101EA000EC08C800EFF04FD87DD11645EFF08FC396
:101EB00079DD764AB64926495285EF7030532A8B30
:101EC0004E85AE8AEF709052AA844A852E84EF70B8
:101ED000F0512A863965AE865A88D6882687A28729
:101EE0001305C525EF405001B4105286CE854A85B2
:101EF000EFF04FED09E5396513054528D9B3A0107A
:101F0000014C930C1004B96A054D08447104EF703C
:101F1000F04DAA8B032584FE2E8BEF70304D2A8A5C
:101F2000032544FEAE89EF70704C8347C4FF2A89B5
:101F3000AE843ECC032584FFEF70504B2AC82ECAD6
:101F4000032544FFEF70904A2AC42EC6032504FFE0
:101F5000EF70D0492AC02EC25E88E685DA885287A3
:101F6000CE874A86A68613854A2AEF40E078930CEE
:101F70002004631BAC01A810EFF0EFBC6358050010
:101F800039651305052E35BB054C41B73335A00027
:101F900093051504396513058530EF40E075A5BB41
:101FA000B965938505C78808EFE0EFA901C9B96550
:101FB000938545338808EFE00FA931E9EC00C800AC
:101FC000EFF08FC609E5396513058533DDB9EC08F7
:101FD000C800EFF06FC565D9AC10C800EFF0CFC4F2
:101FE0007DD11645EFF00FB079DD2656F645364522
:101FF000EFF09F87E30105D2B965938545338808E3
:10200000EFE06FA4E31905D0EFF03F9229B3B96573
:10201000938505358808EFE00FA301E92285EFF0ED
:102020006FAC01C5EFF09F8DFDB1B9659385853526
:102030008808EFE04FA109E52285EFF0AFAA69F526
:10204000B965938505368808EFE0EF9F11E9228591
:10205000EFF04FA911C5552139651305853695B1A6
:10206000B9659385C5388808EFE0EF9D1DE12285AD
:10207000EFF04FA719CD396513054539EF40006AD8
:1020800039651305853CEF406069396513054540A6
:102090000DB9B965938545438808EFE0CF9A2DC9FE
:1020A000B965938585438808EFE0EF9935C1B96537
:1020B0009385C5438808EFE00F9939C9B9659385C1
:1020C00005448808EFE02F9821C5B96593854544FC
:1020D0008808EFE04F970DCDB96593858544880852
:1020E000EFE06F9615C5B9659385C5448808EFE0A4
:1020F0008F9519CDB965938505458808EFE0AF94B4
:1021000001C9B965938545458808EFE0CF9319ED7E
:102110002285EFF02F9D19C9294681458808EF8057
:10212000705E1375F50FEF20E05AF5B639651305AB
:10213000854541BEEFE2CF8B89476308F50263EA2C
:10214000A70009ED3705004013050540EFE01FED3E
:1021500021A08D476302F5026FE0CF8B3705004069
:1021600013050540EFE0DFEBC5BF37050040130561
:102170000540EFE03FEBCDB73705004013050540C4
:10218000EFE09FEAD1BFEFE2AF86930500002A841B
:10219000EF70600E634C050003A9418B2285CA8550
:1021A000EF7000046356A0004A8419A013040000D5
:1021B00083A5418B2285EF60304E83A5018FEF70A0
:1021C000001583A5418FEF60B01683A5818FEF6066
:1021D0003016EF701004420541816FE0AF83EFE2EB
:1021E0002F8179718545354502CA02CC02CE02C4E1
:1021F00002C62318010002D002D202D402D6EFE0B8
:102200001F8D85450945EFE07F8E37140140930708
:10221000000C8D4413050480FC824C08E1473ECE3F
:1022200026CCEFE06FD2130504C04C08E482EFE047
:10223000AFD1B707002083A7072337470F00130745
:102240000724B3D7E702370400402C0013050440ED
:1022500023150100938481A21149FD177C849567A1
:102260009387F7E13EC6EFE0DF910810EFE0BFC8CB
:10227000C16793870706130504400C103ED0231452
:10228000010223130102EFE01FA0130504400C100C
:10229000EFE09FA7130504400C10EFE0BFB113055A
:1022A00004400C10EFE0BFBB13050440A145EFE074
:1022B0003FD013050440A145EFE07FD01305044053
:1022C000A145EFE03FD113050440A145EFE07FD1E8
:1022D000130504408545EFE01FCC130504408545F8
:1022E000EFE0FFC40144B30794001375F40F23809B
:1022F000070081450504EFF0FFE3E31624FF238385
:1023000001A245616FD01FF18D4763E7A704EFD2AB
:102310003FEE938781A2AA979C23AA8485EF2E84FF
:10232000228593050000EF601075634C050003A93A
:10233000418B2285CA85EF60B06A6356A0004A844B
:1023400019A013040000B70700208A04938707022E
:10235000A69780C36FD01FEC82808D4763EFA704E0
:10236000EFD21FE92E84AA84930500002285EF6036
:102370009070634C050003A9418B2285CA85EF60EC
:1023800030666356A0004A8419A013040000B70702
:1023900000201397240093870702BA97228580C3F1
:1023A000EFF07FDEAA852685EFF0DFD8938781A244
:1023B000A697054798A36FD0FFE582808D4763EB12
:1023C000A70CEFD25FE183C761A2C1EF2E842A89F7
:1023D000930500002285EF60106A634C050083A41A
:1023E000418B2285A685EF60B05F6356A0002684EE
:1023F00019A013040000B7070020131729009387C2
:102400000702BA978443938781A2CA979C239DCFE2
:1024100003AA018D83AAC18CD2852685EF60407105
:10242000A285EF60506563400504D2852685EF7074
:10243000C01BA285EF60D05A6347A00283C761A288
:102440008DE3A2854A85EFF05FF121A8A6854A8534
:10245000EFF0BFF01305A00FEF20406483C761A227
:10246000C5DB6FD09FDA83C761A2E5FFA285268511
:10247000EF607060D28563430500D6852685EF60E6
:10248000206BAA85AA844A85EFF03FED3D45EF20F9
:10249000E06059B782800DC9EFD2FFD3AA8401440E
:1024A000914983C761A21375F40F89EF9317240034
:1024B000A6978C430504EFF07FF03D45EF20005ECA
:1024C000E31134FF6FD07FD482808D4763EAA70089
:1024D000B70700200A0593870702AA9788438280DE
:1024E0001305000082808D4763E7A700938781A2D0
:1024F0003E95082182800145828005472383E1A221
:102500008280238301A2828003C561A28280EFD2F0
:102510003FCB83D741A389EB396513058547EF404E
:10252000E01F01456FD09FCD372400208317C4E5FD
:102530000387B1801304C4E56318F70083162400F1
:102540008387A1806386D70039651305054AC1BF1B
:10255000AA8939651305C54C2387F1A2A387E1A297
:10256000EF40C01B85478144B96B03D741A3239B30
:10257000F1A263F4E70063943401054565B713875E
:10258000F7FF0A078A072297A297031C0700831CFC
:102590002700039D0700839D2700EF10C05D83D5B2
:1025A00061A319C539651305854EEF40E01495BF49
:1025B00003D641A3E2866E887D16EA876687138577
:1025C0008B51EF40601393960D0113160D019395F7
:1025D0000C0113150C01C1824182C1814181EF20A0
:1025E000A01E0DE9EF102059098919ED93968D0170
:1025F00013168D0193958C0113158C01E18661866C
:10260000E1856185EF200039396583D561A3130524
:10261000055461BF13168D0193968D0193958C011E
:1026200013158C016186E186E1856185A387C1A2CE
:102630002387D1A2EF20003619E5396583D561A340
:10264000130585569DB7EF10005319C90386E1A203
:102650008385F1A2396513054559EF40E009D1B5ED
:1026600083D761A38504C2048507C207C183C180E3
:10267000EDBD42054181994763E8A7001395050127
:1026800041811335750082800145828083C611A384
:10269000B7270020938747FE01476394E600014572
:1026A0008280039607006316A6000396270063073F
:1026B000B60005071377F70F9107C5B70545828068
:1026C00003C601A337070020AA861307075B01454D
:1026D0006365C50041657D15828083172700639679
:1026E000D70083174700E389B7FE930715001395BA
:1026F000070141816107E9BFB307C500C207C18770
:102700001D46B387C7023707002013070703BA9790
:10271000AE979C2381EF3305C502B695C205C185EE
:102720002A972E9708231335150082800145828051
:10273000EFD21FAC3305A6403689AE84EF708032ED
:102740002A8433059940EF70E031AA84A28522855E
:10275000EF60F03B2A84A6852685EF60503BAA8572
:102760002285EF60E03CEF20E0516FD0BFAA03C3A9
:1027700001A39308F00F630E1303614E330EC303DE
:10278000B70800209388085B0503238861A2F298AC
:10279000054E2380C80123AA080123A6E80023A828
:1027A000F8002393C8002394D8002391A800239213
:1027B000B8008280EFD23FA283CA01A383A9C18F50
:1027C000B704002041699384045B01447D1963656B
:1027D00054014A856FD07FA39C2099CB03AA440162
:1027E000CE855285EF60302963540500D289228955
:1027F000050442044180E104D9BF37050020372891
:102800000020239901A281460146014713050503D3
:102810000543130888D91D4EB385A600814783CE92
:102820000500639B6E0013162700050742964207BA
:102830001EA236A2418305468507C207C1839D05B6
:10284000E39FC7FD8506E399F6FC19C22399E1A22F
:102850008280EFD2FF96B707002001113D6A93876F
:102860000703416DB70D00202A8936CA3ACC130AF6
:102870008A8981493ECE7D1D938D0D5B830A0A00B6
:1028800003542900030C1A00835449005694137B07
:10289000F40FE29493FBF40F6204E204B9676184DD
:1028A000E1841385C75CA6862286CE85EF30D0648E
:1028B000994763E4670163F27703B967A6862286C6
:1028C000CE851385C75EEF3030638509A147210AA5
:1028D000E396F9FA05616FD07F929D47B307F40242
:1028E0007247BA97A697982385476319F700396509
:1028F000A6862286CE851305C561F1B763840A02D8
:1029000063020C028315490003152900E2865686EE
:10291000EFF09FDE01E93965A6862286CE85130594
:10292000856555B793170B01C20BC18793DB0B412C
:10293000DE853E853EC8EFF07FD501C93965A686A4
:102940002286CE8513054569BDBF83254A00032530
:10295000C900EF60E01DE2465246AA8A4245DE8584
:10296000EFF01FDDAA852A8C5685EF60601CAA8CCB
:102970004245DE85EFF0DFD46307A505E147330567
:10298000F502338BAD0003470B0015CF0325CB00B9
:10299000D685EF60F004E35AA0F2035729003965A9
:1029A00026862313EB0003574900A2851305456CC7
:1029B00023265B0123288B01232A9B012314EB0090
:1029C000EF30905319B7031629008316490042458A
:1029D0006688E2875687DE85EFF07FD96285EF70E3
:1029E000E0202A8C5685AE8BEF7040202A8B6685BE
:1029F000AE8AEF70A01F2AC039652EC26288DE88B9
:102A00005A87D6872686A2851305456FEF30D04EAC
:102A10006DBDEFD2EFFD37050020BD659385858D37
:102A2000930405031306100313050503EFD04FFFAE
:102A30000384F1A20389E1A22285CA85EFF07FC356
:102A400001CD1374F40F9D473304F4021379F90F89
:102A5000A294CA9423800400EFF03FDA6FD08FFB7A
:102A6000EFD26FF737050020930905039384C1B4B3
:102A7000130610039385C1B413050503EFD04FFA75
:102A80000384F1A20389E1A22285CA85EFF07FBE0B
:102A900005C11374F40F9D473304F4021379F90F41
:102AA000A299A294CA99CA942380090023800400A1
:102AB000EFF0BFD46FD06FF5EFD28FF38D47A385C2
:102AC000F1802385F180A387F1A2130610038145CD
:102AD0001385C1B42387F1A2EFD0EFF5EFF07FF3B8
:102AE0006FD04FF3EFD2CFEDB7090020056601118B
:102AF000238801A21306867E81451385095B239BEB
:102B000001A2A38801A2239A01A2372D0020EFD0B1
:102B10008FF21306400C814513054DFEEFD0AFF147
:102B2000372900201306400C81451305C9E5EFD075
:102B30008FF0372400201306400C8145130504F262
:102B4000EFD06FEF8384B180994713F7F40F63E6FA
:102B5000E702838DA18013F7FD0F63E0E702038690
:102B600091801377F60F63EAE700B70B00208386A6
:102B70008B2313F7F60F63FCE700396513054572E5
:102B8000EF30D039814C668505616FD02FE79D45C8
:102B90003387B402B7070020938707033E976E97E9
:102BA000082305476309E500B305B602AE97B6975B
:102BB0009C236396E700396513054574D1B7EE850C
:102BC0002685EFF0FFB6AA872A88EE862686EE8550
:102BD000268513070000EFF09FB9C167FD178144F8
:102BE0003EC4E14DEFF01FBDA2478386918003876D
:102BF0008B23630BF508B307B503370600201306D4
:102C0000065BB2970388270083854700A38601A34C
:102C10002386B1A263940601638AE5083305B503F0
:102C20003ECEB70700209387075B3ACC36CA2EC842
:102C300042C63E95230005004285EFF03FA5D246EF
:102C40006247F24705E503C611A39305000363EF4E
:102C5000C5003248C2459318260013054DFE46951F
:102C60000506231005012EA1A388C1A20386A18019
:102C70008385B1803E858504EFF0BFBDC204C1806D
:102C800093071003E390F4F6814C03878B2383862C
:102C90009180838BB1800386A180639B0C00396592
:102CA000DE8513058576EF303025E9BD854CF1BF13
:102CB000B7270020416D130C04F23685BA85130442
:102CC00004F2814A138B07F27D1D9389095B930DF2
:102CD0001003850AC20A0AA02EA093DA0A0163949F
:102CE000AB006304B60232C4EFF09F9D6307A503F7
:102CF00061473305E50222461104B387A900039515
:102D0000670083958700E396BAFD9387FAFF8A07E9
:102D1000DA9703970700630677013965130505798C
:102D200085B583972700E39AC7FE239A51A3B72955
:102D300000208A0AB3075B011309C9E59389C9E535
:102D400003A7C7FFF1171109232EE9FEE31AFCFEC2
:102D500083D541A3A38771A339652387C1A2130536
:102D6000C57C2686EF3050190144B96405A093173D
:102D70002400CE978396270003960700A2850504BA
:102D80001385447B4204EF303017418083D741A341
:102D9000E36FF4FCCDBBEFD2AFC513051003EFF02A
:102DA0000FF72A8405C58387F1A283859180639FED
:102DB000F500370700208387E1A203068723631706
:102DC000F60039651305857FEF30101322856FD02B
:102DD0006FC4EFD2EFBE411135E1EFF09FC303C7DF
:102DE000F1A2A385E18003C7E1A22385E180EF0082
:102DF000905811C50944228541016FD02FC0EFF0D2
:102E00007FCE19E10144C5BFEFF0FFF819E5EF00EF
:102E100090563334A0000604F9BF0387F1A28387DC
:102E200091800144E319F7FCB70700200384E1A275
:102E3000838787231D8C1334140075BF85472A842C
:102E4000E312F5FCEFF0DFC183A70190B70B002080
:102E5000938B0B03138CC1B43EC68387F1A2838589
:102E600091806390F502370700208387E1A2030673
:102E700087236318F6003D6513058586EF30D0077C
:102E80009DBFEF00504F2A8935F5B7270020938763
:102E9000871284473D6A130A8A89014D814A8387D4
:102EA000F1A203070A008389E1A2BA97C207C1878A
:102EB0003EC483071A002245BE99C20993D909412D
:102EC000CE85EFF00FFB51C9EF00F04A0DC59147D9
:102ED00063F8270183A501902685EF507045AA84E9
:102EE000EF0070490989E31405F2E3020DF226852B
:102EF000EF10607929BF13F9FA0FA6854A85EF1004
:102F0000101D05E1914763F8270183A501902685EF
:102F1000EF501042AA84EF0010460989E31905EE2C
:102F2000F9B718849D4683C791A33307D70213F6D8
:102F3000F90FB337F0003D65D68513058582054D41
:102F4000B386EB0062973297B2961CA3224603C762
:102F500091A39CA2CE86EF30207A850AA147210A50
:102F6000E39FFAF2631F0D0483C7F1A21D4783C6D6
:102F7000E1A2B387E7023387FB00E2973697B69763
:102F80002300070023800700EFF03F87EF00B03EEB
:102F9000E31205E603C7F1A2A385E18003C7E1A21E
:102FA0002385E180EFF01FB4E30E05E403D741A3CE
:102FB0008547E3F9E7E40545EFF06FD5E31F05E842
:102FC000B9B5914763F72701B2452685EF505036D2
:102FD000AA842685EF10206B41F915BDEFD24FA1D1
:102FE0007971854537050200EFD05FB0854513053F
:102FF0001002EFD0DFAD85452145EFD09F82371419
:103000000140E1473ECE8D44930700024C08130572
:103010000440FC8226CCEFD02FF3930780043ECEF1
:103020004C089307000413050440FC8226CCEFD023
:10303000AFF1896737440040938707583ED00C10A2
:10304000B7070C00130504403ED402D22316010238
:10305000EFE0AF9205469305505213050440EFE0B0
:10306000EF9B0945EFD0DF8A85471307601368009F
:103070003EC878865C87EFD01F8A854513050440DB
:10308000EFE08F9845616FD0EF989307800873B099
:1030900007800F100000238C01A2A38C01A2A3863D
:1030A00001A673A007808280411126C4B744004066
:1030B000930550521385044022C6EFE04F9B85478D
:1030C0006319F5042A8413850440EFE02F99937760
:1030D000F50F2387F1A681E7A38C01A2B1A0639924
:1030E0008700A38CF1A2A386F1A6238C01A211A8CC
:1030F00083C681A3A1E6930600036391D702238CC4
:1031000081A2374500409305505213050540EFE07A
:10311000EF993244A244410173002030930610031A
:103120006397D700A38C81A2A38681A67DBFB546F5
:10313000E389D7FCA946E39AD7FAE1B793060003DF
:10314000E38CD7F893061003E38ED7FCB54663856E
:10315000D700A946E39BD7F8A38C01A28546A38696
:10316000D1A661B719E501458280014541016FD0C3
:103170006F8AEFD2EF87411129462E846C00EF70E1
:10318000904613060002A546B2470387070063076F
:10319000C7026305D70271FB130740069307400679
:1031A000634BA7001307C0F99307C0F96345E50017
:1031B00093170501C1871EA005454DBF85073EC673
:1031C000E1B783A701A5850723A8F1A4A384A1A43F
:1031D0009307B0056318F5008547238BF1A4A38BF3
:1031E00001A4828083C761A5EDDF9306D005631734
:1031F000D50683C571A5B72600201386860E2E96A8
:1032000023000600238B01A403C771A59386860EB5
:1032100011C703A7C1A4050723A6E1A403C741A5BD
:103220005DDF03C771A545DF03C771A5B725002082
:1032300001479385850A3386E60010223385E50031
:1032400005076206618610A103C671A51377F70F03
:10325000E373E6FE8546A38AD1A451B703C671A5E0
:103260009306E00363E3C60283C671A56205618528
:10327000138716001377F70FA38BE1A4B72700205D
:103280009387870EB69788A38280238B01A481BF82
:10329000EFC21FF6375400409304800813040480E3
:1032A00073B004800F100000930500022285EFD058
:1032B0007FFB09E573A004806FC0DFF52285EFD0A6
:1032C000FFF91375F50FEFF0DFEF73A00480C9BFAE
:1032D00091E50146930540066F00D06C9397050178
:1032E0002A87C18363D60500B307F040C207C183B4
:1032F0008507C20793062003C183B387D7029306CD
:10330000400613A615003A85B3D7D702B387F64017
:1033100093950701C181C9B7EFC29FED2A840DC5FE
:10332000930600022547830704006382D702638067
:10333000E7022285EF60D01C229593060002254704
:103340006369A4002300050022856FC0BFEC05045B
:10335000D9BF8307F5FF6384D700E395E7FE7D15AA
:10336000C5B7EFC2FFE8EF007060238401A46FC00F
:103370007FEA9307800873B007800F100000333591
:10338000A000238AA1A4A38B01A4238B01A4A38A58
:1033900001A473A007806FF0DFFCEFC27FE57971B5
:1033A00085453705040002CA02CC02CE02D002D203
:1033B00002D402D602C602C8EFD04FF38545454578
:1033C000EFD0EFF03705140085454105EFD06FC50C
:1033D00093070040FC82E1473ECE4C088D473715ED
:1033E00001403ECCEFD04FB6856793870780FC82C3
:1033F0004C0893078004371501403ECEEFD0CFB480
:10340000896737540040938707583ED00C10B707A0
:103410000C00130504803ED402D223160102EFD023
:10342000DFD505469305505213050480EFD01FDF0A
:10343000930770137C8689475C87680085473EC880
:10344000EFD06FCD854513050480EFD0FFDB054538
:10345000EFF03FF245616FC0FFDB03C581A48280BE
:10346000EFC21FD903A441A6EFF09FE283A7C1A337
:1034700093063006B307F44063F0F60823AE81A24A
:1034800013058008733005800F10000003A601A506
:1034900083A6C1A403C791A483C541A583C761A521
:1034A00003C851A51377F70F93F5F50F93F7F70FAF
:1034B0001378F80F732005803D651305C590EF3034
:1034C000A02303C7A1A30DEB0547238DE1A2B707F6
:1034D0000140CC43B7170140D043B757004083D6D3
:1034E000C78003D7878083D707803D6593F50503A1
:1034F0001305C595EF3040206FC0DFD1EFC25FCF1D
:1035000037540040AA8513050480EFD0BFD41304BC
:103510000480930500082285EFD0DFD47DD96FC0E9
:103520007FCF357186DEA2DC2EC332C536C73AC9DD
:103530003ECB42CD46CF09CD54012A8693054006A5
:10354000680036C46000EF70F0220305040009E54E
:10355000F65066540D6182801375F50F0504EFF087
:10356000FFF9E5B7EFC23FC75D7103A941A6EFF0D0
:103570003FD283C741A595CF9307800873B00780DA
:103580000F10000003C751A505EB73A0078083C788
:1035900081A485C383A741A43309F940930730066A
:1035A00063F92701EFF0FFDB3D651305C5B0EF3090
:1035B000E01661616FC07FC5B72600208147938602
:1035C000860A930500043387F600182308083E9501
:1035D0006207618718A101C78507E396B7FEA307B5
:1035E0000104A38A01A49307800873A007803D65A6
:1035F0000C081305459BEF302010BD6525469385CB
:10360000C59C0808EF60C070631B05143D649305FA
:10361000449D0808EF70005C63030514BD65938545
:10362000859DEFC05FC2631C05129305449DEF703A
:10363000605AAA8A9305449D0145EF70A0599305ED
:10364000449D2A8A0145EF70E0589305449DAA895C
:103650000145EF702058AA844C005685EFF09FB0CA
:10366000630F050E930561005285EFF0BFAF63084D
:10367000050E2C004E85EFF0FFAE6302050E93059C
:10368000A1002685EFF01FAE79C99305449D014541
:10369000EF70405469E58314610039478319810054
:1036A00093877400C207C18326846363F7000144D3
:1036B0001387790042074183B946CE8763E3E6006A
:1036C0008147B305F4001D8C93D6F5411356F441A0
:1036D000B3C7B60033478600118F958F63D3E700D9
:1036E000BA8713074006635AF700B385E50233042F
:1036F000E402B3C5F5023344F402B3E78500A9E35D
:10370000EFF03FC623A221A583C7C18081EB83A729
:1037100001A42546B307F940E37BF6E623A021A5E3
:1037200083C781A40317A100831541003D6523864B
:1037300001802686CE861305459EEF20F07B81BD55
:10374000C205C1850145EFF0BFB893150401C185DD
:103750000545EFF0FFB785472384F1A465B7BD6544
:103760001D46938585A10808EF60805A63120528DD
:103770003D6A93054A9D0808EF70C04593054A9D30
:10378000AA840145EF700045EFF01FB92A84930524
:103790004A9D0145EF700044AA89638B0424268565
:1037A000EFF09FB7BD65938505A2EFC0DFA9631158
:1037B0000524630F04224E85EFF01FB6AA89630922
:1037C000052283070500638507226C00EF708030B7
:1037D000AA8413060002A546B247038707006305C3
:1037E000C71A6303D71A6385F92063130720A685D8
:1037F0002685EF501019631D051E83A5419026856F
:10380000EF5070276346051E83A581902685EF50F3
:10381000301D634FA01C93054A9D0145EF70803B0E
:103820006318051CBD65938585A22285EFC0BFA1E5
:10383000630F0514BD659385C5A22285EFC0BFA0A7
:1038400063070514BD65938505A32285EFC0BF9F5F
:10385000630F0512BD65938545A32285EFC0BF9E0A
:1038600063070512BD65938585A32285EFC0BF9DC3
:10387000630F0510BD659385C5A32285EFC0BF9C6E
:1038800063070510BD65938505A42285EFC0BF9B26
:10389000630D0512BD65938545A42285EFC0BF9ACF
:1038A00063050512BD65938585A42285EFC0BF9988
:1038B000630D0510BD659385C5A42285EFC0BF9833
:1038C00063050510BD65938505A52285EFC0BF97EB
:1038D000630D050EBD65938545A52285EFC0BF9696
:1038E0006307050EBD65938585A52285EFC0BF954D
:1038F000630F050CBD659385C5A52285EFC0BF94F8
:103900006307050CBD65938505A62285EFC0BF93AF
:10391000630F050ABD65938545A62285EFC0BF925A
:103920005DC5BD65938585A62285EFC0DF9139C948
:10393000BD659385C5A62285EFC0FF9021C5BD65F5
:10394000938505A72285EFC01F900DCDBD6593859A
:1039500045A72285EFC03F8F15C5BD65938585A717
:103960002285EFC05F8E19CDBD659385C5A72285E1
:10397000EFC07F8D01C9BD65938545A82285EFC045
:103980009F8C3DE5114429A085073EC6B1B505448D
:10399000EFF03F9D2685EF6060252A862A8A3D65E7
:1039A000AE86AE891305C5A8A285EF20F054A68582
:1039B0002285EFD07FFA11ED3D655286CE86A28535
:1039C0001305C5AAEFF0FFB5D9B60944D1B70D4428
:1039D000C1B71305F4FF1375F50FEFE01FAFEF60EC
:1039E000E0202A863D65AE86130545ACA285D9BF89
:1039F0003D650C08130585ADEF2010503D6513059E
:103A000045AFEFF01FB261B6411122C637540040F6
:103A10009305505213050480EFD07F8509C9130523
:103A20000480EFD0BF831375F50FEFF08FF93244A8
:103A3000410173002030EFC2AFFB41118545414584
:103A400002C202C402C6EFD08F8891477C829307DE
:103A500080043EC64C008D47371501403EC4EFC080
:103A6000BFCE914537150140EFC0DFD913351500A2
:103A7000238EA1A4A38DA1A4238D01A4A38C01A4B2
:103A8000238C01A4238F01A40547A38EE1A4410147
:103A90006FC04FF883C7D1A5DDCFEFC26FF5914559
:103AA00037150140EFC01FD683C5C1A59336150059
:103AB0006391D50483C7A1A5894563E2F504850711
:103AC00093F7F70F238DF1A40D46638AC70283C7CE
:103AD00091A5B5C783C781A5130610036373F606C6
:103AE000A38C01A483C7E1A5238C01A493E717004D
:103AF0003DA8238ED1A48547238DF1A4C9BF83C5DA
:103B0000B1A503C691A5E384D5FCA38DD1A461F131
:103B100015C203C681A59306100363EDC600A38CEE
:103B200001A4238C01A483C7E1A593E72700238F79
:103B3000F1A431A08546A38CD1A4238C01A46FC02D
:103B40006FED850793F7F70F238CF1A4130620037D
:103B5000E397C7FE71B782809307800873B0078030
:103B60000F10000003C5E1A5238F01A41375F50F05
:103B700073A00780828003C5E1A582809307800837
:103B800073B007800F100000238F01A473A007807B
:103B90008280EFC2EFE5797185454145EFC03FF383
:103BA00085452145EFC0BFF285450545EFC03FF291
:103BB00085450965EFC0BFF1854537051000EFC0A9
:103BC0001FF13705008081451105EFC09FC53705FE
:103BD0001580814513050504EFC0BFC49307000C91
:103BE0002312F10291448D474C103715014026D61F
:103BF0003ED4EFC07FB537150140930700304C101D
:103C0000130505C02312F102EFC01FB46800EFD006
:103C10002FAD37340140C167FD176C001305044018
:103C20003EC802C6EFC0FFF56C0037550140EFC03B
:103C30005FF513050440814601468D45EFD0CFB1B5
:103C4000814601468D4537550140EFD0EFB0280839
:103C5000EFD08FACA9472C08130504402310F102C4
:103C6000231C0100EFD0AFC22C0837550140EFD024
:103C70000FC22C0813050440E484EFD04FC12C0878
:103C800037550140EFD0AFC0130504408145EFD058
:103C9000AFB8814537550140EFD00FB81305044048
:103CA0008545EFD0CFA8854537550140EFD02FA8E7
:103CB00045616FC02FD6EFC2AFD32A8637150140BA
:103CC00093050040130505C0EFC01FB52945EF005F
:103CD00090596FC02FD4EFC2AFD12A8685653715B2
:103CE000014093850580130505C0EFC0FFB229454B
:103CF000EF0070576FC00FD2EFC28FCF85653715B9
:103D0000014093850580130505C0EFC0BFAF2A842D
:103D10002945EF00505522856FC0CFCFEFC24FCD60
:103D2000411185452145EFC09FDAB7140140D147C5
:103D30000564130404C03EC64C008D47138504C0BF
:103D40003EC46082EFC05FA0A285138504C0EFC0AF
:103D50003FAC41016FC00FCCEFC28FC90545EFF0FA
:103D60009FF70545EFF03FF50145EFF0DFF6014520
:103D7000EFF07FF46FC00FCAEFC28FC70145EFF0BD
:103D80009FF50545EFF03FF30545EFF0DFF46FC019
:103D90006FC8EFC24FC4AA840144930900082149A7
:103DA00033D58940658DEFF01FF30545EFF0BFF087
:103DB00001450504EFF03FF0E31424FF6FC0EFC4AA
:103DC000EFC26FC10545EFF01FF181440144930933
:103DD000000821490545EFF01FEEEFF0FFF18547A0
:103DE0006317F500B3D799405D8C1374F40F014548
:103DF0008504EFF05FECE39F24FD22856FC0EFC0E8
:103E0000EFC20FBFEFF03FED0545EFF0DFEA0145F0
:103E1000EFF07FEA6FC00FC0EFC28FBD0545EFF036
:103E20009FEB0545EFF03FE9EFF01FED2A840145D8
:103E3000EFF07FE822856FC0EFBDEFC26FBB2E842D
:103E4000AA84EFF07FF11305000DEFF09FF4EFF07F
:103E5000BFFC2685EFF0FFF3EFF01FFC2285EFF0AB
:103E60005FF3EFF07FFBEFF03FF16FC0AFBAEFC24F
:103E70002FB82A84EFF05FEE1305000DEFF07FF10D
:103E8000EFF09FF92285EFF0DFF0EFF0FFF8EFF0B1
:103E9000BFEC1305100DEFF0DFEFEFF0FFF7EFF0E1
:103EA0003FF22A840545EFF0BFF5EFF0FFEC2285E5
:103EB0006FC04FB6EFC2CFB313057004EFF03FFBF6
:103EC0002A8413058004EFF09FFA2204418D4205F5
:103ED00041856FC02FB4EFC2AFB10111EFF01FE405
:103EE00085451305B006EFF05FF581451305C00663
:103EF000EFF0BFF4A5456545EFF03FF499456945FE
:103F0000EFF0BFF3E1456D45EFF03FF3E14571455B
:103F1000EFF0BFF213054006EF00503813044006DF
:103F200081447D14EFF01FF94204AA944180294591
:103F3000EF00D0367DF42685EF50D03283A5818BFB
:103F400037140040EF4050751307000023A4A1A6CA
:103F5000B727002023AEE712B727002093878712E8
:103F600098C723A0E1A68545114523A201A602CA50
:103F700002CC231E010002C602C8EFC03FB7B7073C
:103F8000002083A70723096713070771B3D7E70248
:103F90004C0813050480231B0100230E0100FD17AC
:103FA000FC82930730063ECCEFC0BFBD13050480F2
:103FB0008545EFD0CF9B0546854513050480EFC0AE
:103FC0009FF89307E0227C86680085473EC8230758
:103FD0000100EFC05F94854513050480EFC03FF5F5
:103FE00005616FC02FA3EFC2AFA0EFF0BFECB72702
:103FF00000202395A714EF50F02683A581A637242F
:10400000002013048412EF50405E83A5C190EF504E
:104010000030B70700803D8D23A0A1A683A50191A4
:104020000444EF50C02EA685EF409030B727002003
:1040300023AEA71208C46FC0EF9D411122C63714EA
:104040000040854513050480EFD0EF9019CD8545DC
:1040500013050480EFD0AF91EFF0DFA3EFF0BFF8CE
:1040600083A741A6850723A2F1A63244410173002C
:104070002030EFC2EF97797185451545EFC03FA518
:1040800085450545EFC09FA6371401409547414936
:104090008D444C0813050480FC824ACE26CCEFC028
:1040A000AFEAA9474C0813050480FC824ACE26CC0F
:1040B000EFC08FE913050480A945EFC0AFF5B7073E
:1040C000002083A7072361671307076AB3D7E702B6
:1040D0002C00370500402315010023080100FD17BF
:1040E0007C84930730063EC6EFC0BFA90810EFC01E
:1040F0009FE0C167938707060C10370500403ED04C
:104100002314010223130102EFC0FFB70C1037057F
:104110000040EFC07FBF0C1037050040EFC09FC9C3
:104120000C1037050040EFC09FD3A1453705004074
:10413000EFC01FE8A14537050040EFC05FE8A1458B
:1041400037050040EFC01FE9A14537050040EFC02B
:104150005FE9854537050040EFC0FFE3854537053A
:104160000040EFC0DFDC45616FC0CF8AEFC24F88EF
:10417000411185451145EFC09F95BD47371401405A
:104180007C82C1473EC64C008D47130504803EC467
:10419000EFC08FDBBD4513050480EFC06FE7410121
:1041A0006FC04F87EFC22F8341112A892E84154596
:1041B0008545B284EFC0BF918547CDE863110906FC
:1041C000B71401407C820D49C1474C00138504801F
:1041D0003EC64AC4EFC04FD70546854513850480C7
:1041E000EFC08FE389477C824C00E1471385048050
:1041F0003EC64AC4EFC04FD5A28537050040EFC088
:104200003FE20546914537050040EFC0FFDE85459A
:1042100037050040EFC0BFD141016FB01FFFE31869
:10422000F9FEB7140140A1477C820D49C1474C00FB
:10423000138504803EC64AC4EFC00FD10546A14590
:1042400013850480EFC04FDD91477C824C00E1472D
:10425000138504803EC64AC4EFC00FCFA285370540
:104260000040EFC03FDC0546A14571BFE391F4FA81
:10427000631609043719014089477C828D49C1477B
:104280004C00130509803EC64EC4EFC0EFCB054677
:10429000894513050980EFC02FD8E1474C0013056D
:1042A00009803EC664824EC4EFC00FCAA28537059E
:1042B0000040EFC0BFD605468145B1B7E31999F478
:1042C000B714014091477C820D49C1474C001385CA
:1042D00004803EC64AC4EFC02FC7054691451385EA
:1042E0000480EFC06FD3A1477C824C00E147138567
:1042F00004803EC64AC4EFC02FC5A28537050040E2
:10430000EFC09FD20546B145FDBDEFB27FEE2E84D2
:1043100001CD01460145EFF0FFE80546A2850545C0
:10432000EFF05FE86FB01FEF0546EFF0BFE7014623
:10433000F5B7EFB2FFE8B7240020938784129C47BB
:1043400039713ED0825583A741A62ACE3ED4EF5084
:10435000C02983A7018D06050581BE853ED2EF40A9
:104360009071938784123EDA6348A000EFF01FE05B
:10437000054521616FB09FE8F2450255814DEF4040
:10438000906F9357F5013E85930580023ED6EFF07E
:10439000DFF783A78191A25C3EDC83A741913ED8E1
:1043A00083A7C1913EDEEFF00FFD137C2500631063
:1043B0000C1AD257F24502558447EF40D06B635533
:1043C000050A7245A685EF504022AA8A03A501A6D8
:1043D000E25506050581EF4090739255AA8BEF4098
:1043E000906963460508C2555E85EF40705F634281
:1043F000A008D6855E85EF40B05E635B05146381DF
:104400000D0C83A741A62547B38797416365F7063F
:10441000854D225783A741A6998F1307F031E37486
:10442000F7F80549EFF09FD40145631C0C0203AA7D
:1044300041A683AC0192B7090080D28A130B3006E3
:10444000FD19114D83A741A6B38747416368FB005F
:10445000EFF06FF293742500638E040E054533056B
:1044600025411375F50F31B7F2452685A9BF925B3B
:1044700049B7C25BBDBF2685EF50407783AC41A6EC
:104480002A8903A501A6AE84EF5040762A8A568574
:10449000AE89EF50A0752A8B5E85AE8AEF5000750D
:1044A000D1472AC03D653EC42EC25A88D68852875D
:1044B000CE874A86A686130505B3EF20E02391BF79
:1044C000F2555685EF40305B6344A0043255D14528
:1044D000EFF0BFE383A741A62547B3879741E37970
:1044E000F7F22685EF50807083AC41A62A8903A598
:1044F00001A6AE84854DEF50606F2A8A5685AE893D
:10450000EF50C06E2A8B5E85AE8AEF50206E49BF99
:1045100083A741A62547B3879741E37CF7EE26851D
:10452000EF50C06C83AC41A62A8903A501A6AE84D6
:10453000EF50C06B2A8A5685AE89EF50206B2A8BCC
:104540005E85AE8AEF50806A9307800299BF054C62
:104550000149C9BD83A741A66385570383AA41A624
:1045600003A501A6E68533F5A900EF40D0506348C6
:10457000A00093041C0093F4F40FE3619DEE268CDD
:10458000D1B5E284EDBFEFB23FC483A54192B73904
:104590000140EF40D05783A581929389094003AB36
:1045A00041A6EF40D05683A5C191930B703EEF40DA
:1045B0001056EF50A06303A6818483A6C184375CA4
:1045C0000140854CEF20107C03A6018583A6418520
:1045D000EF20D00CEF40A029B757014023920902E9
:1045E0002392070293140501014693052003014518
:1045F000238601A6EFF01FBB014693052003054566
:10460000C180EFF03FBA83C7C1A613FAF70F95CB6D
:104610000144014AEFF09FB5B737014023920742AA
:10462000B757014023920702238601A663050A04B7
:104630003D65A6851305C5B6EF20000C01456FB09A
:104640003FBCEFF04FD31374250005E483D7490234
:1046500063E9970083574C0263E59700238691A78F
:104660005DB783A741A6B3876741E3FEFBF8054A20
:1046700055B7054445B7054579D03D65130505B9DE
:10468000EF20C00965BF6FF0DFCAEFB27FB6B72772
:10469000002093878712804783A5C192EF4030475F
:1046A000A285EF40E048EFF0DFC86FB0BFB6EFB2D1
:1046B0003FB4B727002093878712804783A5C19214
:1046C000EF40F044AA852285EF403072EFF07FC6BC
:1046D0006FB05FB4EFB23FB09307C0022A84630F9C
:1046E000F50A63E6A702D947630DF50A63EAA70056
:1046F00045CDAD47630DF50A814426856FB0FFB007
:1047000093071002E31AF5FE83A441930DA89307C3
:10471000D0046301F50A63EDA70093077003630EED
:10472000F50893072004E319F5FC83A4C19301A8BD
:10473000930780058144E312F5FC83A40190372997
:1047400000209307891283AA87002685EF50004A2C
:104750002A8A5685AE89EF5060492A863D65AE8625
:104760005287CE87A285130545BCEF10F0782685C9
:10477000EFF03FBCAA841309891239E13D641304A8
:10478000C4BB03258900EF5060462A863D65AE868E
:10479000130505BFA285EF10307685B783A4418B42
:1047A00079BF83A4818A61BF9304000049BF83A4B9
:1047B000019371B783A4019459B783A4819341B73E
:1047C0003D64130444BB75BFEFB29FA23308A640FB
:1047D0001378F80F3687B387B6409306180093F620
:1047E000F60F894863EAD800E207E187FD5663C502
:1047F000D700854863DDF800B2862E86AA853D6520
:10480000130545C0EF10506F01456FB0BFA062089F
:10481000135888416315D804639F17013D6513053C
:10482000C5C3EF10B06F03A54194EFF05FE869DDF9
:1048300003A5819481A081EF3D65130585C4EF1028
:10484000F06D03A54191EFF09FE65DDD15A03D659C
:10485000130545C5EF10906C03A50195F9B76319D1
:104860000802639C17013D65130505C4EF10106B2A
:1048700003A5C194EFF03FD149BF0545E397D7F8B1
:104880003D65130585C5EF10706903A5419565BFAA
:10489000639C17013D65130545C6EF10306803A5FD
:1048A0004194EFF09FDE61B799EB3D65130545C775
:1048B000EF10D06603A54191EFF03FDD79B73D657C
:1048C000130505C8EF10906503A50195D9BF9D4755
:1048D00063E0A70CEFB23F90AE842A84EF504025EE
:1048E00083A50193EF40B022A685EF406024EFF04E
:1048F0005FA451C1EFF02FA83DEDEFE00FF905885F
:104900009305F00F31E03744004013050440EFC039
:104910007F9413040440930500082285EFC09F9400
:104920007DD93D65130505C9EF10505F03A941A668
:104930009309703E83C7D1A69DC73D65130545CE3B
:10494000EF10D05D05450DA8374400401305044025
:10495000EFC05F9013040440930500082285EFC068
:104960007F907DD97DBFEFF00FA109C93D6513058B
:1049700005CAEF10B05A01456FB03F8983A741A621
:10498000B3872741E3F8F9FA3D65130585CCD5B720
:1049900001458280EFB2DF85098E62068D8EE206C8
:1049A0006186FD57E1866311F6048547639DF60035
:1049B0003D65130505CFEF10705603A54194EFF048
:1049C000DFCC6FB03F8589EA3D65130505D0EF1058
:1049D000B05203A54191E5B73D65130505D1EF1030
:1049E000B05103A50195E1BF01EE0545E39BF6FC3F
:1049F0003D65130505D2EF10305003A54195C1B7B1
:104A00008547639CF6003D65130505D3EF101051F3
:104A100003A54194EFF0BFC96DB789EA3D65130561
:104A200005D4EF10B04F03A54191EDB73D651305D7
:104A300005D5EF10B04E03A50195E9BFB7070020DB
:104A400083A7072337177A0013070720B3D7E70296
:104A500093F7F70F2389F1A61307803EB387E70288
:104A60002398F1A68280B7F700E0D8438146799B6E
:104A7000D8C303C721A73306A70290CBD4CB984352
:104A80001367070198C398431367170298C3D84365
:104A9000058B75DF9843799B98C38280B7F700E058
:104AA000D8438146799BD8C303D701A73306A70211
:104AB00090CBD4CB98431367070198C398431367EF
:104AC000170298C3D843058B75DF9843799B98C329
:104AD0008280EFB2EFF12A8411650111854511053D
:104AE000EFB0FFFE930700207C82371501408D4711
:104AF0003EC44C00E147130505803EC6EFB0DFC45D
:104B000022C837440140B70708000C081305048089
:104B10003ECC02CA231E0100EFC02FE685451305D7
:104B20000480EFC06FEE05616FB0CFEEEFB2AFEA79
:104B300037490140AE89328481441309098063C535
:104B4000840022856FB06FEC930500044A85EFC0A6
:104B50006FF17DD9B3879900838507004A85850465
:104B6000C205C181EFC00FEFD9BFAA8703A501819C
:104B7000372700201307C714AA9763EBE70037878E
:104B80000020130707806365F70023A8F180828067
:104B90007D558280011122CC370400809307F4FFF9
:104BA0003717493F06CEE98F130787FD6369F70082
:104BB0006244F2409305000005616F00006E370704
:104BC000807F63E9E700AA85EF403022F24062442B
:104BD000056182802C00B124937735000547B245EA
:104BE00022456389E7000947638BE70081EFEF0007
:104BF000C06AE9BF0546EF007064218DC1BFEF00B8
:104C0000C069E5BF0546EF007063C9B7011122CC4A
:104C1000370400809307F4FF3717493F06CEE98F2A
:104C2000130787FD636AF7006244F240014693056B
:104C3000000005616F0090603707807F63E9E7003F
:104C4000AA85EF40901AF2406244056182802C00F0
:104C5000C92A937735000547B2452245638AE700A4
:104C600009476389E70081EF0546EF00305DE1BF4A
:104C70002D25D1BF0546EF00705C218DE9B7312DA0
:104C8000EDBFA9A0411122C426C206C6AA84E52907
:104C90002A84A6852685EF40104E1DE1930500006D
:104CA0002685EF40405D635D0500EF5000059307EA
:104CB0001002930500001CC12E85EF40E01D2A84E0
:104CC000B24022852244924441018280370700800D
:104CD00041117D1706C622C4B376B7003706807F20
:104CE000AA876366D600698F2A886377E6003E85C7
:104CF000EF301064AA8735A03703803F63976500C3
:104D00002244B24041016F00106513D4E541098887
:104D10007D81498C01EF09476301E40E0D47630370
:104D2000E40EB24022443E854101828081EA63550F
:104D3000080E97B7FF1F83A72766E5B7639BC602D8
:104D40007D14631DD700894763E3870C0A0497A786
:104D500000009387E701A2979C43E1B709479307B7
:104D60000000E36087FC0A0497A70000938787FF91
:104D7000DDB7E30EC7FA158F5D879306C00363C3E3
:104D8000E60463D60500930640FC6342D7043E85E3
:104D9000EF408010EF102003EF00F05BAA8705477B
:104DA000630AE4020947630BE40225DC97B5FF1FA1
:104DB00083A5C55E3E85EF30B05797B5FF1F83A52D
:104DC00065520DA897B7FF1F83A7475CC9BF93071C
:104DD0000000F1B737070080B98FA1B797B5FF1F63
:104DE00083A5C55B3E85EF30B054AA8517B5FF1F7C
:104DF0000325454FEF40607FF5BD97B7FF1F83A7A1
:104E0000674E05B797B7FF1F83A7875819BF97B796
:104E1000FF1F83A7275831B797B7FF1F83A70757EF
:104E200009B739714AD83709008026DAB717493FE0
:104E30009304F9FF22DC5AD006DE4ED652D456D265
:104E40005ECE62CCE98C938787FD2A8B2E8463E843
:104E5000970008C093070000DCC18149B1A8B7D70B
:104E60001640938737BE2A8C63E197104119337936
:104E7000A90097B5FF1F83A5A5526353A008EF4073
:104E8000C076B717C93F938707FDAA896303F90462
:104E900097B5FF1F83A50551EF402075AA85AA8409
:104EA0004E85EF40807497B5FF1F83A5A54FEF4057
:104EB000C07348C004C08549F2506254D25442596C
:104EC000225A925A025BF24B624C4E85B2592161D2
:104ED000828097B5FF1F83A5254DEF40007197B5E0
:104EE000FF1F83A5A54C2A89EF402070AA85AA84BC
:104EF0004A85EF40806F97B5FF1F83A5254B45BFBF
:104F0000EF301043B717C93F938707FDAA8963079E
:104F1000F90297B5FF1F83A5E548EF307041AA85D8
:104F2000AA844E85EF40606C97B5FF1F83A5854727
:104F3000EF30104048C004C0FD59BDBF97B5FF1FFA
:104F400083A58546EF30D03E97B5FF1F83A5054664
:104F50002A89EF30F03DAA85AA844A85EF40E068AF
:104F600097B5FF1F83A58544E1B7B71749439387DA
:104F700007F863E49716EF00106597B5FF1F83A548
:104F800025432A8AEF40A03897B5FF1F83A5053A2D
:104F9000EF30103AEF40F021AA89EF40B02C97B5DE
:104FA000FF1F83A5E53FAA8BEF406036AA85528597
:104FB000EF40A063AA8A97B5FF1F83A5A53E5E8533
:104FC000EF40E034FD472A8AAA85568563C437033B
:104FD0001387F9FF0A0797A70000938727DABA9784
:104FE0009C43130909F0337969016305F900EF4027
:104FF000C05F29A8EF40605F93577501DD8493F788
:10500000F70FB387F44021476344F70008C0B9A8FD
:1050100097B5FF1F83A545395E85EF40402F2A8A4B
:10502000AA855685EF40605CAA852A895685EF409F
:10503000C05BD285EF40605B2A8A97B5FF1F83A5CE
:10504000E5365E85EF40A02CD285EF40005AAA8558
:105050002A8A4A85EF4060599357750193F7F70FF5
:105060009D8CE54763C8970208C0CA8A04405685EC
:10507000A685EF408057D285EF40205748C0E35DBA
:105080000CE2B7070080BD8CA98F04C05CC0B309D7
:1050900030411DB597B5FF1F83A5C5315E85EF4033
:1050A0000027AA84AA854A85EF402054AA85AA8AA7
:1050B0004A85EF408053A685EF402053AA8497B5D8
:1050C000FF1F83A5652F5E85EF406024A685EF4016
:1050D000C0512A8AAA85568519BFB707807F63E821
:1050E000F400AA85EF40605048C008C0BDB313D992
:1050F00074411309A9F7931779019D8C2685EF4018
:10510000500BEF403016AA852AC22685EF40E04DAD
:1051100097B5FF1F83A5852AEF40601FAA89EF403E
:105120005009EF403014AA852AC4AA844E85EF4066
:10513000C04B97B5FF1F83A56528EF40401D930521
:1051400000002AC6EF40E0038D4609E99305000000
:105150002685EF400003B336A000850697A7000020
:105160009387C7C909474A86A2854800AD24AA8902
:10517000E3540CD41C4037070080B98F1CC05C403E
:10518000B98F5CC029B701119317150022CC06CE48
:1051900026CA4AC84EC652C48583B706807F2A8471
:1051A00063E3D702AA85EF408016AA852285EF30F7
:1051B00030182A84F24022856244D2444249B249DE
:1051C000224A05618280FDD7AA8763590500AA8516
:1051D000EF40A041AA85EF30304CE1BFE98E135774
:1051E0007541CDC6B70680001386F6FF130717F882
:1051F000F18FD58F9376170091C28607135417400D
:105200008607654681440145B7060001B305D50010
:105210003E8763C7B7003385D5003387B740B69460
:105220007D1693171700858275F231C3138981812A
:10523000938941810325090083A50900032A0900F8
:10524000EF40A03AAA855285EF40E0026341A002F8
:105250000325090083A5090003290900EF30500D3B
:10526000AA854A85EF40200163560502890485849A
:10527000B707003FBE945E0426942DBF86078506BF
:1052800033F6B70065DEFD16158FA9BF8146B70559
:105290008000FDB78504F998D9BF797122D4131421
:1052A00015004AD052CC06D626D24ECE0580B7077E
:1052B00000322A892E8A6376F400EF40806F6307FC
:1052C0000510CA854A85EF40800497B5FF1F83A566
:1052D000E505AA84EF40A00397B5FF1F83A5850EBF
:1052E000AA892685EF40A00297B5FF1F83A5C50DAB
:1052F000EF301004A685EF40800197B5FF1F83A50E
:10530000E50CEF40802EA685EF40600097B5FF1FAB
:1053100083A5050CEF30D001A685EF30507F97B5FF
:10532000FF1F83A5250BEF40402CA685EF30307E74
:1053300097B5FF1F83A5450AEF30807FA685EF3024
:10534000107DA685EF30B07CAA84D2854A85EF30E7
:10535000107CAA852685EF404029B7A7993E938700
:105360009799AA8463E58702AA854E85EF40E027D6
:10537000AA8517B5FF1F0325E5F8EF400027B250B7
:10538000225492540259F249624A45618280B70719
:10539000483F63E88702B70700FFB305F40017B57D
:1053A000FF1F032525F62EC6EF402024B2452A8490
:1053B0004E85EF408023A685EF402023AA852285D5
:1053C0006DBF97B5FF1F83A5A5FFD1BF17B5FF1F01
:1053D000032545F36DB72571232061193EC43A8B2F
:1053E00097A700009387C7D50A07BA9723244119C6
:1053F000232E7117232C8117232A911703AC070042
:105400002328A1172326B117232E1118232C811826
:10541000232A9118232821192326311923225119CF
:105420002AC2F1572E8AB28C368D938DF6FF814BAE
:105430006347F600930BD6FFA147B3CBFB029387DC
:105440001B008E07B389BB413EC03389FC40B30AC1
:10545000BC0184184E84B307344163D0FA02EA8A4F
:105460001C0A3387AA416340EC0693942A009818DB
:10547000BA9413040000814981A013050000634918
:105480000400224793172400BA978843EF40805DB9
:1054900088C005049104C1B73EC6924713972900FE
:1054A0008C403E9708438509EF307066AA852285B7
:1054B000EF300068B2472A84F114E3DF3DFD80C37A
:1054C000850A910779BF93172C00938707028A9763
:1054D0003ECC93972B003ECAA147B38727416284F5
:1054E0003EC89317240018103EC693870714BA9736
:1054F00083A907FBBA8BBA84A28A63465015CA8572
:105500004E85EF00F01797B7FF1F938767ED8C4329
:10551000AA84EF30D05FEF00700B97B7FF1F93871F
:1055200067EC8C43EF30B05EAA852685EF40E00B38
:10553000AA84EF400048AA8AEF40C052AA85268577
:10554000EF40A00AAA89635720159307F4FF8A0742
:10555000181093870714BA9783A407EC4247B3D671
:10556000E440B69AB396E600958C23A097EC9D474D
:10557000B3872741B3D4F440635E9004850A814623
:1055800001469305F00F1305001063CE8612635891
:10559000200185476302F9168947630DF91689478B
:1055A000639AF40297B7FF1F9387C7D58843CE85C8
:1055B00032CEEF4080037246AA8909CECA8517B55C
:1055C000FF1F032525D4EF00B00BAA854E85EF40C1
:1055D000C001AA89930500004E85EF30903A631E02
:1055E000051C9307F4FF01473E8663D18715630DC1
:1055F0000718328493172400938707028A979C43E5
:105600006119638A071ACA8517B5FF1F032585CF5D
:10561000EF001007AA89228997BBFF1F83AB0BDC21
:1056200063550922A28963C50928939C29001C0A95
:1056300097AD0000938D0DAEBE9C930B0000014D05
:105640003309344181AC97B7FF1F938727D98C4327
:105650004E85FD1AEF30B04BEF40A035EF40804053
:1056600097B7FF1F938787D58C432ACEEF30304AF8
:10567000AA854E85EF307077EF40A0331C0A9396D1
:105680002A00BE9688C08C4272459104EF30404A91
:10569000AA89A5B5631D09009307F4FF8A079387BC
:1056A00007141810BA9783A407EC9D84F1B597B737
:1056B000FF1F9387A7C78C438144EF307032E34BC1
:1056C00005F0894465BD83A70B0001EE85C3B307D0
:1056D000F54023A0FB008506910B63DD860083A7C0
:1056E0000B00B387F54023A0FB0085478506910B8F
:1056F0003E8661BD054661BD9307F4FF8A07181019
:1057000093870714BA9703A707EC1377F70723A02B
:10571000E7EC71B59307F4FF8A0718109387071415
:10572000BA9703A707EC1377F703D5B7939627002B
:10573000938606028A969442FD17558F7DB585079C
:1057400071171443EDDEB309A4018A099818930A6E
:105750001400BA993E94E34654D9D2472247939411
:105760002A00A697BA978843814BEF40A02F23A029
:10577000A900CE879306000063DB7D011C0ABE945E
:1057800094C0850A9109C1BF6247854755BF36CE8F
:10579000924613972B008C43369708433EC6850BE1
:1057A000EF30F036F246AA853685EF306038B247E2
:1057B000AA86F117D1B77D1435BD82474E85B385D2
:1057C0009741EF00E06B17BDFF1F032D2DBFEA854A
:1057D000AA89EF30F020634E050497B5FF1F83A51B
:1057E000E5BF4E85EF30B032EF40A01CEF40802780
:1057F000B2471810EA8593870714B38BE700AA8C89
:10580000EF30F030AA854E85EF30305E0504EF4072
:10581000401A9319240023A0ABEC938709141810A5
:105820006685B389E700EF40C018210923A0A9ECE1
:10583000D9BBB24718104E8593870714B38BE70086
:10584000EF40201723A0ABEC7DBB180A931729006B
:10585000B30CF700938707028A9788437D19EF40BE
:105860006020CE85EF30B02A23A0AC00DE854E85C7
:10587000EF30F029AA896DB383A50C0003A50D00B4
:10588000050D910DEF30B028AA855E85EF30402AD6
:10589000AA8B910C6344AC01E350A9FF0A0993075A
:1058A000091418103389E700232079F7FD19A5BBE7
:1058B000894763C667056348600F130500006309E5
:1058C0000B088320C119032481198324411903295A
:1058D00001198329C118032A8118032B0118832B6E
:1058E000C117032C8117832C4117032D0117832D1A
:1058F000C11613F57A00832A41181D6182808D47F5
:10590000E311FBFC131924009C013E99CA89A28B68
:10591000F1196344700B228B854C711963C56C0DB2
:105920001305000005496346890E8E461E47639B9A
:10593000040E2320DA002322EA002324AA0051B710
:10594000931724009801BA978C437D14EF30401EC2
:10595000E35804FE81C4B70700803D8D2320AA00D0
:105960008DB7931729009801BA978C437D19EF30B2
:10597000201CE35809FEAA8781C4B7070080A98FBD
:10598000AA850E452320FA001309010CEF30F045DB
:1059900085491109635D340181C4B70700803D8DDD
:1059A0002322AA0039BF228913050000D9B7832515
:1059B00009008509EF30C017E9BF83AC090003ACCB
:1059C0004900FD1B6685E285EF308016AA852A8B8B
:1059D0006685EF309041E285EF30801523A2A90063
:1059E00023A0690135B7032C0900832B49007D1BD7
:1059F0006285DE85EF30C013AA85AA896285EF3003
:105A0000D03EDE85EF30C0122322A90023203901C9
:105A100029B7931724009801BA978C437D14EF306F
:105A2000201111B7B7070080BD8E3D8FA98F2320AD
:105A3000DA002322EA002324FA0061B5011193174A
:105A4000150022CC4EC656C206CE26CA4AC852C43B
:105A50008583370700322A84AE89B28A63F5E7006E
:105A6000EF30307541C9A2852285EF30500AAA84F3
:105A7000AA852285EF30B00997B5FF1F83A5C5968B
:105A80002A892685EF30B00897B5FF1F83A50596B4
:105A9000EF30B035A685EF30900797B5FF1F83A58F
:105AA0002595EF30E008A685EF30700697B5FF1F0B
:105AB00083A54594EF307033A685EF30500597B538
:105AC000FF1F83A56593EF30A0062A8A639E0A0212
:105AD000AA852685EF30B00397B5FF1F83A50592F1
