:040000006F00204A23
:1000040000000000000000002002000022020000A6
:1000140000000000A0040000000000000000000038
:10002400A0040000A0040000000000000000000084
:10003400A004000000000000A00400000000000074
:10004400A0040000A0040000A0040000A00400001C
:10005400A0040000A0040000A0040000A00400000C
:10006400A0040000A0040000A0040000A0040000FC
:10007400A0040000A0040000A0040000A0040000EC
:10008400A0040000A0040000A0040000A0040000DC
:10009400A0040000A0040000A0040000A0040000CC
:1000A400A0040000A0040000A0040000A0040000BC
:1000B400A0040000A0040000A0040000A0040000AC
:1000C400A0040000A0040000A0040000A00400009C
:1000D400A00400000C1100002E180000A004000071
:1000E400A0040000A0040000A0040000A00400007C
:1000F400A0040000A0040000A0040000A00400006C
:1001040000000000A0040000A0040000A0040000FF
:10011400A0040000A004000090110000A00400004E
:10012400A0040000A0040000A0040000A00400003B
:10013400A0040000A0040000A0040000A00400002B
:10014400A0040000A0040000A0040000A00400001B
:10015400A0040000A0040000A0040000A00400000B
:10016400A0040000A0040000A0040000A0040000FB
:10017400A0040000A0040000A0040000A0040000EB
:10018400A0040000A0040000A0040000A0040000DB
:10019400A0040000A0040000A0040000A0040000CB
:1001A400000000000000000000000000000000004B
:0C01B4000000000000000000000000003F
:1001C000397101436EC619A0397141536AC866CAB4
:1001D00062CC5ECE19A0397101535AD056D252D496
:1001E0004ED64AD826DA22DC06DE3301614082820E
:1001F00041114AC026C222C406C68282B24D4101C4
:10020000024D924C224CB24B4101024B924A224A7F
:10021000B2494101024992442244B24041018280E4
:1002200001A0B707EFBE37E700E0938707083CC798
:1002300001A0EFF2FFFB09456D297164B122EF10B7
:10024000A06413050420EF10206AEF10A03AEF001D
:10025000F075EF10E051EF100021EF104049130549
:100260000420EF00F06013840193156983C7618E49
:10027000F5DF2383018EEF10802B0840EF401074D0
:100280002A86AE8613058943EF206036C5B7B717B7
:1002900002409843B706FFF041111367170098C357
:1002A000D84337060200758FD8C39843B706F7FEC8
:1002B000FD16758F98C39843B706FCFFFD16758F22
:1002C00098C3D843B70601FFFD16758FD8C398436E
:1002D000B70600ECFD16758F98C33707FF0098C767
:1002E00023A6070202C402C69843C166558F98C36D
:1002F000B716024005679C42F18F3EC6A2478507AC
:100300003EC4B24781E7A247E397E7FEB717024032
:100310009C4337070200F98FB5C785473EC6324771
:100320008547631FF704B7170240D843B706C1FFDC
:10033000FD16D8C3D843D8C3D84313670740D8C3E2
:10034000D843758FD8C3D843B7062900558FD8C373
:100350009843B7060001558F98C3B706000298432B
:10036000758F75DFD843B7160240719BD8C3D84349
:1003700013672700D8C32147DC42B18BE39EE7FE19
:100380004101828002C661BF371702405C43A1462B
:1003900037060020B18B638AD702B7177A0093879C
:1003A00007202320F602B7170240D843B7070020E2
:1003B0009387070011833D8BBA9798238327060202
:1003C000B3D7E7002320F60282805C4354434167A1
:1003D000C983BD8BF98E1387270085CFBD47630C7A
:1003E000F702C147630CF702C547630CF70281456A
:1003F000A9E2B747024083A70780C18B95C7B7170B
:100400007A00938707203307F702C9E92320E60221
:1004100059BF4947E9BF85453547D9BF81453D4764
:10042000C1BF81454147E9B7B7173D0093870790A2
:10043000D9BF371502405C55C166F58F5455A1CB25
:100440009182BD8AB7177A00850693870720B3D7B4
:10045000D7025455A182BD8A89EE9546B387D7024B
:100460008583B7160240D456BD8A8506B3D7D70216
:1004700059BF05456394A600E546CDB73D45639653
:10048000A600D146B387F602E9BF8906E5BFBD8A5B
:10049000B7177A00850693870720C9BF0583BDB7C4
:1004A00001A0970100209381E137178100201301FB
:1004B00061B5175500001305651497050020938555
:1004C00065B41386018E63FAC5008322050023A05C
:1004D000550011059105E3EAC5FE1385018E93854C
:1004E00001966377B500232005001105E36DB5FE85
:1004F000FD42739002BCAD42739042809962938238
:10050000820873900230970200009382E2AF93E278
:10051000320073905230EFF09FD797020000938221
:1005200082D173901234730020309C4513F7070179
:1005300013F8F70001C7D8413368E8008E2113F79C
:10054000F50F31C318418146054E930E80023D4F91
:10055000930F800421433316DE00B3F8C500631007
:100560001603639AD70750C913962600B318CF0015
:1005700093C8F8FF33F7E8003316C800518F85069B
:10058000E39B66FC18C11307F00F6375B704544171
:100590000146054E930E8002130F8004214313077A
:1005A00086003317EE00B3F8E50063111703639874
:1005B000D70358C9931826003D473317170113472F
:1005C000F7FFF98EB3181801B3E6D8000506E31853
:1005D00066FC54C18280E399F7F910C971B7E39BB7
:1005E000E7FD18C9C1BF1C4533F5F5003335A00040
:1005F00082800CC982804CC9828019C20CC9828059
:100600004CC98280B70830009356050113170501C5
:1006100033731501BD8A418363530502B707014057
:10062000DC4F63151305C1060D46B316D60093C6FD
:10063000F6FFF58FC5E9370701405CCF82803708A8
:1006400001400326480063121307B70600F1FD16A8
:10065000B377D60003264800F18E2322D800BDCD03
:10066000558112053315A700C98F8DA837061000D4
:10067000698E05C20D46B316D60093C6F6FFF58FF8
:10068000DDD955811375F53F12053315A700C98FC4
:100690005DB755811375F53F12053317A7009346D3
:1006A000F7FFF58FC9D9D98F79B7B7071000E98F50
:1006B00099CB8D47B397D70093C7F7FFF18FB70654
:1006C000000FD58F69BF558112053315A7009347D9
:1006D000F5FFF18F3707000FD98FD9F537070140A4
:1006E0005CC3828055811375F53F12053317A7004F
:1006F0005DBF23A0A18E828003A7018E89471421AC
:100700006311F70218318D4763EDE7003C211A07AA
:100710009607D98F37E700E093F7F70F3697230056
:10072000F740054793D756003317D700544189CA7D
:10073000938707048A07B7E600E0B69798C38280DC
:1007400093870706B7E600E08A07B69798C30F10AD
:1007500000008280371702405C43A146B18B63835F
:10076000D706B7177A00938707201CC137160240B7
:100770005C4237070020130707019183BD8BBA97AE
:1007800094231C41B3D7D7005CC15442A1829D8AF7
:10079000BA969422B3D6D70014C55442AD829D8A2E
:1007A00036971823B706002093864602B3D7E70092
:1007B0005CC5584239830D8B36971823B3D7E702AF
:1007C0001CC982805C435843C166C983758FB7F6E4
:1007D000FF1F03A6C6709166BD8BF18E890795E653
:1007E000C54601466393D700C94731EF37470240FA
:1007F00003270780418B39C337177A001307072077
:10080000B387E7023DD285838DB78946638DD700D4
:10081000BD46638CD700C146638CD700C546638C48
:10082000D7000146D9B7C947EDBF0546B54775BFE3
:100830000146BD475DBF0146C14745BF37173D0073
:100840001307079075BFB7150240D855C166758F5D
:10085000D45521CB9182BD8A37177A0085061307BC
:1008600007203357D702D455A182BD8A89EE954619
:100870003307D7020583B7160240D456BD8A8506D2
:100880003357D702B5BF85456394B600E546CDB76B
:10089000BD456396B600D1463387E602E9BF8906B7
:1008A000E5BFBD8A37177A00850613070720C9BF41
:1008B00099C5371702401C4FC98F1CCF8280B717CC
:1008C0000240984F1345F5FF798D88CF828099C5F6
:1008D000371702405C4FC98F5CCF8280B717024048
:1008E000D84F1345F5FF798DC8CF82801E3192060F
:1008F000558EC207C183F99BC207C1831EB11E2D4D
:100900001A31C207C183420793F7C7F04183D18FE1
:10091000C207759BC183D98D93E515001EAD0EB13D
:1009200082801E3105681308F8CFC207C183BD9BC2
:10093000C207C1831EB11E2D1A31B206220642071C
:100940004183B3F70701D18E92051377F7FDD58F59
:10095000D98DC207C205C183C18193E505011EADD2
:100960000EB1828037F7FF1F032747701E21B7366D
:10097000014011833D8BC2077117114303D8450015
:100980009221C183938806C06363E306630615035F
:1009900093860640630AD50037570140930607C087
:1009A0006304D5006317E5040967D98F93F7F7F857
:1009B000C207BA21C18301A8BA2193F7F7F85D8F66
:1009C000420741838967D98FFA2193F7F7CFC2078E
:1009D000C183D98F1EA123160503B737014012B575
:1009E000138707C06315E5069C251EB989A8E30F88
:1009F00015FB37070040E30BE5FA13070740E30751
:100A0000E5FA3717004093060780E301D5FA93060D
:100A100007C0E30DD5F8B736014093860640E307DB
:100A2000D5F8B7560140938806C0E30115F9E30FE6
:100A3000D5F66319E5001EA12316050312B58547F7
:100A40005EA9828013070740E307E5FEB5BF9387E1
:100A50000740E30BF5F8B7570140138707C0E305DC
:100A6000E5F8E31EF5FC49B71E31922103D82500B5
:100A7000C207C183F99BC207C1831EB11E31562133
:100A80001A2DC207C183420741831377C7F8518FDC
:100A90009225F59BC20633660601D18F3736014099
:100AA000130806C0C182630E050113060640630ADF
:100AB000C50037560140130806C0630405016310E2
:100AC000C502B225DD9B03D8E500D18FD221ED9B75
:100AD00093F6F6CFD18FD22533660601D18E56A17B
:100AE0001AADFA215AB91EB182801E31E57693867D
:100AF000F6CFC207C183BD9BC207C1831EB11E31A1
:100B000052211A2D03D88500C207758F9621C18303
:100B100093F7F7FDA206558FB62142064207B3E6CA
:100B200006019206D58FB7360140C207138806C06A
:100B300041824183C183630E050193860640630AA7
:100B4000D500B7560140138806C063040501631E33
:100B5000D502B62593F7F7F703D8C5009206D58FCF
:100B6000D621C207C183920693F7F7FBD58FFD7696
:100B70009386F63FF18EF225C207C18333660601E4
:100B80000A06D18E13960601418252A11AADFA21AE
:100B90001ABD1EB182801E31962103D88500C2077E
:100BA000C18393F7F7EFC207C1831EB11E315221F3
:100BB0005A2DC207C183420741831377C7F8558F67
:100BC000B62193F7F7DF4206B3E60601A206D58FFA
:100BD000B7360140C207138806C04182C183630E45
:100BE000050193860640630AD500B7560140138875
:100BF00006C063040501631FD502FD769386F67F68
:100C0000F58FB62503D8C500A206D58FD621C20719
:100C1000C183A20693F7F7BFD58FF576FD16F18E47
:100C2000F225C207C183336606011206D18E1396E0
:100C30000601418252A15AADFA215ABD1EB18280ED
:100C40001E317D777D17F98F1EB11E3152215A2D2D
:100C5000E5769386F6CF758F962103D885004206F8
:100C6000A206558FF976FD16F58FB621420741820F
:100C7000B3E60601B206D58FB7360140C207138826
:100C800006C04183C183630E050193860640630A53
:100C9000D500B7560140138806C063040501631BE5
:100CA000D500F176FD16F18ED2251A06D18E139657
:100CB0000601418252A15AADFA212310E5041EB16A
:100CC0008280FD575EA12310050023130500231128
:100CD0000500230405008280231005002311050070
:100CE0002312050023130500231405002315050016
:100CF0002316050023170500828085472310050071
:100D0000231105005EA12313050023140500828032
:100D10001E2189C593E717001EA18280C207C183E7
:100D2000F99BC207C183CDBF5E2501C6CD8F5EA5ED
:100D3000828093C5F5FFED8FDDBF035885001A2D26
:100D40001E31420813580801C2074207C1839206A8
:100D50004183137888FF93F7D7FD558E3368B80029
:100D60001377C7CFD18F2314050113671710C2075C
:100D7000C1831AAD1EB182801E2189C593E7070881
:100D80001EA18280C207C18393F7F7F7C207C18310
:100D9000C5BF1E2DC207C183DD9BCD8F1EAD8280D6
:100DA0001E2D7D771307F77FF98FA205CD8FC20720
:100DB000C1831EAD82805E2DC207C183DD9BCD8FB6
:100DC0005EAD82805E2D7D771307F77FF98FA205D8
:100DD000CD8FC207C1835EAD82804EB182801E2D51
:100DE000C207C183CD9BC207C1831EAD1E2DCD8F0F
:100DF0001EAD82801E2D7D771307F73FF98F1EAD44
:100E00001E2DA205CD8FC207C1831EAD82805E2D2F
:100E1000C207C183CD9BC207C1835EAD5E2DCD8F5E
:100E20005EAD82805E2D7D771307F73FF98F5EAD53
:100E30005E2DA205CD8FC207C1835EAD8280EFF229
:100E40002FBB9A21BE21D2219625AA842E8401EBA4
:100E5000BE85693C6E20268559376FF0AFBB914542
:100E60006318B700BE85753C6E2026856137F5B7DF
:100E700021486E20631607051A319206A207420721
:100E800041831377F7EF420741831AB15A2D035874
:100E90000502420741834208135808011377C7F03F
:100EA000518F1378F8DF558FB3E707014207C20768
:100EB0004183C18393E707105AAD1EB1893F71BFCB
:100EC0001A317D787D18337707011AB15A2DB20691
:100ED000035805022206558E8568F9769388F8CF67
:100EE000FD163378D80033771701B207518FB3E777
:100EF00007014207C20741838566C183D58F5AAD7A
:100F00001EB10D3799BF1E294A25ED8F420541813B
:100F100089C76D8D3335A00082800145828093C5DD
:100F2000F5FFC205C1810EA98280EFF26FAC1629D0
:100F3000F577FD17FD8EFE21DA250111D58F1EA94B
:100F40005625FD779387379FFD8EDE212A84AE8458
:100F5000D58F9625D58FB625D58F5EA55E29C2077C
:100F6000C18393F7F7CFD98F5EA96800EFF08FFEAA
:100F7000B747014093870780631EF402E247654745
:100F8000B387E7029840930640060A07B3D7E70203
:100F900033D7D702B3F7D7021207920793872703F5
:100FA000B3D7D702BD8BD98FC207C1831EA40561F9
:100FB0006FF04FA6D247E1B75E2589C50967D98F83
:100FC0005EA5828079777D17F98FDDBF13F7F50F66
:100FD00085471583B395B7006319F7009307C500DC
:100FE000984301CE4D8F98C382808946930745016F
:100FF000E318D7FE93070501E5B793C5F5FFF98D13
:101000008CC3828093F5F51F4EA182804A2113750F
:10101000F51F82800A216D8D3335A000828093F602
:10102000F50F054695822A87B317B6006391C6026D
:10103000562533F5F6001E23C207C18301C9A181DD
:1010400005473317B700F98F3335F0008280094622
:101050006394C6001629F1BF5629E1BFA1818547D7
:10106000B397B70093C7F7FFC207C1831EA1828061
:10107000EFF20F982A84116579718545110502CA2E
:1010800002CC02CE02D002D202D402D602C602C8DC
:10109000EFF01F8293070020FC82B71401408D47B8
:1010A0003ECC4C08E147138504803ECEEFF0EFC7FD
:1010B00093070040FC824C089147138504803ECE84
:1010C000EFF0AFC622D037440140B7070C000C1038
:1010D000130504803ED402D223160102B935054619
:1010E0009305505213050480D535930750137C8621
:1010F000680085473EC823070100EFF0EFDF854514
:1011000013050480553D45616FF0CF90411122C613
:1011100037440140930550521305048009372DC50B
:1011200013050480E5356205618535476305E500F3
:1011300029476312E50203C7518E19CB83C6518E2E
:101140001387018F36972300070085462382D18EAF
:10115000A382018E1DA083C6518E1307E003E369AD
:10116000D7FE83C6518E138716001377F70FA3821D
:10117000E18E9387018FB69788A337450140930589
:10118000505213050580D93D32444101730020308F
:10119000854537150040853B01C985453715004019
:1011A000BD3B05472383E18E73002030EFF24F846F
:1011B000797185454145EFF0AFEF85452145EFF069
:1011C0002FEF85450545EFF0AFEE85450965EFF05A
:1011D0002FEE854537051000EFF08FED37050080C5
:1011E00081451105EFF00FC23705158081451305C4
:1011F0000504EFF02FC19307000C2312F102914474
:101200008D474C103715014026D63ED4EFF0EFB194
:1012100037150140930700304C10130505C0231209
:10122000F102EFF08FB06800693C37340140C167CC
:10123000FD176C00130504403EC802C6EFF08FF2A4
:101240006C0037550140EFF0EFF113050440814683
:1012500001468D45DD34814601468D4537550140B7
:10126000E93C2808593CA9472C08130504402310E1
:10127000F102231C0100E1362C0837550140C1362C
:101280002C0813050440E4845D3E2C0837550140CA
:101290007D36130504408145893681453755014027
:1012A0002D3E130504408545A5348545375501403D
:1012B000853445616FE01FF6EFE29FF32A8637150C
:1012C000014093050040130505C0EFF00FB3294519
:1012D000EF00205E6FE01FF4EFE29FF12A86856544
:1012E0003715014093850580130505C0EFF0EFB079
:1012F0002945EF00005C6FE0FFF1EFE27FEF8565CD
:101300003715014093850580130505C0EFF0AFAD9B
:101310002A842945EF00E05922856FE0BFEFEFE214
:101320003FED411185452145EFF08FD8B7140140BD
:10133000D1470564130404C03EC64C008D47138595
:1013400004C03EC46082EFF04F9EA285138504C0A6
:10135000EFF02FAA41016FE0FFEBEFE27FE90545D7
:10136000A53F0545913F0145853F0145B1376FE0F8
:101370007FEAEFE2FFE7014585370545353F054543
:10138000A13F6FE03FE9EFE21FE5AA840144930922
:101390000008214933D58940658D3D3F0545293FEA
:1013A00001450504113FE31724FF6FE01FE6EFE25C
:1013B0009FE20545153781440144930900082149FE
:1013C0000545DD3D1D3F85476317F500B3D79940BF
:1013D0005D8C1374F40F01458504F93DE39224FFFD
:1013E00022856FE09FE2EFE2BFE0FD350545E9357C
:1013F0000145D9356FE01FE2EFE29FDF0545E93D8A
:1014000005455D3DDD3D2A8401457D3522856FE042
:101410007FE0EFE2FFDD2E84AA8481371305000D03
:101420009D37D93F26858537C13F2285A93FE937BA
:1014300089376FE03FDEEFE2BFDB2A84393F1305D7
:10144000000D9137553F22853D3F7D3739371305D4
:10145000100D153F5537A13F2A8405456937113FC7
:1014600022856FE03FDBEFE2BFD8553D8545130590
:10147000B006453781451305C006613FA545654562
:10148000493F994569457137E1456D455937E14512
:10149000714541376FE01FD8EFE2FFD32A8B130568
:1014A000B003AE8A328AB6893A89BE8469372A8403
:1014B0001305C00349372204498C23108B00130500
:1014C000D003953F2A841305E003B5372204498CE5
:1014D00023908A001305F003B93F2A841305000402
:1014E000993F2204498C23108A0013053004A13748
:1014F0002A841305400481372204498C23908900F3
:10150000130550040D3F2A84130560042D3722046F
:10151000498C2310890013057004313F2A84130578
:101520008004113F2204498C82A06FE01FCEEFE2BD
:101530003FCC9387E1951387C1959386A195138638
:1015400081951385419593856195B93713844195AC
:1015500003152400EF3040282A8903150400AE84C7
:10156000EF3080274A86A686212903A6818083A69C
:10157000C180B70700802A87AD8F3A85BE85EF10FE
:10158000306B03A6018183A64181EF20E05CEF3040
:10159000504D83A5818CEF30C0512A8923A8A19496
:1015A0000315A40013840193EF30903483A5C18CFC
:1015B000EF30900683A5018DEF30100683A5418D95
:1015C000EF3090050C40EF30C04E23A2A19483A5CC
:1015D000818DAA844A85EF30300483A5C18D2A8984
:1015E0002685EF307003AA854A85EF30804C08C00D
:1015F0006FE05FC2EFE2DFBF797185451545EFF01F
:101600002FAB85450545EFF08FAC3714014095476A
:1016100041498D444C0813050480FC824ACE26CCF7
:10162000EFE0BFF0A9474C0813050480FC824ACEC6
:1016300026CCEFE09FEF13050480A945EFE0BFFB48
:10164000B707002083A7070261671307076AB3D7AC
:10165000E7022C0037050040231501002308010094
:10166000FD177C84930730063EC6EFF0AFAF08103D
:10167000EFF08FE6C167938707060C10370500402F
:101680003ED02314010223130102EFF0EFBD0C1032
:1016900037050040EFF06FC50C1037050040EFF044
:1016A0008FCF0C1037050040EFF08FD9A1453705DB
:1016B0000040EFF00FEEA14537050040EFF04FEE90
:1016C000A14537050040EFF00FEFA1453705004079
:1016D000EFF04FEF854537050040EFF0EFE9854526
:1016E00037050040EFF0CFE245616FE0BFB2EFE2B7
:1016F0003FB001118545414502CA02CC231E0100BD
:1017000002C602C8EFF0AF9C4808EFF08FDBB707C6
:10171000002083A70702096713070771B3D7E70201
:101720004C0837150040231B0100FD17FC8293076E
:1017300030063ECCEFF00FA3854537150040EFF0A3
:101740000FFE0546854537150040EFF0EFDD9307A6
:1017500060247C86680085475C873EC8EFE0DFF93F
:10176000854537150040EFF0AFDA05616FE09FAABD
:10177000EFE21FA87971854537050200EFF02F953C
:10178000854513050002EFF0AF9285450545EFF062
:101790002F928545214502CA02CC02CE02D002D248
:1017A00002D402D602C602C8EFE0DFE593070002CA
:1017B000FC8237140140E1473ECE4C088D471305AB
:1017C00004403ECCEFE07FD693070004FC824C0837
:1017D0009147130504403ECEEFE03FD5F167374413
:1017E0000040938707203ED00C10B7070C0013056C
:1017F00004403ED402D223160102EFF00FF3054657
:101800009305505213050440EFF04FFC930760130B
:101810007C86680085475C873EC8EFE0FFED854524
:1018200013050440EFF04FF945616FE0BF9E411191
:1018300022C637440040930550521305044026C485
:10184000EFF0EFFD8547631CF502A383A18E13051E
:101850000440EFF0AFFB1375F50F2384A18EA38432
:10186000A18E93040440930500082685EFF08FFABB
:101870007DD99305505213050440EFF02FFE3244FA
:10188000A244410173002030B707002083A707025C
:1018900037177A0013070720B3D7E70293F7F70F3C
:1018A0002386F18E1307803EB387E7022395F18EDE
:1018B0008280B7F700E0D8438146799BD8C303C73D
:1018C000C18E3306A70290CBD4CB98431367070190
:1018D00098C398431367170298C3D843058B75DFE5
:1018E0009843799B98C38280EFE29F902A84116588
:1018F000011185451105EFE0BFFB930700207C82B5
:10190000371501408D473EC44C00E1471305058063
:101910003EC6EFE09FC122C837440140B707080028
:101920000C08130504803ECC02CA231E0100EFF010
:10193000CFDF854513050480EFF00FE805616FE008
:101940007F8DEFE25F8937490140AE89328481445F
:101950001309098063C5840022856FE01F8B9305FE
:1019600000044A85EFF00FEB7DD9B387990083859A
:1019700007004A858504C205C181EFF0AFE8D9BFF1
:1019800009A0B288370800803306C0407D1833664E
:10199000160141113373D8007D8206C622C4336616
:1019A0006600370EF07FAA872E87636DCE00330660
:1019B000A040498E3378B8007D8233660601AE8E32
:1019C000637ACE0046863E85BA85EF10E037AA8757
:1019D0002E871DA8370610C036963366160109E615
:1019E0002244B2404101A1A213D4E641098813D692
:1019F000F501B36FA800518C639E0F008946630EFA
:101A0000D4108D466300D412B24022443E85BA857C
:101A1000410182803366130101EE17E7FF1F1307B0
:101A2000E76363C90E0217E7FF1F130727611DA0B5
:101A30006310C3057D1463126802894717E7FF1F0F
:101A40001307476163E887000E0417470000130778
:101A5000E7A022971C43584345BF89468147014769
:101A6000E3E486FA0E04174700001307A79DD5B7D5
:101A7000E305C8FB33086840135848411306C00308
:101A80006349060563D60600130640FC634AC80492
:101A90003E85BA854686EF10B019F9264928AA87EF
:101AA0002E8785466301D40489466303D40429DC68
:101AB00097E6FF1F9386065B9042D4423E85BA8527
:101AC000EF20205E97E7FF1F9387C7579043D443CB
:101AD00091A017E7FF1F130767561C435843D1B760
:101AE000814701477DBFB7060080B98E368729BF81
:101AF00097E6FF1F938606579042D4423E85BA85EB
:101B0000EF20205A97E7FF1F9387C7532A86AE8698
:101B10008843CC43EF20E0585DBD17E7FF1F130754
:101B200067520DBF17E7FF1F1307475225B779719B
:101B300026D29394150022D45EC606D64AD04ECE45
:101B400052CC56CA5AC88580B7071044AA8B2E8437
:101B500063ECF404B707F07F63E597006398F40241
:101B600015C55E86A2865E85A285EF10E01DAA8B54
:101B70002E84B250A285225492540259F249624AEC
:101B8000D24A424B5E85B24B4561828097E7FF1F88
:101B90009387C74A6346800097E7FF1F9387074CE8
:101BA00083AB0700C043F1B7B707DC3F2E8A63FA67
:101BB000F402B707203E63F4F40297E7FF1F938710
:101BC000E74A9043D443EF10201897E7FF1F93870D
:101BD000674A9043D443EF109060E34CA0F8FD595E
:101BE000B9A85924B707F33F2A892E8463F5F41C5A
:101BF000B707E63F97EAFF1F938ACA4763F3F418D3
:101C00002A86AE86EF10401403A60A0083A64A0077
:101C1000EF20204997E7FF1F938747469043D4431F
:101C2000AA89AE844A85A285EF1000122A86AE8664
:101C30004E85A685EF10C07FAA8B2E8481495E86D3
:101C4000A2865E85A285EF1030712A86AE862A8B29
:101C5000AE8AEF10707097E7FF1F9387A7439043FA
:101C6000D4432A89AE84EF10306F97E7FF1F938724
:101C7000E7429043D443EF10200D4A86A686EF102A
:101C8000B06D97E7FF1F9387E7419043D443EF1070
:101C9000A00B4A86A686EF10306C97E7FF1F93874C
:101CA000E7409043D443EF10200A4A86A686EF10FF
:101CB000B06A97E7FF1F9387E73F9043D443EF1045
:101CC000A0084A86A686EF10306997E7FF1F938722
:101CD000E73E9043D443EF1020075A86D686EF1094
:101CE000B06797E7FF1F9387E73D9043D4432A8B64
:101CF000AE8A4A85A685EF10306697E7FF1F938767
:101D0000E73C9043D443EF20C0394A86A686EF10C3
:101D1000B06497E7FF1F9387E73B9043D443EF20DE
:101D200040384A86A686EF10306397E7FF1F9387F7
:101D3000E73A9043D443EF20C0364A86A686EF1098
:101D4000B06197E7FF1F9387E7399043D443EF20B3
:101D500040354A86A686EF1030602A86AE865A85C0
:101D6000D685EF00707EA2865E86EF10F05EFD568F
:101D7000639BD90A2A86AE865E85A285EF206032F3
:101D8000FDB303A60A0083A64A00EF20803103A614
:101D90000A0083A64A00AA89AE844A85A285EF007C
:101DA000B07A2A86AE864E85A685EF106068AA8B2B
:101DB0002E84854969B5B787034063F8F40497EA30
:101DC000FF1F938A2A2C03A60A0083A64A00EF204D
:101DD000402D03A60A0083A64A00AA89AE844A853C
:101DE000A285EF10705797E7FF1F9387A7289043AE
:101DF000D443EF0070752A86AE864E85A685EF1017
:101E00002063AA8B2E8489491DBD97E7FF1F938706
:101E1000E7272A86AE868843CC438D49EF10406180
:101E2000AA8B2E8429BD8E0997370000938787647B
:101E3000CE979043D443973400009384A465CE9406
:101E4000EF2020265E86A286EF20A0252A86AE8679
:101E50008840CC40EF20E024AA8B2E84E35B0AD09C
:101E6000370400802D8C31B386052A8793D715005F
:101E70003A85BE858280011106CE2EC60DCD184151
:101E8000AA8705C358417D5511CB8546631BD700F2
:101E900098472300070023A207000545F24005618B
:101EA00082809847B24614A39847050798C7D8433D
:101EB0007D17D8C3DDB705466C00EFF09FA8F1BFD2
:101EC000797122D426D24ECE52CC56CA06D64AD0EA
:101ED0005AC82A8AAE8A3284814493090002634434
:101EE0000602B3879A00838707009DE363D68402C6
:101EF00063D2E402198C93F726009309000281C78C
:101F000019E393090003858A01499DE6228929A8DE
:101F10008504C1BF058CC5B70144F1BFCE8552858C
:101F20003AC6913F32477D19E34A20FF2289635325
:101F3000040001493304244163CBE402CA84B3871B
:101F40002441D697838507009DED228963412005B2
:101F500063530400014433059400B2502254925458
:101F60000259F249624AD24A424B45618280B30427
:101F70009740268B9305000352857D1BED3DE31BA7
:101F80000BFE269965BF5285FD3585044DBFCE8574
:101F90005285D5357D195DBF5D71A6C252DC86C6FE
:101FA000A2C4CAC04EDE56DABA843E8A95E19307CF
:101FB00000030147D28626862C08FC841137B640E0
:101FC000264496440649F259625AD25A6161828087
:101FD0002A893684C68A91CAA94701446317F60044
:101FE00063D50500B305B0400544A307010293077C
:101FF000F102A546130568FC33F7C50263D3E6007A
:102000002A9713070703A38FE7FE9389F7FF33D7B8
:10201000C50263F7C50401CCB9C413772A0021C7F0
:102020009305D0024A8542C6B9353248FD149377EC
:102030004A0099CF93071006930500034A85631C55
:10204000F802153D930580074A8535350904F914D2
:102050005687D2862686CE854A859D35229585B7B8
:10206000BA85CE8751BF1307D002A38FE9FE014482
:102070009389E7FF6DBF013593058005F1B71D71A9
:10208000CAC8CEC6D6C2DAC03A8986CEA2CCA6CA03
:10209000D2C45EDE62DC66DA6AD86ED633E7C5008B
:1020A000BE89AA8A428B8347010629E385CF8D67C3
:1020B0009387D7027C84230501000147DA864E8688
:1020C0002C005685F53BF6406644D6444649B64951
:1020D000264A964A064BF25B625CD25C425DB25D78
:1020E00025618280930700037C84C1BF368AAE8459
:1020F000328463000902A9470149639CF600635AD0
:102100000600B304B040B33790003304C0401D8CC8
:102110000549A30F0100130DF101935DFA41A54C90
:10212000138C68FC5286EE862685A285EF00D008C7
:1021300063D3AC00629513050503A30FADFE528671
:10214000EE862685A285930BFDFFE1216366B4012F
:10215000639A8D0263F84403630D090063880902E2
:1021600093772B0085C79305D0025685EFF0BFD03B
:10217000FD190147DA864E86DE855685EFF05FD47D
:102180004A9591B7AA842E845E8D69BF9307D002C9
:10219000A38FFBFE0149930BEDFFE1BF5D71A6C26A
:1021A000CAC0AA842E892E85B28586C63ACE42CC74
:1021B000A2C44EDE52DCB289368A56DA5AD8BE8ABA
:1021C0005ED662D466D2468C6AD0EF20E0672A8B56
:1021D000AE8B01468146CE854A85EF10300C7247A2
:1021E00062487D81BA872AC00547E288D286DA85AF
:1021F0005E86268569352A8D9305E0022685EFF0F7
:102200009FC7050D8147854C0144294763CD57077A
:102210005A85DE85EF20006F2A86AE864A85CE85F8
:10222000EF1030682A89AE896685A285EF20806D1F
:102230002A86AE864A85CE85EF101012EF20C06048
:1022400013D6F541318DB347B600B305C5403335DC
:10225000B5003386C74002C0E288D687D286098E91
:10226000094826850547213DB64026446A9596448F
:102270000649F259625AD25A425BB25B225C925CC6
:10228000025D61618280B30687028507333497035C
:10229000B30C970336949DBF5D715AD8156BA2C4D9
:1022A000A6C2CAC04EDE52DC56DA5ED662D486C6FC
:1022B00066D2AA892E893284014A8144930B500246
:1022C000930AB002294C130B0B4B830509008DE5D3
:1022D0006386090081454E85EFF0FFB9B64026447C
:1022E000268506499644F259625AD25A425BB25B3D
:1022F000225C925C61618280638875014E85EFF09B
:102300009FB785040509D1B783071900930C1900FD
:10231000639A7701930550024E85EFF0DFB585048F
:102320006689CDB7D5D76387570563C8FA00130709
:1023300030026384E704814705A01307D002638A53
:10234000E70013070003E398E7FE930C2900894791
:1023500021A0930C2900854703870C0063035705D0
:1023600063C1EA0293063002630BD7026689014516
:10237000A54535A8930C29007DBF930C29009147F2
:10238000E1BF9306D0026309D70093060003E31F61
:10239000D7FC93E7270031A0850C8547C1BF93E7A1
:1023A0004700850CE1B7330585030509369503071A
:1023B0000900930607FD13F6F60FE3F6C5FE1306B4
:1023C000E0029946631EC7000509814625460307BA
:1023D0000900130707FD9375F70F6375B602368A78
:1023E000030709001306A0066309C70A6341E60252
:1023F0001306C0046303C70A130680066308C708F0
:1024000001461DA8B38686030509BA96C9B7130607
:1024100040076304C7081306A0076300C7089305B5
:10242000C0060146631AB700830519000D46639480
:10243000E500050911460509030709009305000693
:102440001308100663C4E500130810049305700612
:1024500063C2E506930550066359B71693057004E9
:1024600063CFE502130650046351C7169306300488
:10247000E31AD7E81840930C4400A30E0100230E82
:10248000E100BE8601472A866C0871A08305190009
:102490000146E393E5FA090945B7050995B793069F
:1024A0003006E309D7FC63CEE60693068005630396
:1024B000D70289BD930630076306D70463CDE602D1
:1024C0009306F006630BD70C9306000793E74700CB
:1024D000E31AD7E21147631BE60A1D04137784FF52
:1024E0000C43504313048700C28802C03E88014752
:1024F000AA87C146B9A0930650076303D70693067F
:10250000800775B71840930C4400DA8511C3BA856B
:102510005287BE862A864E85EFF09F9AAA946684DB
:10252000D5B311476314E6021D04137784FF0C43EF
:10253000504313048700C28802C03E880547AA871B
:10254000A9464E85EFF0BFB3AA946DBB0C40D2886C
:1025500011042A87854629464E85EFF0FFA3EDB783
:102560001147631FE6001D04137784FF0C4350439B
:1025700013048700C28802C03E880147AA87C9B7F2
:102580000C40D28811042A878146F1B70C40D288CA
:1025900011042A8781464146C1B711476310E602FC
:1025A0001D04137784FF0C43504313048700C28833
:1025B00002C03E880147AA87A14661B70C40D28875
:1025C00011042A878146214641BF1D04137684FFEA
:1025D000130486000C4250423307D540C2887D1751
:1025E0003E884E85B687A946EFF05FBBB1BF397113
:1025F0002ED232D4AA855010014506CE36D63AD80E
:102600003EDA42DC46DE32C6EFF01FC9F2402161FD
:1026100082803288AA882E87DDEA63F1C510C167FF
:10262000636DF618B7070001B337F600B307F04043
:10263000E19BE1073353F60097360000938606ECE2
:102640009A96942213030002B697B306F340630BE5
:10265000F3003397D500B357F5003318D6005D8FDC
:10266000B318D500135608013355C7029316080155
:10267000C18293D708013377C702B385A602420708
:10268000D98F63FAB700C2971307F5FF63E4070118
:1026900063EDB7303A858D8F33D7C702C20893D820
:1026A0000801B3F7C702B386E602C207B3E8F80031
:1026B00063FBD800C2989307F7FF63E50801791719
:1026C00063E3D8003E874205598D8145828063F5DA
:1026D000D500814501458280C16763E7F618B707D9
:1026E0000001B3B7F600B307F040E19BE10733D830
:1026F000F60017370000130767E042971823930886
:1027000000023E973388E8406394E81863E1B628F6
:102710003335C50013451500814582804DC6C1671C
:10272000637FF62413370610134717000E07B356BE
:10273000E60097370000938767DCB6979C239306E3
:102740000002BA97B38EF640639EF608B387C54081
:102750009356060142064182854533D5D70213D7E9
:102760000801B3F7D7023303C502C207D98F63FA52
:102770006700C2971307F5FF63E4070163E467226C
:102780003A85B387674033D7D702C20893D8080188
:10279000B3F7D7023306C702C207B3E8F80063FBFA
:1027A000C800C2989307F7FF63E50801791763E350
:1027B000C8003E874205598D82809337061093C723
:1027C00017008E0785BD814697370000938707D392
:1027D000B6979C23014793060002BA97B38EF64042
:1027E000E386F6F63318D60133D3F5009356080185
:1027F000335ED30213160801B395D5014182B35756
:10280000F500CD8F13D70701B318D5013373D30269
:10281000B305C603420333676700637BB700429783
:102820001305FEFF636C0717637AB716791E42978C
:102830000D8F3355D702C207C1833377D7023303D5
:10284000A6024207D98F63FB6700C2971307F5FF03
:1028500063E2071563F067147915C29793150E01AB
:10286000B3876740C98DD5BD93B7061093C71700CE
:102870008E0733D8F60017370000130727C8429792
:102880001823930800023E973388E840E380E8E885
:10289000335EE600B3960601336EDE00B3D8E50082
:1028A000935E0E01B3D7D80313130E01B395050140
:1028B000135303013357E5004D8F93560701331629
:1028C0000601B3F8D803B305F302C208B3E6160154
:1028D00063FBB600F2969388F7FF63E3C60D63F1DE
:1028E000B60CF917F2968D8EB3D5D6034207418305
:1028F000B3F6D603B308B302C206558F637B170144
:1029000072979386F5FF6369C70963771709F9150D
:102910007297C207C16ECD8F9386FEFFB3F5D700C5
:1029200013D30701F18E4182338ED502330717414D
:10293000B306D30293580E01B385C502B695C6956A
:102940003303C30263F3D500769393D605019A96B9
:102950006363D7026305D7003E8581458280C166E7
:10296000FD1633F7D5004207337EDE00331505012F
:102970007297E373E5FE1385F7FF81458280B70701
:1029800000016377F6029356060141475DB3814526
:10299000054582803A85D9B5B685A5BF2A8E49BD41
:1029A000C68791B77915C297E9BB7915C297E5B18A
:1029B000935686016147B5BB3288AA882E832E873D
:1029C000D5E663F1C510C1676363F618B707000168
:1029D000B337F600B307F040E19BE1073353F6004D
:1029E00097360000938686B19A96942213030002CC
:1029F000B697B306F340630BF3003397D500B35794
:102A0000F5003318D6005D8FB318D5009355080133
:102A10003356B702131308011353030193D7080168
:102A20003377B702330666024207D98F63F7C700D0
:102A3000C29763E4070163E3C730918F33D7B702CE
:102A4000139508014181B3F7B70233076702C20744
:102A50005D8D6378E5004295636505016373E5006C
:102A60004295198D3355D5008145828063F3D50099
:102A70008280C16763EAF616B7070001B3B7F600B4
:102A8000B307F040E19BE10733D8F60017370000A9
:102A90001307C7A642971823130E00023E97330868
:102AA000EE406317EE1663E4B600636AC500B30830
:102AB000C540B386D5403333150133836640468520
:102AC0009A85828059CAC167637EF624133706103F
:102AD000134717000E07B356E60097370000938799
:102AE000E7A1B6979C2313030002BA97B306F340FD
:102AF0006314F3083387C54013530601420641822D
:102B0000B355670293D7080133776702B385C502CF
:102B10004207D98F63F8B700C29763E5070163F3F3
:102B2000B700C2978D8F33D76702C20893D80801C8
:102B3000B3F767023307C7021395070133E5A8000F
:102B4000E36BE5F0198D3355D500814582809337CD
:102B5000061093C717008E0751B5814697370000BE
:102B60009387C799B6979C23014713030002BA972E
:102B7000B306F340E300F3F83318D60033DEF50074
:102B800013530801B35E6E0213160801B395D50006
:102B90003357F50041824D8F93570701B318D50085
:102BA000337E6E02B385CE02420EB3E7C70163F8EF
:102BB000B700C29763E5070163F3B700C2978D8F33
:102BC000B3D5670242074183B3F76702B385C502F5
:102BD000C2075D8F6378B70042976365070163732F
:102BE000B70042970D8F29BF93B7061093C7170000
:102BF0008E0733D8F6001737000013072790429747
:102C00001823130E00023E973308EE40E30DEEE862
:102C1000B3960601B358E600B3E8D80033DEE5000A
:102C200013DF0801B357EE03939E080193DE0E01F4
:102C3000B356E50033130501B3950501D58D93D641
:102C4000050133160601337EEE033385FE02420E84
:102C5000B3E6C60163FBA600C696138EF7FF63EDCD
:102C6000160D63FBA60CF917C696898E33D5E603BD
:102C7000C205C181B3F6E603B38EAE02C206D58D9E
:102C800063FBD501C6959306F5FF63E5150B63F36A
:102C9000D50B7915C69593960701C162C98E138528
:102CA000F2FF33FEA600935F0601C182718D330FE0
:102CB000AE02B385D5413385A60293570F01330E7B
:102CC000FE032A9EF297B386F60363F3A700969657
:102CD000C16EFD1E33F5D70113DE07014205337FB8
:102CE000DF01B307DE007A9563E5F5026381F50243
:102CF0003305A3403333A3009D8DB38565403397DF
:102D0000E50033550501598DB3D505018280E37186
:102D1000A3FE3306C5403335C500AA98B3871741D3
:102D20003285F9B7B7070001637CF60093560601B8
:102D3000414765B3368585B7F28705BFC297F5B9B8
:102D400093568601614751BBB70710000111FD176B
:102D500033F8B70093D84601F58F22CC13D4450140
:102D6000139737000E084AC84EC69357D601935999
:102D7000D50113D9F5011374F47F93F8F87F06CECB
:102D800026CAFD82B3E90901D98F931535001318BE
:102D90003600330714416304D918635EE01063887A
:102DA00008209306F07F6306D4529306800385447F
:102DB00063C9E602B7068000D58FFD4663C7E642C9
:102DC00093060002998EB394D7003356E800B316E9
:102DD000D800D18CB336D00033D7E700D58CB38977
:102DE000E940B3849540B3B79500B389F940B7077C
:102DF000800033F7F90063080724FD17B3F9F900E1
:102E00006386092A4E85EF20805C130785FF9306B1
:102E10000002B387E640B3D7F400B399E900B3E703
:102E20003701B394E40063458732018F0507998E1B
:102E30003396D400B3D9E4003336C000336636018C
:102E4000B396D700B3E4C600B3D9E700014493F7C3
:102E5000740081CF93F7F40011476388E7009387EC
:102E60004400B3B49700A699BE84B7078000B3F7B7
:102E7000F9006387072805049307F07F6300F41CBB
:102E8000B70780FFFD17B3F7F9001397D7018D80BF
:102E9000A607458FB1831374F47F52047E095D8CBD
:102EA00033642401F240A2856244D2444249B249CB
:102EB0003A8505618280630F071033878840631865
:102EC000043033E5B900630E05261305F7FF630EE2
:102ED00005481303F07F630A6742130780038544A4
:102EE0006346A7022A877D466340E6441306000234
:102EF000198EB394C90033D5E5003396C500C98C4B
:102F00003336C00033D7E900D18C998FB304984091
:102F100033389800B389074146843689C9BD63595F
:102F2000E01263900810B3E60701638F06201306D2
:102F3000F7FF630506369306F07F630ED744130749
:102F4000800385466346C7023287FD4663CBE63879
:102F500013060002198EB396C7003355E8003316E6
:102F6000C800C98E3336C00033D7E700D18EBA9976
:102F7000B387B600B3B6D700BE84B699B707800052
:102F8000B3F7F900E9C305049307F07F6308F40A77
:102F9000B70780FFFD17B3F7F90013D71400858832
:102FA000458F9394F701D98C93D917004DB5B3E6AB
:102FB0000701638B06189306F7FF6381063013063B
:102FC000F07F630FC714130780038544E34BD7E0FA
:102FD0003687E5B3130714001377E77F6315071CE3
:102FE000B3E8B90033E707016310042A638B08389C
:102FF000630C073AB384054133B795003386F94033
:10300000198E37078000718F63010740B305B84000
:10301000B38737413338B800AE84B3890741368966
:103020003DB59306F07F630DD40E130680038546ED
:10303000E340E6F4B7068000D58F01BF1304F07FAC
:103040008147014799BD13F77400E31507E089AA8A
:103050006307071033878840630D041A9306F07FD7
:10306000638DD82A1306800385466349E602B706B6
:103070008000B3E9D900FD4663C6E63613060002B8
:10308000198EB396C90033D5E5003396C500C98EB5
:103090003336C00033D7E900D18EBA973698B336AD
:1030A000D800C284B389F6004684C9BD2685EF20C6
:1030B000003213078501FD46E3DBE6D4930785FF65
:1030C000B397F40063498716B3048740138714004D
:1030D00063DBE634851493060002B3D49700630BD8
:1030E000D700930600043387E640B397E700B33771
:1030F000F000DD8C13F774000144E31D07D44DA0EC
:1031000093D734001397D9019306F07F5D8F93D73F
:103110003900630FD400B207B1831374F47FB5BBD9
:103120000E059397D901135735005D8F93D739005A
:103130005D8F09D701491304F07FB70708000147E5
:10314000A9BBC285BE89368993D735003A845DBF55
:10315000B70980FFFD19198CB3F93701CDB9930672
:10316000140013F7E67F6DE333E7B9006311041E23
:10317000630A072433E70701630D07242E98CE97CF
:10318000B335B800B389B7003707800033F7E900DB
:10319000C28419C7B70780FFFD17B3F9F9000544CA
:1031A000A685228755B7B384054133B7950033868A
:1031B000F940198E37078000718F45EF33E7C4005F
:1031C000B289E31F07C2014901448147F9B11305E0
:1031D000F07F638CA812130680038544E348E6D28F
:1031E00037068000B3E9C900FDB9930607FE130650
:1031F0000002B3D6D700630AC700130600043307E2
:10320000E640B397E7003368F800B3340001D58C8B
:10321000C9BEB3E6B9006382061A1305F7FF3DCDB8
:103220009306F07F630BD70E130780038546E347B1
:10323000A7E62A8789B5B70680FFFD16F58F198C9A
:103240001397D7018D83C1BD1307F07FE388E6DEB6
:1032500033870501CE97B335B700AE9705839394B6
:10326000F701D98C1D8B93D917003684E31407BE60
:1032700005BFB305B840B38737413338B800AE84D3
:10328000B38907413689ADBE639C081263150718E0
:1032900001491304F07FB707080001B12E98CE97BB
:1032A000B335B800B389B700B7078000B3F7F900AA
:1032B000C2840544E38907D80944D9B93388054154
:1032C000B387F940B3B50501C284B389B74005445B
:1032D00039BE0E050D811397D901498F93D7390057
:1032E00081BD130607FE9306000233D6C700630AAA
:1032F000D700930600043387E640B397E7003368AE
:10330000F800B3360001D18EA5B10E061397D70190
:103310000D82518F8D83368921BD0E061397D701FB
:103320000D82518F8D8329B5130607FE1305000208
:1033300033D6C9006309A700130500043307E5402D
:103340003397E900D98DB334B000D18CC1B671D7B1
:1033500033E80701E31008DE0E059397D9010D81CC
:103360003367F50093D73900E1B3B305B840B387AD
:1033700037413338B800AE84B389074136890544F4
:10338000BDB4E30207E40E061397D7010D82518FF7
:103390008D83368949B3931735008D831397D901EF
:1033A0005D8F93D7390069B3931735008D831397D9
:1033B000D9015D8F93D73900B9BBC285BE8969B386
:1033C00041DF8DBB0E061397D7010D82518F8D8380
:1033D00099B30E059397D9010D813367F50093D703
:1033E000390015BB130607FE9306000233D6C90049
:1033F0006309D700930600043387E6403397E9005A
:10340000D98DB336B000D18E51B933E7C400B2893B
:10341000E31807D84DBB0E061397D7010D82518FC5
:103420008D83368931B393060002998E014639B4F3
:10343000797193D7450122D426D24AD056CA5EC6A6
:103440009394C50006D64ECE52CC5AC862C493F7A8
:10345000F77F2A84B28B3689B18093DAF501638CC9
:1034600007101307F07F6387E7148E04135BD50101
:10347000336B9B0037078000336BEB00131A35006A
:10348000938917C08144014C935749011314C90013
:1034900093F7F77F31801359F901D5C31307F07FF4
:1034A0006384E7080E0413D7DB01418F938717C0AD
:1034B00037048000598C93983B00B389F94001464A
:1034C0003D47B3C62A016368971817270000130702
:1034D000E7FE8A04BA949C40BA9782871D8F130630
:1034E0008003635CE640814701460147B2502254A5
:1034F000D207D18FFE06D58F92540259F249624A03
:10350000D24A424BB24B224C3A85BE8545618280FD
:103510009307F07F01460147D1BF81469307F07FB3
:10352000370608000147D9B7B36874019389198039
:103530006399081093E424000144094651B7B36825
:103540007401638B080E630604362285EF10306821
:10355000AA87930655FF7547938887FF158F331405
:10356000140133D7EB00598CB3981B01CE97938984
:10357000373F0146B1B733EBA40063090B0C638BF3
:1035800004302685EF10B0642A87930655FFF5476F
:10359000130A87FF958FB3944401B357F40033EBBC
:1035A0009700331A44019307D0C0B389E7408144A0
:1035B000014CD9BD33EBA40063190B06014AA144A9
:1035C0009309F07F094CC9B5328C89476302FC3EF0
:1035D0008D47E304FCF48547CA86E306FCF0938735
:1035E000F93F6350F02213F778006319073A370761
:1035F0000001618F19C7B70700FFFD177D8C938706
:1036000009401307E07FE345F7F093D8380013171C
:10361000D4011316940033671701318293F7F77FB3
:10362000F1B556895A84D2884DB7268B2A8AB1447F
:103630009309F07F0D4C89BD93E4140001440546C5
:1036400041B593E43400DE880D469DBD014A9144A6
:103650008149054C15BD6365642363018B22528348
:10366000FD19DA87014A131784001355070133D473
:10367000A70213D68801598E1318060113580801A2
:103680009395880013570301B3F7A702B308880284
:10369000C207D98F63F81701B2971307F4FF63F9D4
:1036A000C7243A84B3871741B3D8A702131703017D
:1036B0004183B3F7A702B30F1803C2075D8F637886
:1036C000F70132979387F8FF637FC720BE884204D3
:1036D000C162336414011383F2FFB3786400935E14
:1036E000040113DE050133F36500330F13033307C1
:1036F000F741B3081E0393570F01B38F6E02FE9874
:10370000C697B38ECE0363F3F701969EC16FFD1F7C
:1037100093D80701B3F7F701C207337FFF01F6988B
:10372000FA97636B171363071713B307FA4033074E
:103730001741333AFA00330747416303E624B3588D
:10374000A70293DE07013377A702330F180342075E
:1037500033E7EE00637BE7013297938EF8FF6367F0
:10376000C7246375E725F91832973307E741B35E3D
:10377000A702C207C1833377A7023308D8034207E1
:10378000D98F63FB0701B2971387FEFF63EEC72053
:1037900063FC0721F91EB297C208B3E8D80113955C
:1037A000080113DF08014181B30E6502B3870741A9
:1037B0003305AE0213D70E0133036F021A952A9711
:1037C000330EEE036374670041652A9E41687D18DD
:1037D00013550701337707014207B3FE0E017295B7
:1037E000769763F7A70EB2971383F8FF3E8863E7D7
:1037F000C71663E5A71C638EA71C9A8893E8180078
:10380000F9BB0547E39C07CC9387E9413396F80061
:103810003336C000B317F400D18FB3D8E800B3E853
:10382000F80093F778003354E40081CF93F7F80061
:1038300011476388E70093874800B3B8170146949F
:10384000BE88B7058000E18D854701460147E39FAB
:1038500005C8D5A8E37BFAECB30EBA0033BF4E011E
:10386000B30FCF007E97768A930FF4FF6377E60657
:1038700063601711638CE80E7E8445BDE3611ADF37
:1038800013571A001313FB0193571B003363E30014
:103890007E0AD1BBEF10B03393065501F1471307F1
:1038A0000502E3D6D7CE930785FF331BF400014A08
:1038B000DDB95E85EF10B03193065501714793076E
:1038C0000502E35AD7C8611581483394AB0079B932
:1038D000E396A7F2E30507D039B7E31FE6F8E3095B
:1038E0000FF87E8499B5E373F7DFF9183297C5B303
:1038F000E3F917DB7914B29775B37D46E356E6F02A
:1039000005561D8E930700023356C4006308F70066
:103910009387E943B317F400B3E8F800B338100114
:10392000B3E8C80013F7780001461DC393F7F80009
:10393000114701446389E70093874800B3B8170132
:1039400033341001BE88131694001317D40131824A
:1039500093D8380033E7E800814749BE9A88E31FCF
:10396000A8E8E30EB7C693E8180095B9E3F6FEF0B1
:10397000AE9E33BFBE00329F7914768A7A9775B3B4
:10398000130720C09387F93FFD58E3CCE9E613877E
:103990004800B33817014694BA8891B913F7F80074
:1039A0001146E306C7C4E5B7BA8EFDB3F68875BB0A
:1039B000CA869307F07F014601470DBE1393150099
:1039C0003338B30032983E98F9189A85E30BA8F87B
:1039D00035B5E3E5E5FE9A88E317B7F809B113D8E2
:1039E0004501B7071000FD1793D846011378F87FFB
:1039F000130EF07F33F3B7002A87AA8EFD81328F32
:103A0000F58F93F8F87F13D5F601630CC803638D27
:103A1000C801631508043367E300639E08025D8EE6
:103A200025C235EB1DC582805D8E25E66316080034
:103A30003363E300E30803FE639BA50099C92E8569
:103A400082803363E30063160304638E0803054535
:103A5000F9D97D5582806DF379F5E5BFE38908FEDC
:103A6000E397A5FEE3C508FFE34A18FDE3E167FE1F
:103A7000E316F3FCE36DDFFD0145E3E1EEFD82803B
:103A8000014571F78280D18F89E7E392A5FC01455A
:103A9000828079558280E38BA5FC55BF13D8450100
:103AA000B7071000FD1793D846011378F87F13036A
:103AB000F07F33FEB7002A87AA8EFD81328FF58F03
:103AC00093F8F87F13D5F601630D6802638D6800E3
:103AD000631308043367EE00639308065D8E3DC2EE
:103AE0002DEB11CD82805D8E0DE663160800336EDE
:103AF000EE00E3080EFE6381A5040545E5D57D557E
:103B00008280336EEE0063160E00E39808FFD18FBB
:103B10008DCF09458280E38208FEE390A5FEE3CEC7
:103B200008FD634B1801E3EAC7FD6317FE00E36677
:103B3000DFFD0145E3F8EEFBF9D12E85828045FFDC
:103B400055F175BF014555FB8280E398A5FA014503
:103B50008280E38AA5FC55B7397193D7450122DCF1
:103B600026DA4ED662CC9394C50006DE4AD852D4EB
:103B700056D25AD05ECE93F7F77F2A84328CB1802A
:103B800093D9F501638607161308F07F6382071B3C
:103B90008E049355D501C58DB7048000CD8C131AC2
:103BA0003500938B17C0014B814A93D74601139878
:103BB000C60093F7F77FE28E1354C80013D9F601BD
:103BC000F5C71308F07F638E0707931634009387B9
:103BD00017C09355DC01D58D338E7701B706800071
:103BE000A94733E4D500931E3C00014513031E0092
:103BF00063C6671933C82901C28609466347660749
:103C00009308FBFF854563EB151B630DC5128547C4
:103C10003688631FF506814781460147F25062549A
:103C2000D207D58F7E08B3E70701D2544259B25963
:103C3000225A925A025BF24B624C3A85BE85216150
:103C4000828033678401138EFB7F63090710056749
:103C500033C8290113070780136B3B002946C2862E
:103C60003383EB00634366430D4505463316660117
:103C70001377065305C389476386FA0C8D4763881B
:103C8000FA12568585472684D28E3688E305F5F8E4
:103C90001A8E79A493770624C5EF13768608630FEE
:103CA0000610CA86A284768AAA8AF1B7B36784010D
:103CB000FDC3630B04322285EF1060712A8E130757
:103CC00055FFF547930E8EFF998FB316D401B35766
:103CD000FC0033E4D700B31EDC01338ECB41130E5E
:103CE000DEC0A947014513031E00E3D567F179A0A3
:103CF00033EAA400630C0A0836C66388042C2685C0
:103D0000EF10E06CB2462A87130655FFF547130AF9
:103D100087FF918FB3944401B357F400DD8C331ABD
:103D200044019307D0C0B38BE740014B814AB5BD36
:103D300033EAA40063160A048144214B930BF07FFD
:103D4000894AA5B536889307F07F81460147F9B5C2
:103D500001489307F07FB7060800C9B585679387C8
:103D60000780136B2B00A9463383FB0063D2662BBD
:103D7000814EB9470945AD466387D730CE86E5BD4C
:103D80002A8A314B930BF07F8D4A05B58144114B44
:103D9000814B854A19BD5E8E136B1B00A9470144F8
:103DA000814E054513031E00E3D667E5C1BF0148F8
:103DB0009307F07FB706080001478DB5C1651387EB
:103DC000F5FF93570A0193D80E01337AEA00B3FE48
:103DD000EE003307DA033386D70313550701B386A2
:103DE0004803B2963695338F17036373C5002E9F31
:103DF000C1631386F3FFB375C500B376C400718F3A
:103E0000935F0401C205B302DA02BA954181338798
:103E1000D70213D60201338A4F033A9A5296B387D8
:103E2000F7036373E6009E9741691304F9FF337744
:103E3000860093D30401B3F28200E18C42073384FD
:103E40009E02169741823E963A95B3829802935706
:103E50000401B38ED303F6929697B388780263F386
:103E6000D701CA984169930EF9FFB3F2D701B37E27
:103E7000D401C202C183C69733849602B388D201AB
:103E8000B386D30293520401B3849F02B694A692E0
:103E9000B38E7F0263F3D200CA9EC16FFD1FB3F6DB
:103EA000F2013374F401C2067A95A296369633373E
:103EB000E5003297AA98BA9733B5A8003E95B33675
:103EC000D6003336C700D18E33B7E70013D60201D0
:103ED000B337F5005D8FB29636977697939E98002C
:103EE000935775012607B3EEBE003364F700B33E67
:103EF000D00193D77801B3EEFE00B7070001260585
:103F0000E18FB3EEAE0089CF93D71E0093FE1E0063
:103F10001317F401B3E7D701B3EEE70005801A8E5B
:103F20009307FE3F635AF00413F77E0001CF13F7A7
:103F3000FE0091466308D70013874E00B33ED701B9
:103F40007694BA8E37070001618F19C7B70700FF53
:103F5000FD177D8C93070E401307E07F6345F70A3A
:103F600093DE3E001317D401931694003367D701F4
:103F7000B18293F7F77F5DB10547D5E3130EEE41AC
:103F80003396CE013336C000331EC401B3DEEE00DB
:103F90003366C6013366D60193777600B355E400E5
:103FA00081CF9377F60011476388E70093074600B7
:103FB00033B6C700B2953E86370580006D8D8547C4
:103FC00081460147E31C05C475A0EF10404013066D
:103FD0005501F147B24613070502E3D9C7D261156F
:103FE000014AB314A40035BB6285EF10403E1307AD
:103FF0005501F147130E0502E3D5E7CC6115814E5B
:104000003314AC00D9B99307F07F8146014739B129
:1040100033C82901C2860144814E0945F9BE1D8F6E
:1040200093068003E3C9E6BEFD46E3D9E6F4855670
:10403000B387F64093060002B357F4006308D70035
:10404000130EEE43331EC401B3EECE013336D0015E
:104050005D8E1377760081461DC39377F600114776
:1040600081456389E7009307460033B6C700B3353F
:10407000C0003E86939695001397D501B1820D82BC
:10408000518F814761BE3A8429B93D476317EB00E0
:104090000148B7060800014751B62287AD470D45D4
:1040A000D9B9B7071000FD170111B3F8B70013D83D
:1040B0004601F58F8E081397370022CC26CA13D4F9
:1040C00045014AC89357D6011359D50106CE4EC6AD
:1040D0001378F87F1303F07F93D4F5013369190146
:1040E0001374F47F93183500FD82D98F9315360031
:1040F0006302681C93C61600330704416382D4121E
:104100006357E0686304081E630C645293068003DF
:10411000854963CBE602B7068000D58FFD4663C3B1
:10412000E63E93060002998EB399D70033D6E50098
:10413000B396D500B3E9C900B336D00033D7E70052
:10414000B3E9D9003309E940B3893841B3B738013D
:104150003309F940B70780003377F9006307072870
:10416000FD173379F900630709284A85EF102026E7
:10417000130785FF93060002B387E640B3D7F90023
:104180003319E900B3E72701B399E900634C872E9F
:10419000018F0507998E3396D90033D9E90033365C
:1041A000C0003366C900B396D700B3E9C60033D95F
:1041B000E700014493F7790081CF93F7F9001147A5
:1041C0006388E70093874900B3B937014E99BE89E8
:1041D000B7078000B377F9006389072605049307C2
:1041E000F07F630EF41EB70780FFFD17B377F90069
:1041F0001397D70193D93900A60733673701B183E5
:104200001374F47F85885204FE045D8C458CF24063
:10421000A2856244D2444249B2493A85056182800E
:10422000635BE0586312081AB3E6B700638806249C
:104230001306F7FF6302063C63036744130780031A
:1042400085466346C7023287FD4663C3E6401306D0
:104250000002198EB396C70033D5E5003396C5002A
:10426000C98E3336C00033D7E700D18E3A99B38771
:104270001601B3B6D700BE893699B7078000B37769
:10428000F9006384071605049307F07F6309F414AB
:10429000B70780FFFD17B377F90013D7190093F91B
:1042A0001900336737019399F701B3E9E90013D98E
:1042B000170009B733E7B7001303148029CB638CC9
:1042C000D404630C030A6303041A0E061397D70180
:1042D0000D82518F8D83B6845D8F630207108144F8
:1042E0001304F07FB7070800014731BFB3E6B700FA
:1042F000638606189306F7FF63890632630E6730FC
:10430000130780038549E341D7E4368701BD93C68F
:104310001600E398D4FA630E0316631404261307F9
:10432000F07FB36619016388063C9306F7FF638547
:10433000062C1305F07F6306A724130680030547A8
:104340006345D6027D47634ED73E13060002158EA5
:104350003317C90033D5D8003396C800498F333698
:10436000C000B356D900518FB697BA9533B7E50060
:10437000AE893309F700428409B713071400137795
:10438000E77F631D071433E7B70033681901631B28
:1043900004246303083263070734B389B84033B792
:1043A00038013306F940198E37078000718F630595
:1043B000073CB3881541B3872741B3B51501C689BA
:1043C0003389B740B684FDB36308642413068003C1
:1043D0008546E34EE6E8B7068000D58FB5B58588FB
:1043E0001304F07F8147014739BD13F77900E316C5
:1043F00007DCD5A04E85EF00907D13078501FD46B3
:10440000E3DAE6D6930785FFB397F900634287188E
:10441000B30987401387190063D6E63685199306DA
:104420000002B3D93701630CD70093060004338729
:10443000E640B397E700B337F000B3E9F90013F7AC
:1044400079000144E31B07D679A093D739001317ED
:10445000D9019306F07F5D8F93573900E30ED4E6C0
:10446000B207B1831374F47F858871BB1307F07FA3
:104470003365190145ED3E89AE88B68493D738007F
:104480003A84F1B7370980FF7D19198C33F9270178
:1044900015B39306140013F7E67F63140710336710
:1044A0001901631A041C6306072633E7B70063018A
:1044B0000728C695CA97B3B815013389170137077E
:1044C00080003377E900AE8919C7B70780FFFD1771
:1044D0003379F9000544CE8822874DB7B389B840B7
:1044E00033B738013306F940198E37078000718FD2
:1044F00079EF33E7C9003289E31707C681440144E5
:10450000814711B3930607FE13060002B3D6D70006
:104510006309C700130600043307E640B397E700BA
:10452000DD8DB339B000B3E9D90039B91305F7FF10
:10453000630E05181303F07F6304671E13078003DF
:10454000B68485496347A7027D476343A7141307D1
:104550000002098FB319E900B3D6A8003397E80029
:10456000B3E9D9003337E0003355A900B3E9E900D6
:10457000898FB3893541B3B535013389B74042845A
:10458000D1BE0E061397D7010D82518F8D83A9B32B
:10459000B70680FFFD16F58F198C1397D7018D8311
:1045A000C1B51307F07FE38CE6E23387B800CA9702
:1045B000B3381701C69705839399F701B3E9E9006A
:1045C0001D8B13D917003684E31907BE29B7B388AA
:1045D0001541B3872741B3B51501C6893389B74063
:1045E000B68451B6631C0810E31107CE814413044E
:1045F000F07FB707080001B9C695CA97B3B815018F
:1046000033891701B7078000B377F900AE890544F5
:10461000E38D07DC0944ADB90E059317D901135793
:1046200035005D8F9357390045B9B385B840B3075E
:10463000F940B3B8B800AE8933891741054419BEB3
:104640000E051317D9010D81498F9357390069B1B0
:10465000130607FE9306000233D6C7006309D7008E
:10466000930600043387E640B397E700DD8DB33649
:10467000B000D18EEDBE6DCBDD8DE39205C60E058B
:104680009317D9010D813367F50093573900A9B10C
:10469000130705FE930600023357E9006309D500AE
:1046A00093060004898EB316D900B3E8D800B33955
:1046B0001001B3E9E90075BDE30207E40E061397A4
:1046C000D7010D82518F8D83B68459BBB3881541B4
:1046D000B3872741B3B51501C6893389B740B6847E
:1046E00005448DBC931735008D831317D9015D8F59
:1046F00093573900B5B33E89AE8849B3E31107BE7D
:10470000931735008D831317D9015D8F93573900A7
:10471000E1B60E061397D7010D82518F8D8389B3B1
:104720000E061397D7010D82518F8D83B6846DB617
:104730000E059317D9010D813367F50093573900A2
:1047400005B3138606FE130700023356C9006389BA
:10475000E60013070004158F3317E900B3E8E800FB
:1047600033371001518F11B10E061397D7019356AD
:104770003600558F8D838DB633E7C9003289E31C2F
:1047800007D4ADBB93060002998E014619BCE3061F
:1047900007BE330588402A87E30C04CC1307800347
:1047A0006348A700370780003369E900B68469BB16
:1047B000B68485497DBBE30E07CCB306884019E07B
:1047C000368785B6130680030547E340D6BA370718
:1047D00080003369E900BDB6411106C622C426C275
:1047E00015CD1357F541B344A700998CAA872685A8
:1047F00013D4F701EF00B03D9307E041898F2947BB
:1048000093F7F77F634BA7022D47098F33D7E40057
:1048100055053207B394A400318329A00144814790
:1048200001478144D2077E04D98FB240C18F224410
:104830002685BE8592444101828055153397A40098
:10484000320731838144F9BF93D74501B706100081
:104850001387F6FF93F7F77F1306E03F6D8FFD8117
:104860006353F6021306D0436352F60205450D8DDD
:104870001357F541B7050080B337A000998D330574
:10488000A0409D8D82800145814582801306204392
:10489000D98E635EF6001387D7BA9387D7BC634778
:1048A00007043317E50001459DE1BA8582801307AF
:1048B00030431D8F7D466344E6029387D7BE335550
:1048C000E500B397F6005D8D33D7E600F9DDB33729
:1048D000A000B305E0403305A0409D8D8280130504
:1048E00030411D8D33D5A60001477DBF7D4713564E
:1048F00015001D8F3356E6003397F600518F3315A0
:10490000F5005DB7011106CE22CC26CA4AC84EC6B4
:10491000B367B500D9CF2E84AA8413D9F50163C13A
:10492000050EA2894DC82285EF00702A9307E04347
:10493000898F130730436358F71213076043634BA3
:10494000F70C2147A686930585FF630DE500130646
:104950008002098E33D6C4003317B400B369E60071
:10496000B396B400370680FF7D1693F5760033F7D3
:10497000C90085C593F5F6001148638005031388C7
:104980004600B336D8003697B7058000F98DC28649
:1049900089C59307F043718F898F13D6360093151D
:1049A000D70193169700B3E9C500B18293F7F77F5B
:1049B00029A00149814781468149F2406244D207DA
:1049C0007E09D58FB3E72701D24442494E85BE8583
:1049D000B249056182802685EF00701FAA86930781
:1049E000E043130505021307A002898F635CA70447
:1049F000D516B396D400B20693F7F77FB18275BF90
:104A0000B337A0003304B0401D8CB304A040A2898A
:104A100079D011BF2147098F130607FE63480606A8
:104A20003356C4000147930585019306850363C28D
:104A30000504B395B4008146CD8EB336D000D18E37
:104A4000BA890DB7138756019306B002898EB3D683
:104A5000D4003314E400C18EB206B399E400B182ED
:104A600093F7F77F99BF2D47630EE502130755FFB4
:104A7000E1BFFD45958D13D814003358B800B31528
:104A8000D400B365B800B396D4007DB77D46198EC7
:104A900093161400B396C60033D6E400558E3357F0
:104AA000E40051B79316C400B182A689930730433E
:104AB00029B73707800041117D179356750113D62A
:104AC0007501B377A70026C26D8F4AC01376F60F23
:104AD00013F9F60F06C622C49354F501FD818E0723
:104AE0000E07B306C9406381B404635FD00031EEA2
:104AF000630107121386F6FF630D062A9305F00F74
:104B0000638AB616B28689A8F1C2B3062641631B32
:104B1000091CF5CF1385F6FF6308052C1308F00F69
:104B200063880615AA86F1A226886357D01469C641
:104B30001306F00F6300C91437060004518F6D4649
:104B40006358D61E8507CA8689A01306F00F630333
:104B5000C91237060004518FED45054663CDD500D7
:104B600013060002158E3316C700B356D70033372D
:104B7000C00033E6E600918F37070004B3F6E70084
:104B8000CDEA13F77700CA8649C713F7F700114635
:104B90006303C7009107370700047D8F3DCB138562
:104BA00016001307F00F26886301E50813976700C6
:104BB0001375F50F2583B24022445E05598D931776
:104BC000F801924402495D8D41018280130619006B
:104BD0001376E60F6313061463190908638207202E
:104BE0006DCB3385E74037060004698E63020622E9
:104BF000B307F740AE84B5A009CF1386F6FF630272
:104C0000061A9305F00F6387B606B2860DBFAE8411
:104C1000BA871307F00F8D83639FE60AD9CB01484B
:104C20001305F00F3707400079B71305F00F014760
:104C300059B77D1733F4E7002285512F6D153314D2
:104C4000A40063412507B3062541850693070002AA
:104C5000958FB317F400B337F0003354D400C18FED
:104C6000814613F7770015F33DB76399071445DBC9
:104C7000AE84BA878D835DB7B1C2B306264163198E
:104C8000090ED9D79385F6FF638D05101305F00F34
:104C9000E381A6FEAE86ED4563D6D51293071700D5
:104CA000B286E5B5B70700FCFD17B306A940E18F52
:104CB0004DBF26881305F00F0147F5BD9306190077
:104CC00013F6E60F55EE6319090E63840712631499
:104CD00007128D838146A60713D7970013F5F60FA9
:104CE0002688D1BD1305F00FE304A6F837050004AC
:104CF000C98F6D480545634DD80013050002158D19
:104D00003395A700B3D6D700B337A00033E5F6003C
:104D1000B307A7403289AE8485B53384E740B70630
:104D20000004E18EBDEA09F801480145014761B57B
:104D300013060002158E3316C7003357D700B3365B
:104D4000C000558FBA97370700047D8FE30B07E249
:104D5000930619001305F00F0147E38EA6E437060A
:104D6000007E13D717007D16858B718FD98FD5BD27
:104D70009305F00FE30FB6EEB7050004CD8F21BF0A
:104D80001306F00FE383C6EA3E979357170013F616
:104D90007700E31C06DE8D833DBF3304F740AE840D
:104DA00061BDBA97370700047D8F8946054945FBE9
:104DB000C9BB998F0549C9B3E38D07EAE31107E63B
:104DC0008D83A9BD93050002958DB395B700B3D629
:104DD000D700B337B000DD8EB387E6003289A5B7C0
:104DE00021D7AE84BA87F5B5B307F740AE8405493D
:104DF00061B3BA87F9BDBA97370600047D8E814644
:104E000059DA370700FC7D17F98F85468D83E1B5A8
:104E1000AA8719D98D83C1B579719357750152CC81
:104E200056CA1317950006D622D426D24AD04ECEA3
:104E30005AC893F7F70F935A9700135AF501638BEB
:104E400007101307F00F638DE71013973A00B706AA
:104E50000004B36AD700938417F80149014B93D734
:104E600075011394950093F7F70F258093D9F501F9
:104E7000F9C71307F00F6382E706938717F83385A6
:104E800097000E0437070004A947598C8146930404
:104E9000150063CF270FB3453A0109472E88634CAD
:104EA00027057D190546636C26136382E60C85474A
:104EB000C2856394F60681470147B2502254139588
:104EC0007701598D9397F50192540259F249624A3C
:104ED000D24A424B5D8D456182801385F40F49CCE7
:104EE000B3453A011369390029472E889384041089
:104EF0006347271F8D46054733172701137607534E
:104F000019CE89476305FB068D476304FB02DA86E9
:104F100085475684C285E380F6FA268535A29377C5
:104F2000072481EB137787085DCB4E88A28A368BE6
:104F3000C9BF81459307F00F37074000BDBF3DEC67
:104F4000268513691900A947854693041500E3D403
:104F500027F53DA863950A0411498144054B01B723
:104F6000639A0A0221499304F00F094BCDBDC28513
:104F70009307F00F014791B713692900A94793845C
:104F8000041039478946E3D827F1AD47E30FF7F816
:104F9000528885BF31499304F00F0D4BC9B5568532
:104FA0002EC635219307B5FFB39AFA009307A0F8F0
:104FB000B245B384A7400149014B55B5228501296B
:104FC000B387A4401307B5FF1385A7F8A947331487
:104FD000E400814693041500E3DF27EB55BFC16869
:104FE0009387F8FF13D60A0113580401B3FAFA00A5
:104FF000E18FB3865703B307F60213D70601B30A4E
:105000005803BE9A5697330606036373F700469615
:1050100041687D18B3770701B3F60601C207B6975A
:105020009396670013540701E9833337D000329415
:10503000D98F1A045D8CB7070008E18F91C7935789
:10504000140005885D8C26859307F507635FF002E1
:105050001377740019C71377F40091466303D700E0
:10506000110437070008618F19C7B70700F8FD174B
:105070007D8C930705081307E00F6349F7041317A6
:105080006400258393F7F70F0DBD854699C79D8E64
:105090006D4681470147E342D6E21307E50933171E
:1050A000E4003337E000B357D400D98F13F777000B
:1050B00019C713F7F70091466303D7009107370725
:1050C00000047D8F01CB85470147C5BB9307F00FD7
:1050D0000147E5B39A0713D797008147F9BBBD464F
:1050E000814537074000E30AD9DC2D478D4671BD65
:1050F000411106C622C426C215CD1357F5413344CB
:10510000A700198CAA87228593D4F701C924130715
:10511000E009B307A74013076009634AF702214774
:105120006308E50861153317A4002607258313F5E6
:10513000F70F21A0814401450147B24022445E059A
:105140009397F401598D92445D8D4101828013073C
:1051500090096343F70415479306B5FF6304E50020
:105160003314D400B70600FCFD16137674003377B1
:10517000D40011CE3D881146630BC40011073706D9
:105180000004798E09C69307F009758F898F1A0775
:10519000258313F5F70F55B71307B5019546331758
:1051A000E400898E3354D4003337E000598C5DBF5E
:1051B0002604135794001305600941B793577501EE
:1051C00093F7F70F41111387170022C426C206C6B2
:1051D000931495001377E70FA5801354F50115C3B9
:1051E00013D7340093870738F6041315F401B2403F
:1051F0002244D207D98FC98FBE85268592444101AA
:1052000082809DE7B1C02685D922A94763C5A7043E
:105210002D47098F9307550133D7E400B394F40069
:10522000930790383207898F318393F7F77F75BFE3
:1052300099CC13D73400B70708005D8F3207F60406
:1052400031839307F07F55B78147014779BF9307B3
:10525000F07F014759BF130755FF3397E40081449E
:10526000C1B793D7450193F7F77F9396C50013868F
:105270001700A5821357D5011376E67FFD81D98EDD
:105280001318350005C2138607C81307E00F6354CF
:10529000C7049307F00F0147DE0733E5E700FE057B
:1052A0004D8D828033E7060189EB01482DCB26081E
:1052B0001357980093F7F70FC5B79307F00F69DFFF
:1052C0009307F00F37074000DE07814533E5E7001D
:1052D000FE054D8D8280635CC00413176500333773
:1052E000E0008E061358D801558F33670701937776
:1052F0007700E9CB9377F70091466385D70C1107C8
:10530000B7070004F98FDDC79307160093F7F70F6F
:105310000147DE0733E5E700FE054D8D82808147BA
:105320000147DE0733E5E700FE054D8D82802557F6
:10533000E347E6FE7945B7088000118D7D47B3E667
:1053400016016350A7047957118F1306000233D753
:10535000E6006308C500938727CAB396F600336852
:10536000D800333800013368E80093777800B9C774
:105370009377F8001147639CE70213583800814780
:105380003DB7938727C83317F800B396F600333735
:10539000E0003358A800558F3367E8009377770013
:1053A0000146A9FB0D83FD1833771701F5B51307E7
:1053B0004800014613583700B287D5BD1A08135765
:1053C0009800D9BD1A0725839377F60FF1B5C16709
:1053D0006375F5029337051093C717008E071307FF
:1053E00000021D8F3355F5009707000093870711C2
:1053F000AA9788233305A7408280B7070001637FFF
:10540000F500C1473355F500970700009387070F54
:10541000AA97882341473305A7408280E147335547
:10542000F500970700009387670DAA978823214707
:105430003305A7408280000025660D0A00000000A9
:105440000000000000000080182D4454FB2109409A
:10545000182D4454FB2109C0182D4454FB21E9BFE9
:10546000D221337F7CD90240D221337F7CD902C044
:10547000E2652F227F2B7A3C075C143326A6813C01
:10548000BDCBF07A8807703C075C143326A6913CAC
:105490004FBB610567ACDD3F182D4454FB21E93F4C
:1054A0009BF681D20B73EF3F182D4454FB21F93F3B
:1054B000286E756C6C2900009EE1FFFF58E0FFFF2D
:1054C0002EE0FFFF10E1FFFF2EE0FFFF62E0FFFF95
:1054D0002EE0FFFF10E1FFFF58E0FFFF58E0FFFF65
:1054E00062E0FFFF10E1FFFF6AE1FFFF6AE1FFFFFB
:1054F0006AE1FFFF62E0FFFF000102020303030312
:105500000404040404040404050505050505050553
:105510000505050505050505060606060606060633
:10552000060606060606060606060606060606061B
:105530000606060606060606070707070707070703
:1055400007070707070707070707070707070707EB
:1055500007070707070707070707070707070707DB
:1055600007070707070707070707070707070707CB
:1055700007070707070707070808080808080808B3
:10558000080808080808080808080808080808089B
:10559000080808080808080808080808080808088B
:1055A000080808080808080808080808080808087B
:1055B000080808080808080808080808080808086B
:1055C000080808080808080808080808080808085B
:1055D000080808080808080808080808080808084B
:1055E000080808080808080808080808080808083B
:0855F000080808080808080873
:1055F800000000000000000001020304060708097B
:105608000000000001020304010203040607080960
:1056180000D8B8050204060800000000FA21094075
:105628000000000000806640182D4454FB21F93F1B
:10563800182D4454FB210940182D4454FB2109C05E
:10564800182D4454FB21E93F182D4454FB21F9BF80
:10565800075C143326A6A13C9C7500883CE4377E81
:10566800000000000000F03F0000000000000040C3
:10567800000000000000F83F000000000000F0BF3C
:1056880011DA22E33AAD903FEB0D76244B7BA93F2C
:10569800513DD0A0660DB13F6E204CC5CD45B73FFA
:1056A800FF8300922449C23F0D5555555555D53FA6
:1056B8002F6C6A2C44B4A2BF9AFDDE522DDEAD3F9A
:1056C8006D9A74AFF2B0B33F711623FEC671BC3F3A
:1056D800C4EB98999999C93F00002041000000380F
:1056E8000000FA440AD7233CCDCCCC3D6666663F21
:00000001FF
